:100000000C945C010C9484010C9484010C94840184
:100010000C9484010C9484010C9484010C9484014C
:100020000C9484010C9484010C9484010C9484013C
:100030000C9484010C9484010C9484010C9484012C
:100040000C9460140C9484010C9456110C9430118F
:100050000C9484010C9484010C9484010C9484010C
:100060000C94F7200C948401710484049704AA046E
:10007000BD04D004E3040B27402740274027402736
:1000800040274027AD264027D826402740273C263A
:100090004027C026402740274027402740274027A9
:1000A0004027402740274027402740272B2640272E
:1000B0007E2603264027002740271A264027402770
:1000C00040274027A8264027D826B22640273C268E
:1000D000C926B72640274027402742271E272F271B
:1000E00007634236B79BD8A71A39685618AEBAAB21
:1000F000558C1D3CB7CC5763BD6DEDFD753EF617B5
:100100007231BF000000803F08000000BE92244909
:10011000123EABAAAA2ABECDCCCC4C3E0000008039
:10012000BEABAAAAAA3E00000000BF000000803FAC
:100130000000000000084178D3BB4387D1133D196C
:100140000E3CC3BD4282AD2B3E68EC8276BED98F99
:10015000E1A93E4C80EFFFBE01C4FF7F3F000000DD
:10016000000000000000230026002900000000001D
:10017000240027002A0000000000250028002B0092
:10018000040404040404040402020202020203033D
:100190000303030301020408102040800102040845
:1001A00010200102040810200000000800020100D5
:1001B00000030407000000000000000000407A1067
:1001C000F35A00A0724E18090010A5D4E80000E808
:1001D0007648170000E40B54020000CA9A3B000066
:1001E00000E1F505000080969800000040420F00F5
:1001F0000000A08601000000102700000000E803B6
:10020000000000006400000000000A000000000080
:100210000100000000002C76D888DC674F0823DF3F
:10022000C1DFAE59E1B1B796E5E3E453C63AE65112
:10023000997696E8E6C28426EB898C9B62ED407C39
:100240006FFCEFBC9C9F40F2BAA56FA5F490055AD5
:100250002AF75C936B6CF9676DC11BFCE0E40D47FA
:10026000FEF520E6B500D0ED902E0300943577051D
:100270000080841E080000204E0A000000C80C33D5
:100280003333330F986E12831141EF8D2114893B64
:10029000E65516CFFEE6DB18D1844B381BF77C1DE4
:1002A000901DA4BBE424203284725E228100C9F137
:1002B00024ECA1E53D27BD2A11241FBECFEFD8E0D5
:1002C000DEBFCDBF13E0A0E0B1E0E4EBF9E602C091
:1002D00005900D92AA34B107D9F725E0AAE4B3E05E
:1002E00001C01D92A33CB207E1F711E0CCE5D1E0DB
:1002F00004C02197FE010E94D42BCB35D107C9F74A
:100300000E9414240C94D8340C9400002F923F9235
:100310004F925F926F927F928F929F92AF92BF9215
:10032000CF92DF92EF92FF920F931F93CF93DF93C1
:10033000CDB7DEB7C250D1400FB6F894DEBF0FBEC6
:10034000CDBFCF51DF4F99838883C15ED04060E03D
:100350000E94EE15CF51DF4FA881B981C15ED04018
:1003600054961C9254971F961C921F9755961E01E7
:10037000E5E82E0E311C9E012B533F4FC152DF4F3B
:1003800039832883CF5DD040F1018D918193C15293
:10039000DF4F48815981CF5DD040E417F507A9F7B9
:1003A00080914D03882309F460C16EEF72E0CE01A5
:1003B0008F529F4F0E941B11BE016B537F4FC10193
:1003C0000E944D20C752DF4F1882C95DD040C652EF
:1003D000DF4F1882CA5DD040C552DF4F1882CB5D17
:1003E000D040C452DF4F1882CC5DD040C352DF4FA3
:1003F0001882CD5DD040CA53DF4F2881C65CD04003
:10040000FE01E752FF4FCF0105963191231709F402
:1004100026C1E817F907C9F76FE172E0CE018F52E4
:100420009F4F0E94711C81010B5F1F4FD1016D9185
:100430001D0140E1CE0101960E94E210BE016F5FF6
:100440007F4FCE018F529F4F0E94801CCE0101969C
:100450000E94F71C63E072E0CE018F529F4F0E9412
:10046000711C2016310611F764E371E0CE018F5242
:100470009F4F0E94711CC053DF4F8881C05DD040E8
:10048000811108C066E371E0CE018F529F4F0E9438
:10049000711CE5C061E471E0CE018F529F4F0E9454
:1004A000711C69E471E0CE018F529F4F0E94711C54
:1004B00040E1CB53DF4F6881C55CD040CE0101964F
:1004C0000E94E210BE016F5F7F4FCE018F529F4F9F
:1004D0000E94801CCE0101960E94F71C6DE471E021
:1004E000CE018F529F4F0E94711C40E1CA53DF4FD3
:1004F0006881C65CD040CE0101960E94E210BE0128
:100500006F5F7F4FCE018F529F4F0E94801CCE01A4
:1005100001960E94F71C62E571E0CE018F529F4F59
:100520000E94711CC953DF4F6881C75CD04070E0E6
:100530004AE0CE0101960E94FC1CBE016F5F7F4F16
:10054000CE018F529F4F0E94801CCE0101960E94C7
:10055000F71C6CE571E0CE018F529F4F0E94711C19
:10056000C853DF4F6881C85CD04070E04AE0CE01DC
:1005700001960E94FC1CBE016F5F7F4FCE018F521F
:100580009F4F0E94801CCE0101960E94F71C64E6DA
:1005900071E0CE018F529F4F0E94711CC753DF4FF5
:1005A000688179818A819B81C95CD0408E010F5F0F
:1005B0001F4F22E044E00E949230FC010190002095
:1005C000E9F73197AF01481B590BBC01CE018F529F
:1005D0009F4F0E94D41B6BE671E0CE018F529F4F5C
:1005E0000E94711CC253DF4F6881CE5CD040CE01A7
:1005F0008F529F4F0E94461C61E771E0CE018F52DF
:100600009F4F0E94711CC353DF4F6881CD5CD04067
:1006100070E04AE0C8010E94FC1CB801CE018F5274
:100620009F4F0E94801CC8010E94F71C6CE771E07C
:10063000CE018F529F4F0E94711C4AE0C153DF4F81
:100640006881CF5CD040C8010E94E210B801CE01A1
:100650008F529F4F0E94801CC8010E94F71CCE0140
:100660008F529F4F0E94F71CF3C480914F0381303B
:10067000D9F40E943A1BF10161911F0170E080E002
:1006800090E040E10E94621983E092E00E946019CC
:10069000C152DF4F28813981CF5DD0402216330609
:1006A00051F70E94A319D4C40E943A1B80914C03B5
:1006B0008823D9F082E891E00E946019710130E14D
:1006C000E30EF11C8101D8016D918D0170E080E095
:1006D00090E040E10E94621983E092E00E9460197C
:1006E0000E151F0581F70E94A319CF51DF4FE88136
:1006F000F981C15ED04087819085A185B285893519
:10070000F3E49F07A105B10509F4C5C48B369542F2
:10071000A105B10509F4BFC4CF51DF4FE881F981CC
:10072000C15ED04087819085A185B2858A3892428A
:10073000A105B10509F0F7C46EEF72E0CE01875252
:100740009F4F0E941B11D1017C91872F807A803AA4
:1007500009F032C481E08F8319821A821B821C82C5
:100760001D82188619861A861B861C861D861E8683
:100770001F86188A198A1A8A1B8A1C8A1D8A1E8A51
:100780001F8A188E198E1A8E1B8E1C8E1D8E1E8E21
:100790001F8E18A219A21AA21BA211966C91B62F35
:1007A000B770C050DF4FB883C050D1405B2F550F9A
:1007B00083E0850FE4E8F0E0EC0FFD1FE80FF11D8A
:1007C000A080AE825E5FCE018F529F4F9C01285F5A
:1007D0003F4FFC011192CF01E217F307D1F7C85246
:1007E000DF4F8881C85DD040C952DF4F4881C75D67
:1007F000D040CA52DF4F3881C65DD040CB52DF4F68
:10080000C880C55DD040CC52DF4FF881C45DD04078
:10081000CB50DF4FF883C55FD040CD52DF4F2881EA
:10082000C35DD040CE52DF4FD880C25DD040CF52A2
:10083000DF4FB880C15DD0402101852E912C91E021
:10084000820102191309081519050CF0EBC0D20139
:100850005D912D01FE01EB53FF4F3F01E12CF12C87
:10086000B52FB170F52FF270CB51DF4FF883C55E15
:10087000D040A52FA470C751DF4FA883C95ED040D8
:10088000E52FE870C551DF4FE883CB5ED040F52FF0
:10089000F071C351DF4FF883CD5ED040A52FA07219
:1008A000C251DF4FA883CE5ED040E52FE074C15126
:1008B000DF4FE883CF5ED040870101501109073038
:1008C000110528F40C5C1F4FF8010C94D42B152F44
:1008D000110F110B1923CB53DF4F1883C55CD04088
:1008E0007FC0C151DF4FF881CF5ED040FF2331F090
:1008F000CA53DF4F9883C65CD04072C0CA53DF4FE3
:100900001882C65CD0406CC0C251DF4FA881CE5E59
:10091000D040AA2331F0C953DF4F9883C75CD04041
:100920005FC0C953DF4F1882C75CD04059C0C35164
:10093000DF4FE881CD5ED040EE2331F0C853DF4F6A
:100940009883C85CD0404CC0C853DF4F1882C85C45
:10095000D04046C0C551DF4FF881CB5ED040FF2369
:1009600031F0C753DF4F9883C95CD04039C0C753BB
:10097000DF4F1882C95CD04033C0C751DF4FA88118
:10098000C95ED040AA2331F0C653DF4F9883CA5CBA
:10099000D04026C0C653DF4F1882CA5CD04020C06A
:1009A000CB51DF4FE881C55ED040EE2331F0C55317
:1009B000DF4F9883CB5CD04013C0C553DF4F188204
:1009C000CB5CD0400DC0BB2331F0C453DF4F9883C4
:1009D000CC5CD04005C0C453DF4F1882CC5CD04003
:1009E000F30111913F01113009F481271C2D1827C3
:1009F000CB50DF4FC880C55FD040C826FFEFEF1A4D
:100A0000FF0ACB50DF4F2883C55FD0402D2DDB2C54
:100A1000B82E842F432F312FA8E0EA16F10409F0F5
:100A20004BCF0ECFC952DF4F4883C75DD040C8526D
:100A3000DF4F8883C85DD040CA52DF4F3883C65D20
:100A4000D040CB52DF4FC882C55DD040CB50DF4F86
:100A5000B881C55FD040CC52DF4FB883C45DD04071
:100A6000CD52DF4F2883C35DD040CE52DF4FD882B6
:100A7000C25DD040E0E88E9FC0011124F0E44F9F9A
:100A8000A0011124842BB82A40E2349FF0011124E4
:100A9000BE2A50E1C59E70011124CB2CCE2888E0DF
:100AA000B89F80011124BC2DB02B94E0299F9001A8
:100AB00011242B2BDD0C2D29A2121F82872F82954A
:100AC0008F7089838A3009F01F820F8101111BC04A
:100AD0008F81882309F470C241E0BE016F5F7F4FB0
:100AE000CE018B539F4F0E941A1EBE016B537F4F46
:100AF000CE0187529F4F0E94871CCE018B539F4F80
:100B00000E94F71C59C27F70A4E07A9FC001112493
:100B1000762F7295769576957370872B8A8381E010
:100B200065FF80E08B8381E064FF80E08D836F70E0
:100B300063FB662760F96C83B885CB51DF4FB883C0
:100B4000C55ED040CF84D888E988FA8869847B88DC
:100B5000EF81C150DF4FE883CF5FD040FD85CB50A0
:100B6000DF4FF883C55FD04028A139A14AA15BA11E
:100B7000C151DF4F288339834A835B83CF5ED040E6
:100B80003C85C251DF4F3883CE5ED0404B85C35188
:100B9000DF4F4883CD5ED040888D998DAA8DBB8D67
:100BA000CA50DF4F88839983AA83BB83C65FD04036
:100BB0008C8C9D8CAE8CBF8C9A85C650DF4F9883F1
:100BC000CA5FD0402C893D894E895F89C550DF4F6F
:100BD000288339834A835B83CB5FD040AE0148577B
:100BE0005F4FC751DF4F59834883C95ED040C5511D
:100BF000DF4F19821882CB5ED040C050DF4F988102
:100C0000C050D140892F90E0C050DF4F9983888336
:100C1000C050D140C551DF4FE881F981CB5ED04053
:100C2000C050DF4F28813981C050D140E217F3070F
:100C30000CF06FC1C551DF4FA881B981CB5ED040A8
:100C40001196C551DF4FB983A883CB5ED040C75101
:100C5000DF4FE881F981C95ED04031978081C7516B
:100C6000DF4FE881F981C95ED0401081682F6F7035
:100C7000F12FF295FF70CD51DF4FF883C35ED04066
:100C80001F7082958F70823009F4D5C030F48823AC
:100C900081F1813009F492C02EC1833009F4F4C08F
:100CA000843009F028C1612F70E0CD51DF4F888179
:100CB000C35ED04050E1859F600D711D1124072E49
:100CC000000C880B990B0E946A3320E030E040E270
:100CD00051E40E944F2CC151DF4F688379838A838E
:100CE0009B83CF5ED040CB50DF4F0883C55FD040A1
:100CF00002C124E6629FB0011124072E000C880B6C
:100D0000990B0E946A3320E030E0A9010E94E32B96
:100D10006B017C01CD51DF4F4881C35ED0403AE08A
:100D2000439FB0011124072E000C880B990B0E94E1
:100D30006A339B01AC01C701B6010E94E32B6B0132
:100D40007C01612F70E080E090E00E946A339B019B
:100D5000AC01C701B6010E94E32B20E030E048EC73
:100D600053E40E94E22B20E030E040E251E40E9494
:100D70004F2C6B017C0120E030E040E752E40E9400
:100D8000F72C181684F020E030E040E252ECC70166
:100D9000B6010E946333CB51DF4F0883C55ED0405C
:100DA00087FD06C0A8C0CB51DF4F0883C55ED04089
:100DB000C150DF4F1882CF5FD0409DC054E6659F81
:100DC000B0011124072E000C880B990B0E946A3386
:100DD00020E030E0A9010E94E32B2B013C01CD5122
:100DE000DF4F9881C35ED0408AE0989FB001112404
:100DF000072E000C880B990B0E946A339B01AC01F3
:100E0000C301B2010E94E32B2B013C01612F70E072
:100E100080E090E00E946A339B01AC01C301B20103
:100E20000E94E32B0E94C82C762EA4E6602EA61703
:100E300008F4BECF60C0CD51DF4FB881C35ED04053
:100E40008B2F90E0FC0120E1629FE00DF11D112449
:100E5000BF01E4E0660F771FEA95E1F7610F711DAE
:100E6000072E000C880B990B0E946A33C550DF4F88
:100E7000688379838A839B83CB5FD040C650DF4FE2
:100E80000883CA5FD04037C070E080E090E00E94E5
:100E90006A3320E030E044EB51E40E94C933CA5089
:100EA000DF4F688379838A839B83C65FD040612F3D
:100EB00070E0CD51DF4F4881C35ED04030E1439FA9
:100EC000600D711D1124072E000C880B990B0E94D8
:100ED0006A3320E030E040E251E40E944F2C4B01A5
:100EE0005C01C351DF4F0883CD5ED040C251DF4F5C
:100EF0000883CE5ED040C751DF4FA881B981C95E5B
:100F0000D0401296C751DF4FB983A883C95ED04045
:100F100081CECB50DF4F3881C55FD0403D87C15176
:100F2000DF4F88819981AA81BB81CF5ED04088A3A1
:100F300099A3AAA3BBA3C251DF4F9881CE5ED04034
:100F40009C87C351DF4FA881CD5ED040AB87CA508C
:100F5000DF4F288139814A815B81C65FD040288F6D
:100F6000398F4A8F5B8F8C8E9D8EAE8EBF8EC65012
:100F7000DF4F3881CA5FD0403A87C550DF4F888144
:100F80009981AA81BB81CB5FD0408C8B9D8BAE8B2E
:100F9000BF8B69867B8AC150DF4F9881CF5FD0407D
:100FA0009F83CB51DF4FA881C55ED040A887CF86F5
:100FB000D88AE98AFA8A8CCDC352DF4F8881998119
:100FC000CD5DD040892B29F0CE0187529F4F0E94E2
:100FD000681AC352DF4F08811981CD5DD040CE0120
:100FE00087529F4F0E94F71C012B09F49CC0CA57DF
:100FF000DF4F4881C658D0404770440F4D5F809105
:101000004E03882329F1442319F160E470E080E065
:1010100090E0CE5FDE4F4883C250D1400E941A1448
:10102000CE5FDE4F4881C250D140BE016B577F4F2B
:10103000CF51DF4F88819981C15ED0400E94241634
:1010400080914C03882321F087E192E00E945C1A92
:1010500061E0CF51DF4F88819981C15ED0400E940D
:10106000EE15CE5FDE4F0FB6F894DEBF0FBECDBFDC
:10107000DF91CF911F910F91FF90EF90DF90CF9074
:10108000BF90AF909F908F907F906F905F904F90A8
:101090003F902F9008956EEF72E0CE018F529F4FD8
:1010A0000E941B11D1018C9182958F708930F1F4CF
:1010B000BE016F5F7F4FC1010E944D208C85882348
:1010C000A9F0BE016F5F7F4FCE018B539F4F0E94EF
:1010D000911FBE016B537F4FCE018F529F4F0E94D5
:1010E000871CCE018B539F4F0E94F71CCB52DF4FC2
:1010F00088819981C55DD040892B29F0CE018F521E
:101100009F4F0E94681ACB52DF4F08811981C55D3D
:10111000D040CE018F529F4F0E94F71C012B09F443
:10112000FBCA45E06CCFCF51DF4FE881F981C15E4A
:10113000D04087819085A185B28589359344A105EA
:10114000B10509F0FAC06EEF72E0CE018F529F4FE9
:101150000E941B11CB57DF4F0881C558D04010E0CB
:10116000C80164E0959587956A95E1F70A9709F0BB
:10117000C9C081E08F831A821B821C821D828887EE
:1011800089878A878B878C878D871E86C257DF4F1A
:10119000F880CE58D040FE8269E0CE018B579F4F39
:1011A0000E94781FF8121F828AE089838F8188232A
:1011B00009F4A8C0CA57DF4F8881C658D04044E020
:1011C000000F111F4A95E1F7982F92959F70092BF8
:1011D0000A83682F677070E0762F6627C957DF4F44
:1011E0009881C758D040692B83FF03C071956195E2
:1011F0007109072E000C880B990B0E946A332DECA5
:101200003CEC4CEC5DE30E94C9336F87788B898B93
:101210009A8BC857DF4F8881C858D0408F778B8B07
:10122000C757DF4F6881C958D04070E080E090E038
:101230000E946A332BE734E14EEA5EE30E94C93331
:101240006C8F7D8F8E8F9F8FC657DF4F6881CA58F6
:10125000D04070E080E090E00E946A332BE734E1F8
:101260004EEA5EE30E94C93368A379A38AA39BA3D5
:10127000C557DF4F6881CB58D0406F7070E0762F34
:101280006627C457DF4F8881CC58D040682B072E83
:10129000000C880B990B0E946A332AE939E949E16D
:1012A0005FE30E94C9336C8B7D8B8E8B9F8BC35702
:1012B000DF4F6881CD58D0406F7070E080E090E0E3
:1012C0000E946A3320E030E044EB51E40E94C933CD
:1012D000688F798F8A8F9B8F43E0BE016F5F7F4F4E
:1012E000CE018B539F4F0E941A1EBE016B537F4F3E
:1012F000CE018F529F4F0E94871CCE018B539F4F70
:101300000E94F71CCB52DF4F88819981C55DD04088
:10131000892B29F0CE018F529F4F0E94681ACB5221
:10132000DF4F08811981C55DD040CE018F529F4F9C
:101330000E94F71C012B09F0ECC1CF51DF4FE8816F
:10134000F981C15ED04087819085A185B2858A38B8
:10135000F2E29F07A105B10509F4DDC18B3625E254
:101360009207A105B10509F4D6C189359344A105B9
:10137000B10509F4D0C1CF51DF4FE881F981C15ED9
:10138000D04087819085A185B2858B369542A10595
:10139000B10509F09FC36EEF72E0CE018B539F4FF2
:1013A0000E941B11CB57DF4F8881C558D040853232
:1013B00009F092C1CA57DF4F8881C658D040982F94
:1013C0009F7B9A3219F0803409F086C1C757DF4FEE
:1013D0001881C958D040012F001F0027001FC9578E
:1013E000DF4F8881C758D04090E0382F2227C85758
:1013F000DF4F8881C858D040A901482BCD51DF4F1D
:1014000059834883C35ED040C257DF4F7880CE589F
:10141000D040011175C0C357DF4F6881CD58D0400F
:1014200070E080E090E00E946A3320E030E040E02D
:101430005FE30E94C93320E030E040E053E40E94C3
:10144000E32BCB51DF4F688379838A839B83C55E0F
:10145000D040C557DF4F6881CB58D04070E0762F21
:101460006627C457DF4F8881CC58D040682B072EA1
:10147000000C880B990B0E946A334B015C01612FB1
:101480006F7370E0762F6627C657DF4F8881CA5882
:10149000D040682B75956795072E000C880B990B2B
:1014A0000E946A336B017C01672D6F7370E0762FA9
:1014B0006627C157DF4F8881CF58D040682B072E51
:1014C000000C880B990B0E946A3320E030E048EC56
:1014D00052E40E944F2C2B013C0161E016FF60E0BA
:1014E000162F9E012F563F4FF10190E08191980FEA
:1014F000E217F307D9F781E0992399F080E011C052
:1015000080E0412C512C32017301620153014201F0
:10151000CB51DF4F488259826A827B82C55ED040C0
:1015200010E0C557DF4F9881CB58D0409A3A41F42C
:10153000C457DF4F9881CC58D0409A3A09F4CCC0B8
:10154000882309F4C9C06EEF72E0CE0101960E94B3
:101550001B1165E072E0CE0101960E94711CCC5116
:10156000DF4F6881C45ED040CE0101960E94461CC8
:1015700063E072E0CE0101960E94711CCD51DF4FF5
:101580006881C35ED040CE0101960E94461C63E094
:1015900072E0CE0101960E94711C20E030E040E232
:1015A00051E4CB51DF4F688179818A819B81C55E8F
:1015B000D0400E94C9330E94C12C262F672FCE0134
:1015C0000196CE5FDE4F2883C250D1400E94461C58
:1015D00063E072E0CE0101960E94711CCE5FDE4F87
:1015E0002881C250D140622FCE0101960E94461C34
:1015F00063E072E0CE0101960E94711CC501B40146
:101600000E94C12C672FCE0101960E94461C63E008
:1016100072E0CE0101960E94711CC501B4010E94C6
:10162000C82CCE0101960E94461C63E072E0CE01F8
:1016300001960E94711CC701B6010E94C12C672F40
:10164000CE0101960E94461C63E072E0CE01019635
:101650000E94711CC701B6010E94C82CCE010196E0
:101660000E94461C63E072E0CE0101960E94711C4C
:1016700020E030E048EC52E4C301B2010E94C933DB
:101680000E94C12CF62E672FCE0101960E94461CA7
:1016900063E072E0CE0101960E94711C6F2DCE01B5
:1016A00001960E94461C63E072E0CE0101960E9402
:1016B000711C602F660F610FCE0101960E94461CBF
:1016C000BE016F5F7F4FCE018B539F4F0E94871CDF
:1016D000CE0101960E94F71CC753DF4F8881998184
:1016E000C95CD040892B29F0CE018B539F4F0E94BB
:1016F000681AC753DF4F08811981C95CD040CE01F9
:101700008B539F4F0E94F71C012B09F4E3C14CE05F
:1017100076CC4AE074CC6EEF72E0CE018B539F4FD3
:101720000E941B11C657DF4F1881CA58D04065E090
:10173000CE018B579F4F0E94781F181709F4C8C11C
:1017400080914B03882321F081EA91E00E945C1A8A
:1017500010E0CB57DF4F0881C558D040802F8295CD
:101760008F708B3049F080914B03882321F080EB00
:1017700091E00E945C1A10E0D10111966C911197D2
:10178000862F82958F706F70A62E1296BC90B4E64D
:101790008B9FB0011124072E000C880B990B0E941F
:1017A0006A336B017C01EAE0AE9EB0011124072E82
:1017B000000C880B990B0E946A339B01AC01C70196
:1017C000B6010E94E32B6B017C016B2D62956F705B
:1017D00070E080E090E00E946A339B01AC01C70199
:1017E000B6010E94E32B20E030E040E05FE30E947E
:1017F000C9336B017C016B2D6F70D1011396BC90C6
:10180000BAE06B9FB0011124072E000C880B990BD6
:101810000E946A332B013C016B2D62956F7070E062
:1018200080E090E00E946A339B01AC01C301B201E9
:101830000E94E32B2B013C016B2D6F7070E080E068
:1018400090E00E946A332DEC3CEC4CEC5DE30E948E
:10185000C9339B01AC01C301B2010E94E32B20E01C
:1018600030E040E252E40E94E22B4B015C01F101C6
:101870002481622F62956F7070E080E090E0CE5F0F
:10188000DE4F2883C250D1400E946A332B013C01B5
:10189000CE5FDE4F2881C250D140622F6F7070E062
:1018A00080E090E00E946A332DEC3CEC4CEC5DE370
:1018B0000E94C9339B01AC01C301B2010E94E32B1A
:1018C0002B013C0120E030E040E252ECC501B401C4
:1018D0000E94633387FD0AC020E030E040E752E415
:1018E000C501B4010E94F72C18166CF480914B03CB
:1018F000882359F18FEB91E00E946019C501B40172
:101900000E94741A10E020E030E040E050E4C7018B
:10191000B6010E94633387FF0DC080914B0388237B
:10192000A1F086ED91E00E946019C701B6010E9406
:10193000741A0BC020E030E046E953E4C701B60159
:101940000E94F72C18164CF301C010E020E030E0A4
:1019500040E050E4C301B2010E94633387FD0AC036
:1019600020E030E040E551E4C301B2010E94F72CD1
:10197000181674F480914B03882309F48CC087EE09
:1019800091E00E946019C301B2010E94741A83C0E1
:10199000112309F480C06EEF72E0CE0101960E941F
:1019A0001B116AEF71E0CE0101960E94711C602F3D
:1019B0006F70CE0101960E94461C61E072E0CE017C
:1019C00001960E94711C20E030E040E251E4C70122
:1019D000B6010E94C93320E030E04AE754E40E9497
:1019E000E32B0E94C12C162F672FCE0101960E9477
:1019F000461C63E072E0CE0101960E94711C612FCB
:101A0000CE0101960E94461C63E072E0CE01019671
:101A10000E94711C20E030E040E251E4C501B401B5
:101A20000E94C93320E030E04AE754E40E94E32BEF
:101A30000E94C12C162F672FCE0101960E94461CD2
:101A400063E072E0CE0101960E94711C612FCE010D
:101A500001960E94461C63E072E0CE0101960E944E
:101A6000711C20E030E040E251E4C301B2010E9469
:101A7000C9330E94C12CCE0101960E94161CBE01E2
:101A80006F5F7F4FCE018B539F4F0E94871CCE010B
:101A900001960E94F71CC753DF4F88819981C95C6A
:101AA000D040892B29F0CE018B539F4F0E94681A9A
:101AB000C753DF4F08811981C95CD040CE018B53D9
:101AC0009F4F0E94F71C012B09F455CC46E097CAA2
:101AD00011E03FCECF51DF4FE881F981C15ED040A8
:101AE00087819085A185B2858935F3E49F07A1059B
:101AF000B10509F449C18B369542A105B10509F438
:101B000043C1CF51DF4FE881F981C15ED040878169
:101B10009085A185B28589359344A105B10509F069
:101B2000E8C16EEF72E0CE018F529F4F0E941B11F1
:101B3000CB57DF4F0881C558D040802F807C803C38
:101B400009F005C1C957DF4FA881C758D04030E11F
:101B5000A39FC0011124C857DF4FB880C858D04098
:101B6000B2949FE0B922B82AF10180E090E010E041
:101B700071E3619120E030E0A901480F591F443121
:101B8000510530F4412F4627110F47FD1727660FE7
:101B90002F5F3F4F2830310579F70896883191053E
:101BA00041F70F73CA57DF4F6881C658D040A62E41
:101BB000AA1CAA24AA1C66FB442740F9CD50DF4F7B
:101BC0004883C35FD040CC50DF4F1882C45FD04001
:101BD0006F7350E1659FB0011124A295AF706A2B1D
:101BE000072E000C880B990B0E946A332DEC3CECFD
:101BF0004CEC5DE30E94C93320E030E040E252E467
:101C00000E94E22B6B017C01B112A1C06EEF72E069
:101C1000CE0101960E941B1161E172E0CE01019696
:101C20000E94711C602FCE0101960E94461CCE01BD
:101C300001960E94021CA11003C061E070E002C086
:101C400061E870E0CE0101960E94161CCE0101965B
:101C50000E94021C20E030E040E251E4C701B601DE
:101C60000E94C93320E030E04AE754E40E94E32BAD
:101C70000E94C82C162F672FCE0101960E94461C89
:101C8000CE0101960E94021C612FCE0101960E9496
:101C9000461CCE0101960E94021C20E030E040E785
:101CA00052E4C701B6010E94F72C87FF0AC020E06A
:101CB00030E040E252ECC701B6010E9463331816CF
:101CC00044F06EEF72E0CE018B539F4F0E941B11C8
:101CD0002DC0CD50DF4F88819981C35FD040892BC3
:101CE00011F06AEE01C06AE6CE0101960E94461C20
:101CF00089819A81CB53DF4F99838883C55CD0401B
:101D00008B819C81C953DF4F99838883C75CD04006
:101D10008D819E81C753DF4F99838883C95CD040F2
:101D20001A8219821C821B821E821D82CE0101969C
:101D30000E94F71CBE016B537F4FCE018F529F4F05
:101D40000E94871CCE018B539F4F0E94F71CCB52E1
:101D5000DF4F88819981C55DD040892B29F0CE0164
:101D60008F529F4F0E94681ACB52DF4F0881198112
:101D7000C55DD040CE018F529F4F0E94F71C012BB2
:101D800009F4B7C044E03BC96EEF72E0CE018F5258
:101D90009F4F0E941B11CB57DF4F8881C558D04001
:101DA000813509F08AC08983C657DF4F8881CA58B8
:101DB000D0408B8725E830E02C0F3D1F2A5F3F4F36
:101DC000F10180E09191890FE217F307D9F701E063
:101DD000811100E00C87CA57DF4F1881C658D040E8
:101DE000412F4F70212F207330E054E03595279517
:101DF0005A95E1F7922F232B09F494E020E1929F6A
:101E0000C0011124842B8A83C957DF4F6881C758CA
:101E1000D04070E062537109072E000C880B990BBB
:101E20000E946A3320E030E040E251E40E94C9336E
:101E30006B017C01C857DF4F6881C858D04070E003
:101E400080E090E00E946A339B01AC01C701B601BB
:101E50000E94E32B20E030E040E251E40E944F2C4E
:101E60006D837E838F839887C757DF4F8881C958DA
:101E7000D0408A87812F90E026E0959587952A9516
:101E8000E1F721E0892B09F420E029870023A9F05C
:101E9000BE016F5F7F4FCE018B539F4F0E94911FFA
:101EA000BE016B537F4FCE018F529F4F0E94871C04
:101EB000CE018B539F4F0E94F71CCB52DF4F88817E
:101EC0009981C55DD040892B29F0CE018F529F4F5B
:101ED0000E94681ACB52DF4F08811981C55DD0403E
:101EE000CE018F529F4F0E94F71C012B09F0EECDBF
:101EF00008CE6EEF72E0CE018F529F4F0E941B11F1
:101F0000CB57DF4F8881C558D0408C3C09F042C088
:101F1000C957DF4FE880C758D04014E01E0D63E07A
:101F20006E0DCE018B579F4F0E94781F212F30E0FE
:101F3000E4E8F0E0EC0FFD1FE20FF31F908198132F
:101F400029C0CA57DF4F1881C658D04083E090E0BF
:101F50002150310982179307FCF5E1E0F0E0EC0F26
:101F6000FD1FE80FF91FA5E8B0E0AC0FBD1FA80FDB
:101F7000B91F4C9140830196EDCFBE016B537F4F4B
:101F8000CE018F529F4F0E94871CCE018B539F4FD3
:101F90000E94F71CCB52DF4F88819981C55DD040EC
:101FA000892B29F0CE018F529F4F0E94681ACB5285
:101FB000DF4F08811981C55DD040CE018F529F4F00
:101FC0000E94F71C012B09F43FC0C957DF4F48811D
:101FD000C758D0404C5F13C86EEF72E0CE018B53F0
:101FE0009F4F0E941B116AE272E0CE018B539F4FFC
:101FF0000E94711C612FCE018B539F4F0E94461C83
:1020000063E072E0CE018B539F4F0E94711C6E0102
:1020100024E0C20ED11C00E010E0F12C0E151F05CB
:102020000CF0ABCFD6016D916D01CE018B539F4F5C
:102030000E94461C63E072E0CE018B539F4F0E94CA
:10204000711C0F5F1F4FEACF80914F038230C1F4A4
:10205000F10161911F0170E080E090E040E10E9499
:10206000621983E092E00E946019C152DF4F28811B
:102070003981CF5DD0402216330651F70E94A31953
:1020800040E00C94FF070895CF92DF92EF92FF9209
:102090000F931F93CF93DF936C017A018B01C0E004
:1020A000D0E0CE15DF0589F0D8016D918D01D60104
:1020B000ED91FC910190F081E02DC6010995892BED
:1020C00011F47E0102C02196ECCFC701DF91CF91C0
:1020D0001F910F91FF90EF90DF90CF90089586EFC2
:1020E00093E00E94AA1121E0892B09F420E0822FBD
:1020F0000895EF92FF920F931F93CF93DF93EC011C
:1021000081E0888F9B8D8C8D981305C0E889F989B3
:10211000808185FD24C0F62E0B8D10E00F5F1F4FD0
:102120000F731127E02E8C8DE8120CC00FB607FC40
:10213000FACFE889F989808185FFF5CFCE010E9429
:102140006413F1CF8B8DFE01E80FF11DE35AFF4FB1
:10215000F0820B8FEA89FB898081806207C0EE895B
:10216000FF896083E889F98980818064808381E0C8
:1021700090E0DF91CF911F910F91FF90EF90089524
:10218000CF93DF93EC01888D8823C9F0EA89FB891E
:10219000808185FD05C0A889B9898C9186FD0FC015
:1021A0000FB607FCF5CF808185FFF2CFA889B989EA
:1021B0008C9185FFEDCFCE010E946413E7CFDF91B4
:1021C000CF910895EF92FF920F931F93CF93DF93D8
:1021D000CDB7DEB729970FB6F894DEBF0FBECDBFDF
:1021E0008C01862FF80111821082138212821582CF
:1021F000148250E09E012F5F3F4F7901B90190E0BA
:102200000E94C830F70101900020E9F73197AF0133
:102210004E195F09B701C8010E94D61C29960FB656
:10222000F894DEBF0FBECDBFDF91CF911F910F910C
:10223000FF90EF900895FC011182108213821282A8
:10224000158214826115710551F0FB010190002087
:10225000E9F73197AF01461B570B0C94D61C089534
:102260001F920F920FB60F9211242F933F934F930B
:102270005F936F937F938F939F93AF93BF93EF93EE
:10228000FF9386EF93E00E946413FF91EF91BF915B
:10229000AF919F918F917F916F915F914F913F91FE
:1022A0002F910F900FBE0F901F9018951F920F92B5
:1022B0000FB60F9211242F938F939F93EF93FF9359
:1022C000E0910604F09107048081E0910C04F09104
:1022D0000D0482FD12C0908180910F048F5F8F7377
:1022E00020911004821751F0E0910F04F0E0EA50C1
:1022F000FC4F958F80930F0401C08081FF91EF9177
:102300009F918F912F910F900FBE0F901F90189556
:10231000FC01918D828D981761F0828DDF01A80FED
:10232000B11D5D968C91928D9F5F9F73928F90E00F
:1023300008958FEF9FEF0895FC01918D828D98177E
:1023400031F0828DE80FF11D858D90E008958FEFBB
:102350009FEF0895FC01918D228D892F90E0805C84
:102360009F4F821B91098F739927089580E090E019
:10237000892B29F00E946F1081110C9400000895A0
:102380003FB7F8948091660390916703A09168032A
:10239000B091690326B5A89B05C02F3F19F001969F
:1023A000A11DB11D3FBFBA2FA92F982F8827820FDB
:1023B000911DA11DB11DBC01CD0142E0660F771F2B
:1023C000881F991F4A95D1F708950F931F93CF93B4
:1023D000DF93DC0113968C91139790E0FC01E05899
:1023E000FE4FE491F0E0EE0FFF1FEE59FE4FC59156
:1023F000D491FC01EC56FE4F849115962C911597C3
:1024000030E0F901EC56FE4F9491F901E058FE4F8F
:10241000E491F0E0EE0FFF1FEA58FE4F2591349152
:10242000F901408150E0E92FF0E0E095F0954E236E
:102430005F23F901408390E112962C91129730E0CE
:10244000F901EC56FE4F77FF11C04491F901E058B5
:10245000FE4FE491F0E0EE0FFF1FEA58FE4F25918A
:102460003491F9015081452B408317C04491F90103
:10247000E058FE4FE491F0E0EE0FFF1FEA58FE4FE8
:1024800025913491F901008110E0E42FF0E0E0950E
:10249000F0950E231F23F9010083660F771F288113
:1024A000282309F0616014962C91149730E0F9010B
:1024B000EC56FE4F4491F901E058FE4FE491F0E0F4
:1024C000EE0FFF1FEA58FE4F25913491F90150811C
:1024D000452B40830000000014962C91149730E0A7
:1024E000F901EC56FE4F4491F901E058FE4FE4919A
:1024F000F0E0EE0FFF1FEA58FE4F25913491F901ED
:10250000008110E0E42FF0E0E095F0950E231F230A
:10251000F9010083915009F08FCF15968C9190E0CE
:10252000FC01EC56FE4F2491FC01E058FE4FE49173
:10253000F0E0EE0FFF1FEA58FE4FA591B491EC9129
:10254000E22BEC93CB01DF91CF911F910F91089576
:102550000F931F93CF938C01C62F60E070E0C801EA
:102560000E94E51197FFF9CF6C2F70E0786BC801DE
:10257000CF911F910F910C94E511CF93DF93DC0164
:10258000862F13962C91139730E0F901E058FE4FF7
:10259000E491F0E0EE0FFF1FEE59FE4FC591D4918C
:1025A000F901EC56FE4F949148E014962C91149743
:1025B00030E0F901EC56FE4F5491F901E058FE4F1E
:1025C000E491F0E0EE0FFF1FEA58FE4F25913491A1
:1025D000F901608170E0E52FF0E0E095F0956E2361
:1025E0007F23F901608312962C91129730E0F90154
:1025F000EC56FE4F87FF11C05491F901E058FE4F91
:10260000E491F0E0EE0FFF1FEA58FE4F2591349160
:10261000F9016081562B508317C05491F901E0589D
:10262000FE4FE491F0E0EE0FFF1FEA58FE4F2591B8
:102630003491F901608170E0E52FF0E0E095F095CC
:102640006E237F23F9016083880F14962C911497D1
:1026500030E0F901EC56FE4F5491F901E058FE4F7D
:10266000E491F0E0EE0FFF1FEA58FE4F2591349100
:10267000F9016081562B50832881292309F081605C
:10268000415009F092CF14962C9130E0F901EC56AC
:10269000FE4F9491F901E058FE4FE491F0E0EE0F07
:1026A000FF1FEA58FE4FA591B491EC912E2F30E018
:1026B000E92FF0E0E095F095E223F323EC93DF912E
:1026C000CF9108950E947D30FC01848DDF01A80F19
:1026D000B11DA35ABF4F2C91848D90E001968F734A
:1026E0009927848FA689B7892C93A089B1898C9169
:1026F00080648C93938D848D981306C00288F3892F
:10270000E02D80818F7D80830895833081F028F4CF
:10271000813099F08230A1F008958730A9F0883097
:10272000B9F08430D1F4809180008F7D03C0809116
:1027300080008F7780938000089584B58F7702C0E2
:1027400084B58F7D84BD08958091B0008F7703C0DC
:102750008091B0008F7D8093B00008951F93CF9338
:10276000DF93282F30E0F901E855FE4F8491F901FD
:10277000EC56FE4FD491F901E058FE4FC491CC23A2
:10278000C9F0162F81110E948513EC2FF0E0EE0F97
:10279000FF1FEA58FE4FA591B4918FB7F89411111D
:1027A00005C09C91ED2FE095E92302C0EC91ED2B43
:1027B000EC938FBFDF91CF911F910895CF93DF935B
:1027C00090E0FC01EC56FE4F2491FC01E058FE4FD6
:1027D0008491882361F190E0880F991FFC01E459EE
:1027E000FE4FC591D491FC01EA58FE4FA591B491DA
:1027F000611109C09FB7F89488812095822388834E
:10280000EC912E230BC0623061F49FB7F8943881AD
:10281000822F809583238883EC912E2B2C939FBF4E
:1028200006C08FB7F894E8812E2B28838FBFDF91E5
:10283000CF9108958F929F92AF92BF92CF92DF92E5
:10284000EF92FF926B017C010E94C0114B015C0171
:10285000C114D104E104F104F1F00E94C011DC01C3
:10286000CB0188199909AA09BB09883E9340A105A3
:10287000B10570F321E0C21AD108E108F10888EE31
:10288000880E83E0981EA11CB11CC114D104E10480
:10289000F10419F7DDCFFF90EF90DF90CF90BF905C
:1028A000AF909F908F9008952FB7F8946091620336
:1028B0007091630380916403909165032FBF089525
:1028C0001F920F920FB60F9211242F933F938F9365
:1028D0009F93AF93BF938091620390916303A09104
:1028E0006403B09165033091610323E0230F2D371A
:1028F00020F40196A11DB11D05C026E8230F029604
:10290000A11DB11D20936103809362039093630323
:10291000A0936403B093650380916603909167036D
:10292000A0916803B09169030196A11DB11D809328
:10293000660390936703A0936803B0936903BF9104
:10294000AF919F918F913F912F910F900FBE0F905C
:102950001F901895CF93DF93D82FC62F8AEB92E064
:102960000E9460196D2F70E080E090E04AE00E94C4
:10297000621984EC92E00E9460196C2F70E080E094
:1029800090E04AE0DF91CF910C9462190F931F936E
:10299000CF93DF938C01EB010E94E511F801868152
:1029A000882371F087EC92E00E946019BE0180E0FC
:1029B00090E04AE0DF91CF911F910F910C94621942
:1029C000DF91CF911F910F910895CF93DF93EC0189
:1029D000FB01808191818130910529F0029731F4CA
:1029E00065ED72E005C06EEC72E002C06DED72E064
:1029F000CE010E941B11CE01DF91CF910895EF927D
:102A0000FF921F93CF93DF931F92CDB7DEB77C0168
:102A1000162F60E0FC01858149830E94AE13612F6F
:102A20006068C7010E94BD124981642FC7010E94DE
:102A3000BD1261E0F70185810F90DF91CF911F9169
:102A4000FF90EF900C94AE130F931F93CF938C01D4
:102A5000FC0180819181029731F440E168E2C80174
:102A60000E94FF1408C0C0E460E070EBC8010E943F
:102A7000E511C150C9F7CF911F910F9108951F9390
:102A8000CF93DF93EC01162F60E08D810E94AE138F
:102A9000612F6F77CE010E94BD1260E0CE010E94CF
:102AA000BD12182F61E08D810E94AE13812FDF913E
:102AB000CF911F9108951F93CF93DF93EC01162FB1
:102AC000198218824AE068E30E94FF1468E3CE018D
:102AD0000E943F158A3079F440E468E3CE010E94F9
:102AE000FF1468E3CE010E943F15803421F482E098
:102AF00090E09983888388819981892B99F51123A6
:102B000029F081E090E0998388832CC06CE072E822
:102B1000CE010E94E51188EE93E000000197E9F7ED
:102B20006FE470ECCE010E94E51188EE93E00000A6
:102B30000197E9F760E070E0CE010E94E51192FF95
:102B400011C060E470ECCE010E94E51188EE93E0C4
:102B500000000197E9F760E070E0CE010E94E51106
:102B600092FFCFCFDF91CF911F910895CF93DF9345
:102B7000EC0188819981662369F0029741F461E054
:102B8000CE010E943F15837E482F4C600CC068E345
:102B900072E811C0029769F461E0CE010E943F150E
:102BA000837E482F446061E0CE01DF91CF910C9489
:102BB000FF1468E072E8CE01DF91CF910C94E5112B
:102BC000FC01208131812230310519F460E00C9440
:102BD0003F1560E070EB0E94E5110895CF93DF93FD
:102BE000EC01888199816623B9F0029741F461E094
:102BF000CE010E943F15837E482F406116C068ECCD
:102C000072E8CE010E94E51161E87AECCE010E94E3
:102C1000E51163E87AEC10C0029761F461E0CE013F
:102C20000E943F15837E482F446061E0CE010E94E0
:102C3000FF1405C068E072E8CE010E94E511CE01E4
:102C4000DF91CF910C9424158F929F92AF92BF92F7
:102C5000CF92DF92FF920F931F93CF93DF93EC01FC
:102C60008B01F42E88819981029709F048C06DE3A9
:102C7000CE010E943F15482F44606DE3CE010E94B3
:102C8000FF1460E0CE010E94EE15CE010E942415D3
:102C9000F89460E08D810E94AE1360E8CE010E943E
:102CA000BD12B02E68018C2D8B198F1538F4F601EA
:102CB00061916F01CE010E94BD12F5CF61E08D815F
:102CC0000E94AE13789461E0CE010E94B6150E9476
:102CD00054144B015C0168E2CE010E943F1583FD54
:102CE0003CC00E945414DC01CB0188199909AA093F
:102CF000BB09843F9140A105B10568F32EC061E096
:102D0000CE010E94B6156AEACE010E94A8126AEAB4
:102D1000CE010E94A8126AEACE010E94A8126DE2BA
:102D2000CE010E94A81264EDCE010E94A812680193
:102D3000AF2CB12CC601801B910B8A159B053CF46E
:102D4000F60161916F01CE010E94A812F3CF61E0FC
:102D500070E080E090E00E941A1460E0CE010E94D2
:102D6000B6158E81882331F182EE92E00E946019BF
:102D7000E801CF2CD12CCE01801B910B8C159D0529
:102D800064F4699170E080E090E04AE00E9462198A
:102D900083E092E00E946019EECFDF91CF911F9106
:102DA0000F91FF90DF90CF90BF90AF909F908F904A
:102DB0000C94A319DF91CF911F910F91FF90DF9099
:102DC000CF90BF90AF909F908F900895CF92DF9259
:102DD000EF92FF92CF93DF93EC014B875C876D8777
:102DE0007E87888199810297B1F59A01AB01A8EE9F
:102DF000B3E00E94873422E0660F771F881F991F77
:102E00002A95D1F729E03DE340E050E00E94932B62
:102E100069017A0136E0CC0CDD1CEE1CFF1C3A95F2
:102E2000D1F7A7016627772767E0CE010E94FF143C
:102E300077276F2D5E2D4D2D68E0CE010E94FF1487
:102E40004C2D69E0CE01DF91CF91FF90EF90DF90A4
:102E5000CF900C94FF14CB01BA0160567F418D4096
:102E6000910925E030E040E050E00E94932BB90149
:102E70007056CE01DF91CF91FF90EF90DF90CF9011
:102E80000C94E511CF92DF92EF92FF92CF93DF93F4
:102E9000EC019A01AB012F83388749875A878881D3
:102EA0009981029701F5DA01C901B695A795979521
:102EB0008795BC01CD01785B87419E4F0E94932B83
:102EC00069017A01432F552763E0CE010E94FF1468
:102ED0004C2D64E0CE01DF91CF91FF90EF90DF9019
:102EE000CF900C94FF14CA01B9010E9468339B0172
:102EF000AC0160E87FE588EA98E40E944F2C6B0102
:102F00007C0120E030E0A9010E94F72C20E030E0B5
:102F100040E05FE387FD05C0C701B6010E94E32BD7
:102F200004C0C701B6010E94E22B0E94C12C61506F
:102F300070E0766CCE01DF91CF91FF90EF90DF9043
:102F4000CF900C94E5110F931F93CF93DF9300D094
:102F500000D000D0CDB7DEB78C01FC01868188237C
:102F600089F081EF92E00E946019B801CE010196CC
:102F70000E94E514CE0101960E94681ACE010196C6
:102F80000E94F71C61E0F80185810E94AE1360E0A9
:102F9000C8010E94EE15F80180819181029709F025
:102FA00056C044E061E0C8010E94FF1440E062E0C6
:102FB000C8010E94FF1445E065E0C8010E94FF14AB
:102FC00043EC66E0C8010E94FF144FE961E1C801CB
:102FD0000E94FF144FE063E1C8010E94FF1442E425
:102FE00069E1C8010E94FF1440E168E2C8010E9443
:102FF000FF144CED69E2C8010E94FF1448E86EE23C
:10300000C8010E94FF144DE26FE2C8010E94FF1444
:1030100044ED60E3C8010E94FF1448E067E3C80183
:103020000E94FF1440E468E3C8010E94FF144FE8C7
:103030006CE3C8010E94FF1442E16DE3C8010E94E5
:10304000FF1440E36FE6C8010E94FF143CC068E033
:1030500072E8C8010E94E51168EE70E8C8010E949C
:10306000E5116AE672ECC8010E94E51162E17AECB2
:10307000C8010E94E51164ED7EECC8010E94E511D3
:1030800061E874ECC8010E94E51160EA74E9C801C6
:103090000E94E51167E77CECC8010E94E51160E53C
:1030A00078E9C8010E94E51160E070EEC8010E9455
:1030B000E51160E078ECC8010E94E51160E470EC75
:1030C000C8010E94E511F801438554856585768520
:1030D000C8010E94E616F801478150856185728516
:1030E000C8010E944217C8010E94241526960FB6F7
:1030F000F894DEBF0FBECDBFDF91CF911F910F912E
:1031000008952091D50390917705213208F04AC0A7
:103110008091B2038111FCCF32E03093B20331E0F1
:103120003093B1033FEF3093B0031092AF0320937D
:10313000AE03A5EBB3E04EE853E0FA013E2F341B9B
:10314000321718F43D913193F9CF10928D032091ED
:103150008D03990F922B90938D0390918C03913056
:1031600061F410928C0390918D039093BB00909129
:10317000BC0093FDF8CF95EC01C095EE9093BC0098
:103180009091B2039230E1F39091B0039F3F79F0B8
:103190008091B003803241F08091B003803331F0F0
:1031A00084E005C081E003C082E001C083E01092AA
:1031B000B4031092D5031092B3030895009769F0F9
:1031C000FC0101900020E9F73197AF01481B590B32
:1031D000BC0186EF93E00C94441080E090E00895E9
:1031E0009091B2039111FCCF813208F080E291E01E
:1031F0009093B2039093B1032FEF2093B0031092FA
:10320000AF03280F2093AE0390938D0390918D030D
:103210009E6E90938D0390918C03913061F4109287
:103220008C0390918D039093BB009091BC0093FD13
:10323000F8CF95EC01C095EE9093BC009091B2034D
:103240009130E1F39091AF03981710F48091AF03A0
:10325000AEE8B3E02CE633E0F9019E2F921B9817FD
:1032600018F49D919193F9CF10926B0380936A03A8
:1032700008950F931F93CF93DF93EC018881998179
:10328000009729F02A813B812617370788F48B01A4
:103290006F5F7F4F0E94B32F009761F099838883FF
:1032A0001B830A832C813D81232B11F4FC011082A6
:1032B00081E001C080E0DF91CF911F910F910895CF
:1032C0000C94DE188F929F92AF92BF920F931F9330
:1032D000CF93DF93CDB7DEB7A1970FB6F894DEBFDB
:1032E0000FBECDBF19A2423008F44AE08E010F5D37
:1032F0001F4F842E912CA12CB12CA50194010E946A
:10330000932BE62FB901CA0101501109EA3014F4D8
:10331000E05D01C0E95CD801EC93232B242B252B25
:1033200061F7C8010E94DE18A1960FB6F894DEBFBF
:103330000FBECDBFDF91CF911F910F91BF90AF9086
:103340009F908F9008958CEF92E00C94DE188F92EE
:103350009F92AF92BF92CF92DF92EF92FF920F9324
:103360001F93CF93DF93CDB7DEB7C450D1400FB6D4
:10337000F894DEBF0FBECDBFD82E60E082E295E0AC
:103380000E94EE153091D6032FEF2D0DDE0114961D
:10339000BD0180E090E0E22EF12C8E159F0554F4E3
:1033A000AC014A525C4FFA014181FB014193BF01DC
:1033B0000196F3CF80900A0190900B01A0900C0130
:1033C000B0900D01FE01EB57FF4FCE018B5F9E4F7A
:1033D0008F011192E817F907E1F78CECF80180836F
:1033E00031832283339680E090E08E159F0524F48C
:1033F0002D9121930196F9CF62E06D0DC8010E94D5
:10340000781FE8E8F0E0EC0FFD1FEE0DFF1D808354
:1034100060E082E295E00E94EE15C0902905D09010
:103420002A05E0902B05F0902C05B501A40182E25D
:1034300095E00E944217F801828144E0480FB801EC
:1034400082E295E00E942416B701A60182E295E08F
:103450000E94421761E082E295E00E94EE1561E071
:1034600082E295E00E94EE15CC5FDE4F0FB6F89435
:10347000DEBF0FBECDBFDF91CF911F910F91FF90A7
:10348000EF90DF90CF90BF90AF909F908F90089576
:10349000E091F603F091F7030190F081E02D682FA1
:1034A00086EF93E00994FC0144815581608171812C
:1034B00086EF93E00C944410CF93DF930E94DE18C4
:1034C000EC010E94A3198C0F9D1FDF91CF910895ED
:1034D000CF93DF930E94531AEC010E94A3198C0F23
:1034E0009D1FDF91CF9108954F925F926F927F92CF
:1034F0008F929F92AF92BF92CF92DF92EF92FF9204
:103500006B017C019B01AC010E944C2D882319F0BA
:103510008FEF92E01AC046015701E894B7F82FEFF9
:103520003FEF4FE75FE7C501B4010E944C2D8111C9
:1035300010C02FEF3FEF4FE75FE7C501B4010E94D6
:103540006333181634F483E093E00E94DE187C01A4
:1035500080C02FEF3FEF4FE75FE4C701B6010E9445
:10356000F72C18161CF487E093E0EFCF2FEF3FEF16
:103570004FE75FECC701B6010E94633387FDF3CFCD
:1035800020E030E0A901C701B6010E94633387FF44
:1035900009C08DE20E94481A5C01F7FAF094F7F82E
:1035A000F09402C0A12CB12C2AE037ED43EA5BE392
:1035B000C701B6010E94E32B2B013C010E94C82CDD
:1035C0006B017C010E9468339B01AC01C301B20115
:1035D0000E94E22B2B013C014AE0C701B6010E9488
:1035E00062197C01EA0CFB1C8BE093E00E94DE1860
:1035F000E80EF91E20E030E040E251E4C301B201E0
:103600000E94C9332B013C010E94C82C4B01A12C04
:10361000B12C4AE0C501B4010E946219E80EF91EFE
:10362000C501B4010E9468339B01AC01C301B20122
:103630000E94E22B20E030E040E251E40E94C933D6
:103640000E94C82C80E090E04AE00E946219E80ED7
:10365000F91E0E94A3198E0D9F1DFF90EF90DF9021
:10366000CF90BF90AF909F908F907F906F905F9022
:103670004F9008958091CC04882319F081E00E9436
:10368000EA2062E370E080E090E00E941A148091EA
:10369000CC04882319F080E00E94EA2062E370E005
:1036A00080E090E00C941A14CF93DF93C1E0C093B4
:1036B000B30397E7909377051092B4031092D50364
:1036C000682F83E994E00E9452230E948118C093DE
:1036D000B3031092B4031092D50382E090E00E94ED
:1036E000F01883E994E00E944E1DD82F80E0C82F87
:1036F00083E994E00E944E1DC82BD92B0E948118AB
:10370000CE01DF91CF910895CF93C1E0C093B30371
:1037100097E7909377051092B4031092D503682F22
:1037200083E994E00E9452230E948118C093B3035E
:103730001092B4031092D50381E090E00E94F0183B
:1037400083E994E00E944E1DC82F0E9481188C2F9F
:10375000CF910895CF93C82F81E08093B30387E77B
:10376000809377051092B4031092D50364EF83E938
:1037700094E00E9452236C2F83E994E00E9452232C
:10378000CF910C9481188EE20E94AA1B65E070E034
:1037900080E090E00E941A1486EF0E94541B9093E0
:1037A000BB048093BA040895EF92FF920F931F9386
:1037B000CF93DF93FC01248135816115710511F4EC
:1037C00080E019C041155105A9F07B01EC018A0187
:1037D000020F131FB8010E943919882389F3288129
:1037E00039818C819D81B701820F931F0E948B309C
:1037F0001D830C8381E0DF91CF911F910F91FF908A
:10380000EF900895CF93DF9300D0CDB7DEB720E2DD
:1038100029831A8241E050E0BE016F5F7F4F0E9412
:10382000D41B0F900F90DF91CF910895EF92FF92EC
:103830000F931F93CF93DF93CDB7DEB728970FB6C3
:10384000F894DEBF0FBECDBF7C01CB014AE08E01F4
:103850000F5F1F4FB8010E94BD30F801019000209A
:10386000E9F73197AF01401B510BB801C7010E9426
:10387000D41B28960FB6F894DEBF0FBECDBFDF91E4
:10388000CF911F910F91FF90EF900895EF92FF92CB
:103890000F931F93CF93DF9300D000D0CDB7DEB747
:1038A0007C01862F4AE08E010F5F1F4FB80190E028
:1038B0000E94BD30F80101900020E9F73197AF0177
:1038C000401B510BB801C7010E94D41B0F900F90F1
:1038D0000F900F90DF91CF911F910F91FF90EF907C
:1038E00008956115710551F0FB0101900020E9F781
:1038F0003197AF01461B570B0C94D41B80E0089501
:10390000FB0144815581608171810C94D41B0F931C
:103910001F93CF93DF938C01EB018617970771F10B
:10392000FC01808191810097B1F0688179816115F6
:10393000710579F0428153812C813D8142175307F3
:1039400040F00E948B308C819D81F80195838483A7
:1039500013C00E941B2F88819981F8019183808375
:103960008A819B81938382838C819D8195838483CB
:10397000198218821B821A821D821C82C801DF9163
:10398000CF911F910F910895CF93DF93EC01888120
:103990009981009711F00E941B2F198218821D82B5
:1039A0001C821B821A82DF91CF910895EF92FF92C1
:1039B0000F931F93CF93DF93EC017B018A01BA0130
:1039C0000E943919811104C0CE010E94C41C07C095
:1039D0001D830C83B701888199810E948B30CE01B1
:1039E000DF91CF911F910F91FF90EF900895FC010F
:1039F000808191810C941B2FEF92FF920F931F9364
:103A0000CF93DF93CDB7DEB762970FB6F894DEBFE2
:103A10000FBECDBF8C01CB01F80111821082138241
:103A200012821582148250E09E012F5F3F4F790170
:103A3000B9010E94B230F70101900020E9F73197F7
:103A4000AF014E195F09B701C8010E94D61C6296EA
:103A50000FB6F894DEBF0FBECDBFDF91CF911F919F
:103A60000F91FF90EF90089585ED8093BC008091B9
:103A7000BC0084FDFCCF1092B20308950895E0913C
:103A80006B0380916A03E81730F4F0E0E459FC4FCF
:103A9000808190E008958FEF9FEF089590916B03E0
:103AA00080916A03981750F4E92FF0E0E459FC4F35
:103AB000208130E09F5F90936B0302C02FEF3FEFB8
:103AC000C901089580916A0390E020916B03821BE5
:103AD00091090895EF92FF920F931F93CF93DF9375
:103AE0001F92CDB7DEB77C01162F072F6EEF72E065
:103AF00049830E941B114981411102C01FEF0FEF42
:103B0000C7010E94021C602FC7010E94461CC7010A
:103B10000E94021C612FC7010E94461CC7010F9022
:103B2000DF91CF911F910F91FF90EF900895EF9249
:103B3000FF920F931F93CF93DF93EC0188819981BC
:103B40000297C9F468E2CE010E943F1582FF6BC064
:103B50008E010B5E1F4F7E0185E5E80EF11CCE0144
:103B60000E94E015F80181938F01EE15FF05B9F76A
:103B700081E08C8B58C060E08D810E94AE13000004
:103B800000002B8130E0F901E855FE4F8491F901E6
:103B9000EC56FE4F0491F901E058FE4F14911123A9
:103BA00009F43FC081110E948513E12FF0E0EE0F70
:103BB000FF1FEE59FE4FA591B491EC91E02389F1DE
:103BC00011E061E08D810E94AE13112389F01F8501
:103BD00081E0810F8F87CE010E94E015FE01E10F89
:103BE000F11D858B0E945414688B798B8A8B9B8B7B
:103BF0008F85811105C08F85803208F0B9CF13C041
:103C00000E945414088919892A893B890E5C1F4F28
:103C10002F4F3F4F061717072807390708F4A8CF7B
:103C2000EACF10E0CECFDF91CF911F910F91FF909F
:103C3000EF9008958F929F92AF92BF92CF92DF92B2
:103C4000EF92FF920F931F93CF93DF93CDB7DEB721
:103C500027970FB6F894DEBF0FBECDBF7C018B0156
:103C6000C42E6EEF72E00E941B11F801D48081E037
:103C7000D82687818823C9F086849784A088B18854
:103C800020E030E040E252ECC501B4010E94633311
:103C900087FD0AC02AE939E94FE652E4C501B401BB
:103CA0000E94F72C18160CF4D12CF801808588237B
:103CB00029F082898150843608F006C1DD2009F49C
:103CC00003C167EA72E0C7010E94711CF8016181BB
:103CD000C7010E94461C63E072E0C7010E94711C8C
:103CE0006C2DC7010E94461C20E030E040E251E408
:103CF000F80166857785808991890E94C93320E023
:103D000030E04AE754E40E94E32B0E94C82CF801FB
:103D10004781CE0101960E946A1DBE016F5F7F4FF1
:103D2000C7010E94801CCE0101960E94F71CF80179
:103D3000B084D2886EEF72E0CE0101960E941B1112
:103D4000CE0101960E94021CBB2019F06D2D70E07F
:103D500002C06FEF70E0CE0101960E94161CBE01FA
:103D60006F5F7F4FC7010E94801CCE0101960E94A9
:103D7000F71CF80163897489858996890E94C82C8B
:103D8000F8014185CE0101960E946A1DBE016F5F58
:103D90007F4FC7010E94801CCE0101960E94F71C34
:103DA00020E030E040E251E4F8016789708D818DB8
:103DB000928D0E94C9330E94C82CF8014385CE0120
:103DC00001960E946A1DBE016F5F7F4FC7010E946E
:103DD000801CCE0101960E94F71C20E030E040E2FA
:103DE00051E4F801638D748D858D968D0E94C933E1
:103DF0000E94C82CF8014285CE0101960E946A1DDE
:103E0000BE016F5F7F4FC7010E94801CCE010196EB
:103E10000E94F71C20E030E040E251E4F801678D99
:103E200070A181A192A10E94C9330E94C82CF801FF
:103E30004485CE0101960E946A1DBE016F5F7F4FCF
:103E4000C7010E94801CCE0101960E94F71CF80158
:103E50002281848181112E5FF801838181112C5F81
:103E60006EEF72E0CE0101962F830E941B11CE01EE
:103E700001960E94021C2F81622F70E0CE010196F4
:103E80000E94161CBE016F5F7F4FC7010E94801CFD
:103E9000CE0101960E94F71CF80185858823A1F0C8
:103EA00063E072E0C7010E94711CF80164A1C701C0
:103EB0000E94461C63E072E0C7010E94711CF80179
:103EC00063A1C7010E94461CC70127960FB6F8944C
:103ED000DEBF0FBECDBFDF91CF911F910F91FF903D
:103EE000EF90DF90CF90BF90AF909F908F9008950C
:103EF000AC01FC0180E070E0A1E39F01241B350BC5
:103F0000261737076CF4919128E030E0B92FB827D5
:103F1000880FB7FD8A27990F21503109B9F7EDCFE6
:103F200008958F929F92AF92BF92EF92FF920F935C
:103F30001F93CF93DF9300D000D000D0CDB7DEB772
:103F40007C018B016EEF72E0CE0101960E941B1185
:103F500061E172E0CE0101960E94711CF80161815D
:103F6000CE0101960E94461CCE0101960E94021CC1
:103F7000F80181858F77843610F08A3651F4F80184
:103F80008281811103C061E070E008C061E870E0E7
:103F900005C08D3709F03FC062E870E0CE010196A0
:103FA0000E94161CCE0101960E94021C20E030E007
:103FB00040E251E4F80164817581868197810E9415
:103FC000C93320E030E04AE754E40E94E32B0E942A
:103FD000C82CB62E672FCE0101960E94461CCE013A
:103FE00001960E94021C6B2DCE0101960E94461C78
:103FF000CE0101960E94021CF80184809580A68063
:10400000B78020E030E040E752E4C501B4010E94EF
:10401000F72C87FD06C06EEF72E0C7010E941B11EE
:1040200026C020E030E040E252ECC501B4010E941D
:104030006333181684F7F801618580858111606803
:10404000CE0101960E94461C89819A81F7019183D5
:1040500080838B819C81938382838D819E819583D4
:1040600084831A8219821C821B821E821D82CE01C9
:1040700001960E94F71CC70126960FB6F894DEBF82
:104080000FBECDBFDF91CF911F910F91FF90EF90A9
:10409000BF90AF909F908F9008958F929F92AF9214
:1040A000BF92FF920F931F93CF93DF938C01EB018D
:1040B00081E08B87F801F480FA8664E0C8010E94F1
:1040C000781FF8121B861982F80180818F70F4E046
:1040D0008F9FC0011124898330914A03F801218107
:1040E000332311F0207C04C0229526952695237059
:1040F000822B8983F801808182958F708883893033
:1041000009F01B86F801818185FB882780F98A8365
:104110008181829581708B83F28061816F7070E004
:1041200080E090E00E946A3320E030E048EC52E406
:104130000E94C93320E030E0A9010E94E32B4B012B
:104140005C018F2D82958F70682F70E080E090E089
:104150000E946A3320E030E040E251E40E94C9331B
:104160009B01AC01C501B4010E94E32B4B015C0132
:104170008F2D8F70682F70E080E090E00E946A338E
:104180009B01AC01C501B4010E94E32B20E030E0AB
:1041900040E251E40E944F2C20E030E040E252E443
:1041A0000E94E22B6C837D838E839F83F801938131
:1041B000892F881F8827881F888783818F77898721
:1041C000DF91CF911F910F91FF90BF90AF909F9083
:1041D0008F900895CF93C82F61E089E00E94DE138D
:1041E00091E06C2F692789E0CF910C94AE131F9258
:1041F0000F920FB60F9211242F933F934F935F931B
:104200006F937F938F939F93AF93BF93EF93FF939E
:104210008091B900887F803609F49CC068F58832A7
:1042200009F45BC090F4803109F454C038F4882359
:1042300009F4F6C0883009F44DC0F6C0883109F49D
:104240004CC0803209F45DC0EFC0803409F468C00E
:1042500048F4803309F455C0883309F0E5C08093F1
:10426000B003D8C0803509F44FC0883509F45DC06B
:10427000883409F0D9C0D6C0883909F4C7C0A8F479
:10428000883709F467C038F4883609F463C080378A
:1042900009F460C0C9C0883809F4B8C0803909F48D
:1042A0005FC0803809F0C0C05BC0803B09F486C0A5
:1042B00038F4803A09F466C0883A09F47FC0B4C083
:1042C000803C09F4A7C0883C09F4A4C0883B09F4E9
:1042D0008AC0AAC080918D0310C09091AF038091D5
:1042E000AE03981770F5E091AF0381E08E0F8093D5
:1042F000AF03F0E0E257FC4F80818093BB0085EC78
:1043000086C08093B0038EC0E091AF0381E08E0F32
:104310008093AF038091BB00F0E0E257FC4F8083B5
:104320009091AF038091AE036EC0E091AF0381E046
:104330008E0F8093AF038091BB00F0E0E257FC4FFB
:1043400080838091B10381116DC081E080938C03E3
:1043500084EA61C083E08093B2031092BE05CFCFA0
:104360008091BE05803208F051C0E091BE0581E029
:104370008E0F8093BE058091BB00F0E0E256FA4FAD
:104380008083BDCF85EC8093BC001092B2038091F6
:10439000BE05803230F4E091BE05F0E0E256FA4FFF
:1043A00010826091BE0570E0E0919C05F0919D0542
:1043B0008EE995E009951092BE0536C084E08093A1
:1043C000B20310929B0510929A05E0919805F09126
:1043D0009905099580919A05811105C081E0809326
:1043E0009A0510927805E0919B0581E08E0F8093ED
:1043F0009B05F0E0E858FA4F80818093BB009091D4
:104400009B0580919A05981708F479CF85E88093E9
:10441000BC000AC085EC8093BC001092B20304C0BB
:104420001092B0030E94341DFF91EF91BF91AF91A4
:104430009F918F917F916F915F914F913F912F91BC
:104440000F900FBE0F901F90189540919A05262F40
:1044500030E0240F311D21323105DCF42091B2030C
:104460002430C9F4FC0180E090E0861758F43091C4
:104470009A052191DC01A858BA4FA30FB11D2C93C6
:104480000196F3CF80919A05680F60939A0580E0BA
:10449000089581E0089582E00895CF93DF9300D0DE
:1044A00000D000D0CDB7DEB78DE093E00E94601958
:1044B00080E193E00E9460198EE20E94481A85E232
:1044C00093E00E9460198DE393E00E94601962E21C
:1044D00075E0CE0101960E94E514CE0101960E947E
:1044E000531ACE0101960E94F71C8BE293E00E94C2
:1044F000601960912D0570912E0580912F05909186
:1045000030054AE00E946219809152039091530352
:10451000892BB9F08FE293E00E94601960915203F9
:104520007091530380E090E04AE00E94621983E3B7
:1045300093E00E9460196091090170E080E090E0D2
:104540000CC085E393E00E94601960912905709189
:104550002A0580912B0590912C054AE00E94621952
:1045600089E393E00E9460198091CD049091CE047C
:10457000892B09F451C08BE393E00E9460196DEC24
:1045800074E0CE0101960E94E514CE0101960E94CE
:10459000531ACE0101960E94F71C8BE293E00E9411
:1045A00060196091D8047091D9048091DA049091D7
:1045B000DB044AE00E9462198091500390915103FC
:1045C000892BB9F08FE293E00E946019609150034B
:1045D0007091510380E090E04AE00E94621983E309
:1045E00093E00E9460196091040170E080E090E027
:1045F0000CC085E393E00E9460196091D40470912F
:10460000D5048091D6049091D7044AE00E946219A3
:1046100089E393E00E94601980919F04882321F030
:1046200080E493E00E9460198DE50E94481A0E9480
:10463000A31926960FB6F894DEBF0FBECDBFDF914B
:10464000CF910895CF92DF92EF92FF920F931F9335
:10465000CF93DF937C01262F972F8A018091B3039C
:10466000882391F0C62FD72F6E01C40ED51ECC150E
:10467000DD0571F06991D701ED91FC910190F08118
:10468000E02DC7010995F3CF642F822F0E942522C8
:10469000C801DF91CF911F910F91FF90EF90DF90B4
:1046A000CF900895CF93DF931F92CDB7DEB7698384
:1046B0002091B3032223D1F02091D503203240F082
:1046C00021E030E0FC013383228380E090E015C0DC
:1046D0008091B403E82FF0E0EB54FC4F9981908374
:1046E0008F5F8093B4038093D50305C061E0CE0152
:1046F00001960E94252281E090E00F90DF91CF91FA
:1047000008954F925F926F927F928F929F92AF9295
:10471000BF92CF92DF92EF92FF920F93CF93DF93EE
:104720002115310509F470C05901EA017B016C01C2
:104730000E945414F7014080518062807380641598
:1047400075058605970520F4108211821282138266
:104750000E94541448EE53E0A49E9001A59E300D93
:10476000B49E300D1124F70180809180A280B38027
:10477000820E931EA11CB11C86169706A806B906C8
:1047800008F042C088819981AA81BB818A38F2E20F
:104790009F07A105B10591F401FF05C08BE695E2E5
:1047A000A0E0B0E006C000FF21C089E593E4A0E0EE
:1047B000B0E088839983AA83BB8318C08B3625E237
:1047C0009207A105B10549F400FDEFCF02FF0EC02D
:1047D0008AE892E2A0E0B0E0ECCF89359344A105ED
:1047E000B10521F402FDF4CF01FDD8CF48815981F4
:1047F0006A817B81C6010E9442170E945414F7010E
:104800006083718382839383DF91CF910F91FF90B7
:10481000EF90DF90CF90BF90AF909F908F907F9060
:104820006F905F904F900895CF93DF93CDB7DEB731
:1048300068970FB6F894DEBF0FBECDBF789484B5ED
:10484000826084BD84B5816084BD85B5826085BD8C
:1048500085B5816085BD80916E00816080936E001A
:10486000109281008091810082608093810080910C
:1048700081008160809381008091800081608093BD
:1048800080008091B10084608093B1008091B0007D
:1048900081608093B00080917A00846080937A0078
:1048A00080917A00826080937A0080917A008160A2
:1048B00080937A0080917A00806880937A001092C9
:1048C000C100E0910604F091070482E08083E0914A
:1048D0000604F09107041082E0910204F0910304B1
:1048E0001082E0910404F091050480E1808310922D
:1048F0000E04E0910A04F0910B0486E08083E091BD
:104900000804F0910904808180618083E0910804AB
:10491000F0910904808188608083E0910804F0911F
:104920000904808180688083E0910804F091090483
:1049300080818F7D808368EC70E080E090E00E9451
:104940001A1480914C03882321F081E392E00E94A5
:104950005C1A80914C0380934B03809328058093CD
:10496000D30410924A0310926B0310926A031092C0
:10497000B4031092D5031092B20381E08093B10387
:1049800010928C0361E082E10E94AE1361E083E14A
:104990000E94AE138091B9008E7F8093B900809100
:1049A000B9008D7F8093B90088E48093B80085E4D6
:1049B0008093BC001092A0041092A1041092A20453
:1049C0001092A30480ED0E94841B853509F04FC02E
:1049D0008AEA0E94541B9093A5048093A4048CEA55
:1049E0000E94541B9093A7048093A6048EEA0E9411
:1049F000541B9093A9048093A80480EB0E94541B3D
:104A00009093AB048093AA0482EB0E94541B909372
:104A1000AD048093AC0484EB0E94541B9093AF04CC
:104A20008093AE0486EB0E94541B9093B104809354
:104A3000B00488EB0E94541B9093B3048093B2049B
:104A40008AEB0E94541B9093B5048093B4048CEBC2
:104A50000E94541B9093B7048093B6048EEB0E947F
:104A6000541B9093B9048093B80481E001C080E0A6
:104A700080939F041092A0041092A1041092A204AB
:104A80001092A30481E08093CC040E94541460939C
:104A90005D0370935E0380935F039093600361E016
:104AA00082E295E00E945B1582E295E00E94A317E6
:104AB0004CEC5FE36DE070E082E295E00E94E61668
:104AC0004091050150910601609107017091080124
:104AD00082E295E00E94421761E082E295E00E9446
:104AE000EE1560E08DEC94E00E945B158091CD04A2
:104AF0009091CE04892BE9F08DEC94E00E94A317ED
:104B00004CEC5FE36DE070E08DEC94E00E94E61603
:104B100040910001509101016091020170910301E7
:104B20008DEC94E00E94421761E08DEC94E00E94CD
:104B3000EE1580914C03882321F084E792E00E94D7
:104B40005C1A68EE73E080E090E00E941A140E9404
:104B50004D2286EF93E00E94AA11892B09F4A1C18E
:104B600086EF93E00E948811182F8C3269F4E0914F
:104B7000580381E08E0F80935803F0E0EA52FC4F17
:104B80008091540380837EC180ED810F8A3020F5AF
:104B9000209154033091550340915603509157038F
:104BA000AAE0B0E00E948734AB01BC014053510938
:104BB00061097109812F110F990BAA0BBB0B840F8F
:104BC000951FA61FB71F8093540390935503A0937E
:104BD0005603B093570365C1812F8F7D81548A316D
:104BE00008F059C1812F012E000C990BAA0BBB0BA9
:104BF000865491098533910508F042C1855C9F4F29
:104C0000FC010C94D42B81E0409154035091550346
:104C10006091560370915703452B462B472B09F49F
:104C200080E080934C0380934B038093280580930E
:104C3000D30428C18091540390915503092E000C90
:104C4000AA0BBB0B8093A0049093A104A093A20491
:104C5000B093A30417C181E04091540350915503D0
:104C60006091560370915703452B462B472B09F44F
:104C700080E08093CC0406C14091540350915503C9
:104C800060915603709157034130510561057105DC
:104C900059F078F0423051056105710571F44AE828
:104CA00052E260E070E009C04BE655E260E070E07F
:104CB00004C049E553E460E070E0123759F44093D2
:104CC000050150930601609307017093080182E289
:104CD00095E011C08091CD049091CE04892B09F408
:104CE000D1C0409300015093010160930201709381
:104CF00003018DEC94E00E944217C4C080915403DC
:104D000090915503A0915603B091570381309105BE
:104D1000A105B10559F078F082309105A105B105E2
:104D200071F48AE892E2A0E0B0E009C08BE695E277
:104D3000A0E0B0E004C089E593E4A0E0B0E0809397
:104D40000A0190930B01A0930C01B0930D019AC03E
:104D5000809154038093090195C0809154038093FE
:104D6000040190C08091540380934F038BC08091C5
:104D7000540390915503909353038093520382C040
:104D80008091540390915503909351038093500365
:104D900079C080915803E82FF0E0EA52FC4F9091DF
:104DA000540390838F5F809358030E94A71925C0F6
:104DB000809158032091540330915503A82FB0E0FF
:104DC000AA52BC4F2C938F5F809358031F3411F06D
:104DD00091E001C092E0813009F017C340912205B3
:104DE000509123054130510541F4913009F009C338
:104DF000B90182E295E00E94C6141092580342C0A5
:104E0000409154035091550360915603709157039C
:104E100082E295E010C08091CD049091CE04892B60
:104E200089F140915403509155036091560370915C
:104E300057038DEC94E00E94E61624C081E0409177
:104E40005403509155036091560370915703452BBD
:104E5000462B472B09F480E080934E0313C081E07A
:104E6000409154035091550360915603709157033C
:104E7000452B462B472B09F480E080934D0302C05D
:104E80000E944D2210925403109255031092560323
:104E90001092570306C0FFEDF10FF03210F40E949C
:104EA0004D226EEF72E0CE0107960E941B11809199
:104EB0009F04882309F45CC20E945414C090C80463
:104EC000D090C904E090CA04F090CB04F0E1CF0E7A
:104ED000F7E2DF1EE11CF11C6C157D058E059F05B8
:104EE00008F446C20E9454146093C8047093C90425
:104EF0008093CA049093CB040E94C31BAC0160E072
:104F000070E08091AE049091AF049A01AB01281B30
:104F1000390B41095109A091AC04B091AD040E9434
:104F200087346B017C01FFE0F594E794D794C79434
:104F3000FA95D1F76091B6047091B704CB01770F61
:104F4000AA0BBB0BBC01CD01ABE0660F771F881F1E
:104F5000991FAA95D1F72091B8043091B90489011D
:104F6000330F220B330BA90198012C0D3D1D4E1D53
:104F70005F1D0E94B52BD701C601820F931FA41F8E
:104F8000B51F0896A11DB11DBC01CD01B4E09595DA
:104F9000879577956795BA95D1F70E946A3320E097
:104FA00030E040E251E40E944F2C4B015C016093E1
:104FB000C0047093C1048093C2049093C3040E9400
:104FC000C31B7C0184EB0E94AA1B6EE070E080E0B2
:104FD00090E00E941A1486EF0E94541B2C01612C51
:104FE000712C762C652C542C442488EF0E94841B51
:104FF000482AA301920106E05695479537952795D3
:105000000A95D1F7298B3A8B4B8B5C8B2093BC0490
:105010003093BD044093BE045093BF04A70160E0E9
:1050200070E08091AE049091AF049A01AB01281B0F
:10503000390B41095109A091AC04B091AD040E9413
:1050400087346B017C018FE0F594E794D794C79483
:105050008A95D1F76091B6047091B704CB01770FB0
:10506000AA0BBB0BBC01CD012BE0660F771F881F7D
:10507000991F2A95D1F72091B8043091B90489017C
:10508000330F220B330BA90198012C0D3D1D4E1D32
:105090005F1D0E94B52BC20ED31EE41EF51E30EA22
:1050A000C31A3FE0D30AE108F108A7019601C7013E
:1050B000B6010E94832B9B01AC016CE0559547958E
:1050C000379527956A95D1F72D873E874F87588B5F
:1050D000E091A404F091A504A091A804B091A904C2
:1050E000A70196010E94DA2B2B013C017DE075940B
:1050F0006794579447947A95D1F7A091B004B091F2
:10510000B1042D853E854F8558890E94DA2BBB2737
:1051100097FDB095AB2F840D951DA61DB71D02966A
:10512000A11DB11D12E0B595A795979587951A9584
:10513000D1F79C01AD0130584F4F5F4FA091AA04A9
:10514000B091AB040E9487342B013C010FE07694B0
:105150006794579447940A95D1F7CF01FF0FAA0B94
:10516000BB0B9C01AD0182E0220F331F441F551F72
:105170008A95D1F72D8B3E8B4F8B588FA091B2041F
:10518000B091B3042D853E854F8558890E94DA2B56
:105190009B01AC019BE055954795379527959A95CE
:1051A000D1F72D873E874F87588BA091A604B091E9
:1051B000A704A70196010E94DA2BDC01CB012BE0AA
:1051C000B595A795979587952A95D1F72D853E8515
:1051D0004F855889820F931FA41FB51F2D893E89C3
:1051E0004F89588D820F931FA41FB51F32E0880F7F
:1051F000991FAA1FBB1F3A95D1F7BC01CD016E5F65
:105200007F4F8F4F9F4F24E030E040E050E00E94FE
:10521000B52B89899A89AB89BC89821B930BA40B16
:10522000B50B9C01AD01A4EDB0E30E94873497FD5E
:105230000BC0660F771F881F991FA30192010E9460
:10524000932B29013A010AC0A30192010E94932BDA
:1052500029013A01440C551C661C771C992777FCE0
:105260009A95872D762D652D9B01AC010E94832B8D
:105270009B01AC01AEEDBBE00E9487346C01FF24C2
:10528000D7FCF094EF2CA3E4B3EEA30192010E94AB
:10529000DD2BBB2797FDB095AB2FC80ED91EEA1E9C
:1052A000FB1E9FECC90E9EE0D91EE11CF11C44E0E0
:1052B000F594E794D794C7944A95D1F7C40CD51CBC
:1052C000E61CF71CC701B60124E630E040E050E0E0
:1052D0000E94B52B2093C4043093C5044093C604A8
:1052E0005093C7046091A0047091A1048091A2041E
:1052F0009091A3040E946A3320E03AE24DE257E421
:105300000E944F2C9B01AC0160E070E080E89FE3BD
:105310000E94E22B26EF38E248EA50E40E94FC2C7F
:105320002B013C016EEF72E0CE0101960E941B1131
:1053300020E030E040E252ECC501B4010E9463334A
:1053400087FD0BC020E030E04AEA52E4C501B40119
:105350000E94F72C18160CF082C0BE016F5F7F4FC1
:10536000CE0107960E94871CCE0101960E94F71C71
:105370008B859C85892B21F0CE0107960E94681AA7
:10538000CE0107960E94F71C82E295E00E94971DCD
:1053900080913605882321F082E295E00E94860103
:1053A0008091CD049091CE04892B61F08DEC94E036
:1053B0000E94971D8091E104882321F08DEC94E0F8
:1053C0000E948601209152033091530300910901FC
:1053D00045E051E06DE573E082E295E00E948123B3
:1053E00020915003309151030091040140E051E0BD
:1053F00069E573E08DEC94E00E9481230E94B61170
:10540000A8CBB9018DEC94E0F6CC823009F0F5CC54
:1054100020912205309123052230310509F0EDCC91
:10542000F090D703E090D603913049F44F2D6E2DC4
:1054300082E295E00E94FF148091280508C04F2D5C
:105440006E2D8DEC94E00E94FF148091D30488238C
:1054500009F4D3CC6F2D8E2D0E94AA14CECCC70197
:10546000B6010E946A33A30192010E944F2C0E9450
:10547000C12C24E630E040E050E00E94B52B6901E9
:105480007A0167EA72E0CE0101960E94711C60E029
:10549000CE0101960E94461C6EEA72E0CE01019692
:1054A0000E94711C20E030E040E251E4C501B401EB
:1054B0000E94C93320E030E04AE754E40E94E32B25
:1054C0000E94C12CB62EA72E63E072E0CE01019699
:1054D0000E94711C6A2DCE0101960E94461C63E059
:1054E00072E0CE0101960E94711C6B2DCE010196D7
:1054F0000E94461C65EB72E0CE0101960E94711C71
:1055000061EB72E0CE0101960E94711C61EB72E0CA
:10551000CE0101960E94711C61EB72E0CE010196F2
:105520000E94711C61EB72E0CE0101960E94711C19
:1055300063E072E0CE0101960E94711C60E0CE0132
:1055400001960E94461C63E072E0CE0101960E9423
:10555000711C6D2D772767FD7A95CE0101960E940B
:10556000461C63E072E0CE0101960E94711C6C2D16
:10557000CE0101960E94461CF0CE7F928F929F92A0
:10558000AF92BF92CF92DF92EF92FF920F931F9351
:10559000CF93DF93E6EFF3E01382128288EE93E07D
:1055A000A0E0B0E084839583A683B78328E131E04F
:1055B0003183208325EC30E03587248724EC30E0EC
:1055C0003787268720EC30E0318B208B21EC30E0D0
:1055D000338B228B22EC30E0358B248B26EC30E0B1
:1055E000378B268B118E128E138E148EE3E9F4E026
:1055F0001382128284839583A683B78388E291E025
:1056000091838083C2E2D5E08BE0782E7A820CE031
:105610000B831DE01C838AE08D831E8299E5892E11
:1056200093E4992EA12CB12C8F829886A986BA86F4
:105630002CECC22E2FE3D22E2DE0E22EF12CCB86C5
:10564000DC86ED86FE861F86188A198A1A8A1B8ACE
:105650001C8A61E08BE00E94DE1360E08B810E9477
:10566000DE1361E08C810E94DE1361E08D810E9477
:10567000DE1361E08D810E94AE13CDECD4E07A821E
:105680000B831C8388E08D831E828F829886A98677
:10569000BA86CB86DC86ED86FE861F86188A198A36
:1056A0001A8A1B8A1C8A61E08BE00E94DE1360E08C
:1056B0008B810E94DE1361E08C810E94DE1361E029
:1056C0008D810E94DE1361E08D810E94AE1381E026
:1056D0008093CC04EFE9F4E01182128213821482E9
:1056E000108211A612A613A614A6DF91CF911F91C6
:1056F0000F91FF90EF90DF90CF90BF90AF909F9071
:105700008F907F900895DB018F939F930E94873441
:10571000BF91AF91A29F800D911DA39F900DB29F4D
:10572000900D11240895A1E21A2EAA1BBB1BFD01A6
:105730000DC0AA1FBB1FEE1FFF1FA217B307E40770
:10574000F50720F0A21BB30BE40BF50B661F771FC8
:10575000881F991F1A9469F76095709580959095A8
:105760009B01AC01BD01CF010895052E97FB1EF4EE
:1057700000940E94CC2B57FD07D00E94932B07FC6E
:1057800003D04EF40C94CC2B509540953095219538
:105790003F4F4F4F5F4F089590958095709561955D
:1057A0007F4F8F4F9F4F0895EE0FFF1F0590F4918D
:1057B000E02D0994B7FF0C9487340E948734821B34
:1057C000930B08955058BB27AA270E94FA2B0C94DC
:1057D0004D340E943F3438F00E94463420F039F4B2
:1057E0009F3F19F426F40C943C340EF4E095E7FB4B
:1057F0000C943634E92F0E945E3458F3BA176207CE
:1058000073078407950720F079F4A6F50C9480348B
:105810000EF4E0950B2EBA2FA02D0B01B9019001CB
:105820000C01CA01A0011124FF27591B99F0593F0F
:1058300050F4503E68F11A16F040A22F232F342F57
:105840004427585FF3CF469537952795A795F040A5
:105850005395C9F77EF41F16BA0B620B730B840BBA
:10586000BAF09150A1F0FF0FBB1F661F771F881F72
:10587000C2F70EC0BA0F621F731F841F48F48795CA
:1058800077956795B795F7959E3F08F0B0CF9395BC
:10589000880F08F09927EE0F9795879508950E9435
:1058A000632C0C944D340E94463458F00E943F34CF
:1058B00040F029F45F3F29F00C94363451110C94D8
:1058C00081340C943C340E945E3468F39923B1F324
:1058D000552391F3951B550BBB27AA276217730716
:1058E000840738F09F5F5F4F220F331F441FAA1FAA
:1058F000A9F335D00E2E3AF0E0E832D09150504066
:10590000E695001CCAF72BD0FE2F29D0660F771F13
:10591000881FBB1F261737074807AB07B0E809F0F9
:10592000BB0B802DBF01FF2793585F4F3AF09E3F7E
:10593000510578F00C9436340C9481345F3FE4F3D5
:10594000983ED4F3869577956795B795F7959F5FC1
:10595000C9F7880F911D9695879597F90895E1E00D
:10596000660F771F881FBB1F621773078407BA076C
:1059700020F0621B730B840BBA0BEE1F88F7E095C7
:1059800008950E94C82C6894B1110C948134089534
:105990000E94663488F09F5798F0B92F9927B75125
:1059A000B0F0E1F0660F771F881F991F1AF0BA95C3
:1059B000C9F714C0B13091F00E948034B1E008956D
:1059C0000C948034672F782F8827B85F39F0B93F5F
:1059D000CCF3869577956795B395D9F73EF4909576
:1059E0008095709561957F4F8F4F9F4F08950E94CE
:1059F000A53308F48FEF0895FA01EE0FFF1F3096DC
:105A000021053105A1F16115710561F48038BFE30D
:105A10009B0749F168949038810561F08038BFEFA9
:105A20009B0741F099234AF5FF3FE1053105210528
:105A300019F1E8940894E795D901AA2329F4AB2F2A
:105A4000BE2FF85FD0F310C0FF5F70F4A695E0F7AB
:105A5000F73950F019F0FF3A38F49F779F930DD043
:105A60000F9007FC9058089546F00C943C3460E089
:105A700070E080E89FE308954FE79F775F934F932F
:105A80003F932F930E94FC2D2F913F914F915F9157
:105A90000E94C9330C94592D0E94A533880B990B91
:105AA000089529F416F00C9436340C9480340C9438
:105AB0003C340E946634A8F39638A0F707F80F929A
:105AC000E8942BE33AEA48EB5FE70E94DF330F925A
:105AD0000F920F924DB75EB70F920E94442EE0EEE8
:105AE000F0E00E948B2D4F915F91EF91FF91E59532
:105AF000EE1FFF1F49F0FE57E0684427EE0F441FDA
:105B0000FA95E1F74195550B0E94BE2D0F9007FEC7
:105B10000C94B22D0895DF93CF931F930F93FF92B0
:105B2000EF92DF927B018C01689406C0DA2EEF01C0
:105B30000E94DC33FE01E894A591259135914591B1
:105B40005591A6F3EF010E94FA2BFE019701A801DF
:105B5000DA9469F7DF90EF90FF900F911F91CF914A
:105B6000DF9108959B01AC0160E070E080E89FE365
:105B70000C944F2C0C9436340C94782E0E9466347E
:105B8000D8F39923C9F3940F511DA3F391505040BA
:105B900094F059F0882332F0660F771F881F9150D8
:105BA0005040C1F79E3F51052CF7880F911D9695E7
:105BB000879597F908955F3FACF0983E9CF0BB271E
:105BC000869577956795B79508F4B1609395C1F779
:105BD000BB0F58F711F460FFE8CF6F5F7F4F8F4F17
:105BE0009F4FE3CF0C94813416F00C94782E0C94D4
:105BF0003C3468940C9436340E946634A8F399239C
:105C0000C1F3AEF3DF93CF931F930F93FF92C92F8E
:105C1000DD2788232AF02197660F771F881FDAF780
:105C200020E030E040E85FEB9FE3883920F0803EE1
:105C300038F021968F770E94E32BE8E0F1E004C072
:105C40000E94E32BE5E3F1E00E948B2D8B01BE0166
:105C5000EC01FB2E6F5771097595771F880B990B17
:105C60000E946A3328E132E741E35FE30E94DC33BC
:105C7000AF2D9801AE01FF900F911F91CF91DF9151
:105C80000E94FA2B0C944D34FA01DC01AA0FBB1FC1
:105C90009B01AC01BF5728F42227332744275078B3
:105CA00020C0B75190F4AB2F002446953795279527
:105CB000011CA395D2F3002071F0220F331F441F63
:105CC000B395DAF30ED00C94E22B61307105A0E8A5
:105CD0008A07B94630F49B01AC01662777278827ED
:105CE0009078309621F02083318342835383089546
:105CF0009F3F31F0915020F4879577956795B79540
:105D0000880F911D9695879597F90895CF93DF9306
:105D10008230910510F482E090E0E091C105F091AD
:105D2000C20520E030E0C0E0D0E0309711F14081C2
:105D3000518148175907C0F04817590761F482810B
:105D40009381209719F09B838A832BC09093C2057F
:105D50008093C10526C02115310519F0421753075C
:105D600018F49A01BE01DF01EF010280F381E02DFA
:105D7000DCCF2115310509F1281B390B2430310501
:105D800090F412968D919C9113976115710521F0F5
:105D9000FB019383828304C09093C2058093C10565
:105DA000FD01329644C0FD01E20FF31F81939193F0
:105DB000225031092D933C933AC02091BF05309178
:105DC000C005232B41F42091100130911101309333
:105DD000C0052093BF0520910E0130910F012115C0
:105DE000310541F42DB73EB7409112015091130196
:105DF000241B350BE091BF05F091C005E217F307B6
:105E0000A0F42E1B3F0B2817390778F0AC014E5F2A
:105E10005F4F2417350748F04E0F5F1F5093C005A2
:105E20004093BF058193919302C0E0E0F0E0CF0181
:105E3000DF91CF9108950F931F93CF93DF93009736
:105E400009F48CC0FC013297138212820091C105C3
:105E50001091C2050115110581F420813181820F55
:105E6000931F2091BF053091C0052817390779F598
:105E7000F093C005E093BF0571C0D80140E050E049
:105E8000AE17BF0750F412962D913C911397AD01B8
:105E90002115310509F1D901F3CF9D01DA013383D1
:105EA000228360817181860F971F8217930769F49F
:105EB000EC0128813981260F371F2E5F3F4F318338
:105EC00020838A819B8193838283452B29F4F093DD
:105ED000C205E093C10542C01396FC93EE9312975E
:105EE000ED01499159919E01240F351FE217F307E7
:105EF00071F480819181840F951F029611969C9375
:105F00008E938281938113969C938E931297E0E0F7
:105F1000F0E0D80112968D919C911397009719F09B
:105F2000F8018C01F6CF8D919C9198012E5F3F4F27
:105F3000820F931F2091BF053091C00528173907A4
:105F400069F4309729F41092C2051092C10502C07D
:105F5000138212821093C0050093BF05DF91CF9189
:105F60001F910F910895A0E0B0E0E9EBFFE20C94DF
:105F70009634EC01009721F4CB010E94862EB8C024
:105F8000FC01E60FF71F9C0122503109E217F307CD
:105F900008F4ACC0D9010D911C9111970617170791
:105FA000B0F00530110508F49FC0C80104978617AA
:105FB000970708F499C002501109061B170B0193AB
:105FC00011936D937C93CF010E941B2F8DC05B01B9
:105FD000A01AB10A4C01800E911EA091C105B0918A
:105FE000C20540E050E0E12CF12C109709F44AC0C2
:105FF000A815B905D1F56D907C901197630182E0E9
:10600000C80ED11CCA14DB0480F1A3014A195B0934
:106010006A0182E0C80ED11C1296BC9012971396AA
:10602000AC91B5E0CB16D10440F0B282A38351838A
:106030004083D9016D937C930AC00E5F1F4FC3014B
:10604000800F911FF90191838083EB2DFA2FE114CA
:10605000F10431F0D7011396FC93EE93129744C0EC
:10606000F093C205E093C1053FC08D919C911197BB
:106070004817590708F4AC017D0112960D90BC91A8
:10608000A02DB3CF8091BF059091C00588159905CB
:10609000E1F446175707C8F480910E0190910F0163
:1060A000009741F48DB79EB74091120150911301B2
:1060B000841B950BE817F907C8F4F093C005E0932B
:1060C000BF05F901718360830FC0CB010E94862E4A
:1060D0007C01009759F0A801BE010E948230CE01D8
:1060E0000E941B2FC70104C0CE0102C080E090E0D7
:1060F000CDB7DEB7EEE00C94B23481E090E0F894D6
:106100000C94D834FB01DC0102C001900D92415087
:106110005040D8F70895FB01DC0101900D9200205A
:10612000E1F70895EF920F931F93CF93DF93E80168
:1061300047FD02C034E001C034E1E42F440FFF0BFF
:10614000F7FF03C0F195E195F109E32E022F2E2F01
:10615000AE010E94ED30CE01DF91CF911F910F91E2
:10616000EF9008954532510520F4423010F00C9420
:10617000BD30FB011082CB010895BB274A3031F4BA
:10618000992322F4BDE2909581959F4F0C94D430D1
:106190004532510520F4423010F00C94D330FB010D
:1061A0001082CB010895BB27FB015527AA27880F32
:1061B000991FAA1FA41710F0A41B83955051B9F77B
:1061C000A05DAA3308F0A95DA193009779F7B111FA
:1061D000B1931192CB010C9453334F925F926F9213
:1061E0007F929F92AF92BF92CF92DF92EF92FF92F7
:1061F0000F931F93CF93DF93CDB7DEB729970FB6D9
:10620000F894DEBF0FBECDBF6A01122FB02E2BE374
:10621000201720F0FF24F394F00E02C0BCE3FB2E05
:106220000F2D27E0AE014F5F5F4F0E947B32AC0124
:106230008981982F9970913031F0E1FC06C0E0FE21
:1062400006C090E205C09DE203C09BE201C090E061
:10625000EE2DE07183FF3CC0911102C083E001C0CC
:1062600084E0811718F4212F281B01C020E0E111E0
:106270000BC0F601822F30E2882319F03193815050
:10628000FBCFC20ED11C20E0992329F0D6019C93AC
:10629000F60131966F01C6010396E2FE0AC03EE4A4
:1062A000D6013C9341E411964C93119712963C937E
:1062B00006C03EE6F601308341E641833283FC01AD
:1062C000322F40E2332309F442C041933150FACFD8
:1062D00082FF44C0911102C083E001C084E08117B5
:1062E00018F4212F281B01C020E0E1110BC0F6019A
:1062F000822F30E2882319F031938150FBCFC20EF8
:10630000D11C20E0992329F0D6019C93F601319607
:106310006F01C6010396E2FE0BC039E4D6013C933F
:106320003EE411963C93119736E412963C9307C0D5
:1063300039E6F60130833EE6318336E63283FC01EE
:10634000322F40E2332319F041933150FBCFFC014F
:10635000E20FF11D10828EEF9FEFB7C0F1E09111B7
:1063600001C0F0E06F2F70E01416150624F49A01B6
:106370002F5F3F4F02C021E030E0260F371FBB20C8
:1063800029F06B2D70E06F5F7F4F02C060E070E01E
:10639000260F371F612F70E0261737071CF4121BDA
:1063A000212F01C020E03E2D387159F4D601322F43
:1063B00060E2332319F06D933150FBCFC20ED11C34
:1063C00020E0FF2331F0D6019C93B6016F5F7F4F31
:1063D0006B01E1110BC0F601922F30E3992319F004
:1063E00031939150FBCFC20ED11C20E09F2D940F12
:1063F0003A81782F7071A72E84FF03C0313309F4DE
:106400009150191624F4993018F098E001C091E0E9
:10641000E42F852F57FF02C0E0E080E06E2F782F39
:10642000E0E0F0E0AEE29A2E3A01691A71082A0122
:10643000461A570A0B2D10E01195019511096F3F6F
:106440008FEF780729F4D6019C92C60101966C0162
:106450004617570784F0661677066CF47F01E40C44
:10646000F51CA1E0B0E0AC0FBD1FEA0EFB1ED7018A
:106470001196BC9002C090E3B92E6150710931961B
:10648000C60101967C016017710724F0D601BC9209
:106490006C01D5CF6417750741F4363320F43533DA
:1064A00021F4A11002C081E3B82EF601B082F701F9
:1064B000822F90E2882319F091938150FBCFF7014E
:1064C000E20FF11D108280E090E029960FB6F8945B
:1064D000DEBF0FBECDBFDF91CF911F910F91FF9017
:1064E000EF90DF90CF90BF90AF909F907F906F9094
:1064F0005F904F900895283008F027E03327DA01A5
:10650000990F311D87FD916000966105710539F481
:1065100032602E5F3D9330E32A95E1F708959F3F67
:1065200030F080387105610509F03C5F3C5F3D93B8
:10653000913008F08068911DDF93CF931F930F93E4
:10654000FF92EF92192F987F9695E92F9695969541
:10655000E90FFF27EA5EFD4F99273327EE24FF243A
:10656000A701E70105900894079428F4360FE71E69
:10657000F81E491F511D660F771F881F991F06942B
:10658000A1F70590079428F4E70EF81E491F561F3F
:10659000C11D770F881F991F661F0694A1F70590EC
:1065A000079428F4F80E491F561FC71FD11D880FE6
:1065B000991F661F771F0694A1F70590079420F492
:1065C000490F561FC71FD81F990F661F771F881FB7
:1065D0000694A9F784911095177041F0D695C79548
:1065E00057954795F794E7941A95C1F7ECEBF1E0CE
:1065F00068941590159135916591959105907FE27C
:106600007395E118F10A430B560BC90BD009C0F77B
:10661000E10CF11E431F561FC91FD01D7EF47033BD
:1066200011F48A95E6CFE894015030F0080F0AF48F
:106630000027021708F4202F2395022F7A3328F021
:1066400079E37D932A95E9F710C07D932A9589F621
:10665000069497956795379517951794E118F10A61
:10666000430B560BC90BD00998F023957E91739577
:106670007A3308F070E37C932013B8F77E91706151
:106680007D9330F0839571E37D9370E32A95E1F774
:106690001124EF90FF900F911F91CF91DF919927D7
:1066A00087FD90950895DC01FC01672F7191772398
:1066B000E1F7329704C07C916D9370836291AE17BD
:1066C000BF07C8F308950E94A53308F481E0089538
:1066D000E89409C097FB3EF490958095709561957C
:1066E0007F4F8F4F9F4F9923A9F0F92F96E9BB2732
:1066F0009395F695879577956795B795F111F8CFAE
:10670000FAF4BB0F11F460FF1BC06F5F7F4F8F4F18
:106710009F4F16C0882311F096E911C0772321F00E
:106720009EE8872F762F05C0662371F096E8862FA6
:1067300070E060E02AF09A95660F771F881FDAF7FD
:10674000880F9695879597F90895990F0008550F2A
:10675000AA0BE0E8FEEF16161706E807F907C0F0E7
:1067600012161306E407F50798F0621B730B840BEF
:10677000950B39F40A2661F0232B242B252B21F4C9
:1067800008950A2609F4A140A6958FEF811D811D69
:1067900008950E94DC330C944D340E943F3438F04D
:1067A0000E94463420F0952311F00C9436340C945A
:1067B0003C3411240C9481340E945E3470F3959F14
:1067C000C1F3950F50E0551F629FF001729FBB27E8
:1067D000F00DB11D639FAA27F00DB11DAA1F649F84
:1067E0006627B00DA11D661F829F2227B00DA11D37
:1067F000621F739FB00DA11D621F839FA00D611DBD
:10680000221F749F3327A00D611D231F849F600DDD
:10681000211D822F762F6A2F11249F5750409AF006
:10682000F1F088234AF0EE0FFF1FBB1F661F771F92
:10683000881F91505040A9F79E3F510580F00C945D
:1068400036340C9481345F3FE4F3983ED4F386955C
:1068500077956795B795F795E7959F5FC1F7FE2BFD
:10686000880F911D9695879597F9089597F99F67D9
:1068700080E870E060E008959FEF80EC08950024C8
:106880000A941616170618060906089500240A9495
:1068900012161306140605060895092E0394000C1B
:1068A00011F4882352F0BB0F40F4BF2B11F460FFAA
:1068B00004C06F5F7F4F8F4F9F4F089557FD9058D3
:1068C000440F551F59F05F3F71F04795880F97FBB4
:1068D000991F61F09F3F79F087950895121613066E
:1068E0001406551FF2CF4695F1DF08C0161617069D
:1068F0001806991FF1CF86957105610508940895D2
:10690000E894BB2766277727CB0197F908950E9463
:10691000C934A59F900DB49F900DA49F800D911D2B
:10692000112408952F923F924F925F926F927F921F
:106930008F929F92AF92BF92CF92DF92EF92FF928F
:106940000F931F93CF93DF93CDB7DEB7CA1BDB0B3B
:106950000FB6F894DEBF0FBECDBF09942A883988E0
:1069600048885F846E847D848C849B84AA84B984E7
:10697000C884DF80EE80FD800C811B81AA81B981F3
:10698000CE0FD11D0FB6F894DEBF0FBECDBFED0107
:106990000895A29FB001B39FC001A39F700D811DF8
:1069A0001124911DB29F700D811D1124911D089518
:0469B000F894FFCF89
:1069B4006B25000003594300000359430000000005
:1069C400C30580000000000079104410AA1188114A
:1069D4009C11C0100000000052232223621D4E1D92
:1069E4003F1D3E1D5D00204352433A57524F4E47D0
:1069F40000204352433A4F4B0020533A002049446D
:106A04003A00204E6577426174743A0020426974FA
:106A140031323A002054656D703A002048756D3A61
:106A240000205765616B426174743A0020435243FD
:106A34003A000A456E6420726563656976696E671B
:106A44002C204845582072617720646174613A2093
:106A540000232320435243204641494C2023230052
:106A64004E6F2076616C6964207374617274004E99
:106A74006F2076616C69642054656D706572617411
:106A84007572653A20004E6F2076616C6964204C03
:106A94006576656C3A20004E6F2076616C696420DF
:106AA400566F6C746167653A20004F4B204C53203D
:106AB40000203020004F4B20454D543731313020D9
:106AC400004F4B2039200052656C61796564004C9D
:106AD4006143726F737365205B004F4B2043432007
:106AE400002A2A2A204C6143726F737365207765EC
:106AF40061746865722073746174696F6E2077695C
:106B040072656C657373207265636569766572205E
:106B1400666F722049542B2073656E736F727320F5
:106B24002A2A2A00526164696F2073657475702083
:106B3400636F6D706C6574652E2053746172746933
:106B44006E6720746F2072656365697665206D6574
:106B5400737361676573004F4B20575320002032D5
:106B6400002032353520323535005772697465524C
:106B740065673A002D3E0073706931363A0052461B
:106B84004D3132420052464D36394357004E6F6EF6
:106B9400650053656E64696E6720646174613A20B0
:106BA40000526164696F2069733A20000D0A006E17
:106BB400616E00696E66006F7666002E000A5B00E7
:106BC4004C6143726F7373654954506C75735265AD
:106BD400616465720031302E31730020663A002002
:106BE400743A007E0020723A002900202B202800ED
:0A6BF400202B20424D5031383000B4
:00000001FF
