:100000000C9471010C94620D0C948F0D0C94990159
:100010000C9499010C9499010C9499010C949901F8
:100020000C9499010C9499010C9499010C949901E8
:100030000C9499010C9499010C9499010C949901D8
:100040000C94BC0D0C9499010C948D0F0C94DB0F47
:100050000C9499010C9499010C9499010C949901B8
:100060000C9499010C9499010A417661696C616262
:100070006C6520636F6D6D616E64733A0A20202099
:1000800020202E2E2C2E2E2073202020202D207379
:10009000656E642064617461207061636B65740ACD
:1000A00020202020202020202020206C2020202004
:1000B0002D206C69737420646576696365730A200A
:1000C0002020202020203C6E3E2061202020202D5A
:1000D000207475726E206163746976697479204C3E
:1000E0004544206F6E20504231206F6E206F722089
:1000F0006F66660A202020202020203C6E3E206370
:10010000202020202D20636F6E6669672028303DF7
:1001100066696C6C2C20313D6C6F61642C20323D23
:10012000736176652C20333D6572617365290A2001
:100130002020202020203C6E3E2064202020202DE6
:10014000207475726E206F666620646576696365DB
:10015000203C6E3E0A202020202020203C6E3E20A5
:1001600065202020202D207475726E206F6E206413
:100170006576696365203C6E3E0A202030783C68D5
:100180006868683E2068202020202D207365742038
:1001900063656E746572206672657175656E6379EC
:1001A00020284578616D706C652030784136464571
:1001B000203D3D204672657175656E6379202D2066
:1001C0003836382E393530304D487A0A20202020F4
:1001D0002020203C6E3E2070202020202D20706F9B
:1001E0006C6C20646576696365203C6E3E0A202055
:1001F00020202020203C6E3E2072202020202D2018
:100200006C697374207265636F7264696E67730AD8
:10021000202020202020203C6E3E20712020202005
:100220002D207175696574206D6F64652028313DDE
:10023000737570707265737320545820616E6420FA
:10024000626164207061636B657473290A202020E9
:10025000202020203C6E3E2076202020202D20765D
:10026000657273696F6E20616E6420636F6E66697C
:100270006775726174696F6E207265706F72740A4F
:100280000000000000240027002A000000000025D4
:100290000028002B00000000002300260029000495
:1002A000040404040404040202020202020303031D
:1002B0000303030102040810204080010204081017
:1002C00020010204081020000000070002010000C5
:1002D000030406000000000000000000170547119D
:1002E000100511241FBECFEFD8E0DEBFCDBF11E057
:1002F000A0E0B1E0ECE8FFE202C005900D92AC3660
:10030000B107D9F714E0ACE6B1E001C01D92AF34FB
:10031000B107E1F712E0C0EED2E004C02297FE017F
:100320000E947E17CC3DD107C9F70E949D110C9405
:10033000B9170C940000A0E0B0E0E1EAF1E00C9401
:100340008A17EC01A880B980CA80DB80A114B104AF
:10035000C104D10441F484E2A82E89EDB82E8BE5C6
:10036000C82E87E0D82EC601B5012DE133EF41E05C
:1003700050E00E94611727EA31E440E050E00E941B
:1003800020177B018C01C601B5012DE133EF41E05F
:1003900050E00E946117CA01B9012CEE34EF4FEF13
:1003A0005FEF0E9420176E0D7F1D801F911F97FF2A
:1003B00004C06150704080409048688379838A838C
:1003C0009B839B01AC015F77B901CA01CDB7DEB752
:1003D000EAE00C94A6170E949B0108958FE491E037
:1003E0000E949B01089560934F0170935001809388
:1003F0005101909352010895FB01DC0102C001906C
:100400000D9241505040D8F70895FB01DC01019056
:100410000D920020E1F70895FB01DC0141505040AE
:1004200030F08D910190801919F40020B9F7881BE4
:10043000990B0895A0E0B0E0E0E2F2E00C948C1794
:100440007C01EB018A01690109C0CE012196F60108
:100450000995F70181937F010150104001151105A5
:10046000A1F7CDB7DEB7E8E00C94A817A0E0B0E0A4
:10047000ECE3F2E00C948C17EC017B018A0169013A
:1004800009C0CE012196F70161917F01F60109951E
:100490000150104001151105A1F7CDB7DEB7E8E016
:1004A0000C94A8179C01F999FECF32BD21BDF89A92
:1004B00080B508959C01F999FECF1FBA32BD21BDC8
:1004C00060BD0FB6F894FA9AF99A0FBE0895782F86
:1004D0008CB581608CBD65B121E030E040E050E03A
:1004E0000090530104C0220F331F441F551F0A946C
:1004F000D2F7522F822F8095862385B99EBD0DB4E9
:1005000007FEFDCF8EB57EBD0DB407FEFDCF4EB507
:10051000382F20E085B1582B55B98CB58E7F8CBD16
:1005200050E0422B532BCA010895E8980E946702BD
:10053000E89A089580E090E00E9467028091B701F8
:100540008530D9F580E090EB0E9467029091B80168
:10055000E92FF0E0E259FE4F80839F5F9093B8014E
:1005600040916C0150916D01382F20E042275327B4
:1005700080E090E065E070E89A01220F331F57FF9A
:1005800004C0A9014627572701C0A9010196883058
:10059000910591F750936D0140936C018091B801E2
:1005A00090E00C972CF48091B801873408F464C073
:1005B0008DE092E80E94670208958091B70187FF5D
:1005C00029C0E091B701EF5FE093B701E75FF0E08A
:1005D000E259FE4FE08120916C0130916D019E2F18
:1005E00080E02827392780E090E065E070E8A901E5
:1005F000440F551F37FF04C09A012627372701C033
:100600009A0101968830910591F730936D012093FE
:100610006C012CC08091B7018F5F8093B70181502E
:100620008330F9F084302CF4882379F08130E9F4B8
:1006300012C0893019F08A30C1F402C0EDE216C050
:1006400086EF8093B701E4ED11C080916C01909129
:100650006D01E92F0BC080916C0190916D01E82F25
:1006600005C08DE092E80E946702EAEA8E2F90E0D2
:10067000805098440E94670208958091B7018530A8
:10068000E9F48091B80190E00C9724F48091B801CE
:100690008734A0F084E08093B70181E00895109240
:1006A000B80110926D0110926C0185E08093B70142
:1006B0008DED92E80E94670280E008958091B70175
:1006C000843069F380E008958091B701853099F412
:1006D0008091B801882379F480E090E00E9495022F
:1006E00090FD09C08DE092E80E94950284E080931D
:1006F000B70181E0089580E0089510926D01109295
:100700006C0186E08093B7018DE392E80E94670256
:1007100008951092B90108951092B9018CE291E008
:100720009093BB018093BA0188EB9BE09093BD014D
:100730008093BC0181E08093BE01EFEBF1E020E10A
:10074000DF01922F1D929A95E9F78093BF018AEA03
:100750009AEAAAE0B0E08093C0019093C101A0930F
:10076000C201B093C3017096DF011D922A95E9F78B
:1007700082E08093CF018BEB9BEBABE0B0E080930A
:10078000D0019093D101A093D201B093D3010895E9
:100790001092B6011092B501E9EBF1E0A5E0B0E8E6
:1007A0001EC08091B5019091B601508140E0842730
:1007B000952720E030E0BC01660F771F97FF04C04B
:1007C000CB018A279B2701C0CB012F5F3F4F2830E9
:1007D000310589F79093B6018093B501319682E097
:1007E000EF3FF807F1F68091B5019091B601918342
:1007F000808380E090E069EB71E048E451E02AE515
:1008000032E00E94360208951092B6011092B501AE
:1008100089EB91E060E070E048E451E022E532E0ED
:100820000E941A02E9EBF1E0A5E0B0E81EC0809159
:10083000B5019091B601508140E08427952720E0D2
:1008400030E0BC01660F771F97FF04C0CB018A27F9
:100850009B2701C0CB012F5F3F4F2830310589F71F
:100860009093B6018093B501319682E0EF3FF8078F
:10087000F1F62091B5013091B60180819181281760
:10088000390711F080E008958091B901E5ECF1E0BD
:1008900090E054E0880F991F5A95E1F78E0F9F1F43
:1008A0000BC011821082138212821482158216826A
:1008B0001782118610867096E817F90791F781E084
:1008C0000895582F792F462F2EE631E0C901652F64
:1008D00050E00E94FC010E947D03089525B181E053
:1008E00090E0A0E0B0E00090530104C0880F991F91
:1008F000AA1FBB1F0A94D2F7282B25B924B1822B3B
:1009000084B98AE061E00E94E50E8AE061E00E941D
:10091000A60E8BE061E00E94A60E8CE060E00E94D3
:10092000A60E8DE061E00E94A60E80E58CBD8DB51F
:1009300081608DBD82E060E00E94A60E82E061E0F1
:100940000E94E50E08950E946E0480E090E00E94EF
:10095000670285E092E80E94670280E098EB02C09F
:1009600080E090E00E94670282E00E94390F892BAC
:10097000B9F388EE90E80E9467028EEF96EA0E9433
:10098000670283E396EC0E94670285EC94E90E947B
:1009900067028FEA92EC0E94670283E89AEC0E9459
:1009A000670284ED9EEC0E94670287E794EC0E9448
:1009B000670280E298E90E94670286E79CEC0E9449
:1009C000670280E090EE0E9467028EE098EC0E9441
:1009D000670289E490EC0E94670284E08093B7018B
:1009E00080E06AE972E040E050E00E943F0D8FE154
:1009F00008958130910551F46F5F7F4F81F481E05C
:100A000093E060E071E00E94C8140895892B39F4E6
:100A10006F5F7F4F21F481E093E00E9404150895F9
:100A200080E090E06FEF7FEF0E94F904089581E08D
:100A300090E06FEF7FEF0E94F90408951F93182F45
:100A400089E294E061E071E00E944C1389E294E055
:100A500064E071E00E944C1389E294E06EE20E942F
:100A6000D61189E294E06EE071E00E944C1389E2B5
:100A700094E06DE50E94D611112321F089E294E003
:100A80000E94DE111F9108951F93E82FE15080917D
:100A9000B901E81708F074C0AE2FB0E0FD0154E0D2
:100AA000EE0FFF1F5A95E1F7E754FE4F86818093C2
:100AB00009036A3621F0603721F484E003C081E144
:100AC00001C085E080930A0344E0AA0FBB1F4A954A
:100AD000E1F7A754BE4F17968D919D910D90BC9153
:100AE000A02D9D014427552720930B03292F3A2F32
:100AF0004B2F552720930C0380930D03653621F46B
:100B000081E080930E0302C010920E038FEF80935A
:100B10001203809311038093100380930F038AE0E4
:100B200080934B038091BE01882351F589E294E0C4
:100B300063E171E00E944C1389E294E068E170E0A7
:100B40004AE050E00E94391310E012C089E294E0BC
:100B500060E20E94D611E12FF0E0E75FFC4F608178
:100B600089E294E070E04AE050E00E9439131F5F90
:100B700080914B03181750F389E294E00E94DE1134
:100B80001F9108951F93CF93DF9389E294E061E072
:100B900071E00E944C1389E294E064E071E00E94ED
:100BA0004C1389E294E06EE20E94D61189E294E04F
:100BB0006EE071E00E944C1389E294E06DE50E94C2
:100BC000FE11C8E6D0E0FE0121961491112369F0D0
:100BD0001A3029F489E294E06DE00E94D61189E28E
:100BE00094E0612F0E94D611EECF89E294E00E943A
:100BF000DE11DF91CF911F910895DF92EF92FF9266
:100C00000F931F937B018C01D42E8091B901482F43
:100C100050E0E0ECF1E020E030E010C08081918114
:100C2000A281B38170968E159F05A007B10721F4AC
:100C3000022F0F5F39F41FC02F5F3F4F2417350776
:100C40006CF319C00E94040E10E0E4E0000F111FC5
:100C5000EA95E1F707541E4F24E630E040E050E00B
:100C60000E943F172D0D311D411D511DF80120839C
:100C70003183428353831F910F91FF90EF90DF9058
:100C800008958F929F92AF92BF92CF92DF92EF9290
:100C9000FF920F931F93CF93DF93C9ECD1E0882489
:100CA00099249BC00E94040EE880F9800A811B8170
:100CB000609624E630E040E050E00E943F17E216E4
:100CC000F3060407150708F085C0F40114E0EE0FE1
:100CD000FF1F1A95E1F7E754FE4F848995898F3FEE
:100CE000910509F018F40196958B848BF401B4E01A
:100CF000EE0FFF1FBA95E1F7E754FE4F84899589FF
:100D0000E4012196059760F50E94040E7B018C0199
:100D100060E070E080E090E02EE130E040E050E004
:100D20000E94BA135B016C01A4E0CC0FDD1FAA95F1
:100D3000E1F7C754DE4FC801B70124E630E040E0D8
:100D400050E00E943F172A0D3B1D4C1D5D1D265F84
:100D50003F4F4F4F5F4F288339834A835B8331C0B6
:100D60000E94040E7B018C0160E070E080E090E066
:100D70002EE130E040E050E00E94BA135B016C01CC
:100D8000F4E0CC0FDD1FFA95E1F7C754DE4FC80140
:100D9000B70124E630E040E050E00E943F172A0D02
:100DA0003B1D4C1D5D1D8091BC019091BD01A0E0DB
:100DB000B0E0820F931FA41FB51F88839983AA8375
:100DC000BB83882D8F5F60E70E94440580E7809396
:100DD00008030AC00894811C911C8091B90190E01D
:100DE000881699060CF45ECFDF91CF911F910F9179
:100DF000FF90EF90DF90CF90BF90AF909F908F903B
:100E000008951F93182F89E061E00E94A60E60E00C
:100E1000112309F461E089E00E94E50E1F91089515
:100E200089E294E040E051EE60E070E00E9416102C
:100E300080E00E9401070E94A3040E94C2050E9454
:100E40000404882311F40E948C0381E08093BE0186
:100E500008952F923F924F925F926F927F928F925E
:100E60009F92AF92BF92CF92DF92EF92FF920F9339
:100E70001F93CF93DF931C01C0E0D0E08824992416
:100E80000FE0402E512C612C712C94C0C101B40193
:100E90000E94D813282F332727FD3095C901C0970A
:100EA0000A9720F500D000D0B901882777FD8095FA
:100EB000982F29E030E040E050E0EDB7FEB7218305
:100EC00032834383548320E330E040E050E019E371
:100ED000E12EF12C012D112DAA24BB2465010E94C5
:100EE0004F139B010F900F900F900F90C9018154E9
:100EF0009040069710F500D000D0B901882777FD03
:100F00008095982FEDB7FEB741825282638274823A
:100F100021E430E040E050E0B6E4EB2EF12C012D6E
:100F2000112DAAE0AA2EB12CC12CD12C0E944F1356
:100F30009B010F900F900F900F90C9018156904028
:100F4000069710F500D000D0B901882777FD80956D
:100F5000982FEDB7FEB7418252826382748221E6F8
:100F600030E040E050E0F6E6EF2EF12C012D112D9F
:100F7000EAE0AE2EB12CC12CD12C0E944F139B0164
:100F80000F900F900F900F90B9012031310514F0A0
:100F90006FE070E0CE0104E0880F991F0A95E1F739
:100FA00077FF02C060E070E0EB01C80FD91F089422
:100FB000811C911CF101848195818816990608F4A1
:100FC00065CFCE01DF91CF911F910F91FF90EF90F0
:100FD000DF90CF90BF90AF909F908F907F906F9059
:100FE0005F904F903F902F900895DF93CF930F9293
:100FF000CDB7DEB789838981813051F0813028F007
:10100000823049F0833061F409C00E948C0308C02B
:101010000E94040405C00E94C80302C00E94890304
:101020000F90CF91DF910895FF920F931F93CF936D
:10103000DF93F82ECFEBD1E000E010E0BBC081E001
:10104000F81621F082E0F81649F522C089E294E012
:1010500067E171E00E944C1389E294E068E170E07E
:101060004AE050E00E94391389E294E060E20E9475
:10107000D611B8016F5F7F4F89E294E04AE050E0FB
:101080000E94391389E294E060E20E94D61106C002
:1010900089E294E06AE171E00E944C136E857F85DD
:1010A00089E294E04AE050E00E94B91289E294E0BB
:1010B0006DE171E00E944C1389E294E068814AE09E
:1010C00050E00E94E71289E294E061E271E00E9440
:1010D0004C1329813A814B815C819A014427552721
:1010E00089E294E0622F4AE050E00E94E71289E230
:1010F00094E060E20E94D61129813A814B815C81A3
:10110000232F342F452F552789E294E0622F4AE0A0
:1011100050E00E94E71289E294E060E20E94D6115A
:1011200089E294E069814AE050E00E94E71289E296
:1011300094E060E20E94D61189E294E06D814AE079
:1011400050E00E94E71289E294E060E20E94D6112A
:101150006F8189E294E04AE050E00E94E71289E260
:1011600094E060E20E94D61189E294E06E814AE048
:1011700050E00E94E71289E294E060E20E94D611FA
:10118000698589E294E04AE050E00E94E71289E232
:1011900094E060E20E94D61189E294E068854AE01A
:1011A00050E00E94E71289E294E00E94DE110F5F96
:1011B0001F4F60968091B90190E0081719070CF451
:1011C0003ECFDF91CF911F910F91FF9008952F9205
:1011D0003F924F925F926F928F929F92AF92BF9287
:1011E000CF92DF92EF92FF920F931F93DF93CF93F3
:1011F000CDB7DEB7E8970FB6F894DEBF0FBECDBF10
:1012000089E294E00E949D10892B09F4BEC189E215
:1012100094E00E94CE10082F7E010894E11CF11C7E
:10122000C70165E271E00E94C81481E093E0B70154
:101230000E940C14882311F410E004C010E008365A
:1012400009F011E0CE0101960E940415112371F0FE
:10125000802F8154863020F08F5E8A3008F095C14F
:1012600081E093E0602F0E9482148FC1802F805311
:101270008A3058F480914C032AE0829FC0011124E7
:101280008053800F80934C0380C10C3279F490918D
:101290004D039634F8F4E92FF0E0E25BFC4F8091C7
:1012A0004C0380839F5F90934D0314C00837A9F4CB
:1012B000F8E0EF2EF12CEC0EFD1EC70165E271E0A7
:1012C0000E94C81481E093E0B7010E94E214C701B4
:1012D0000E94041510924C0358C1802F815687310B
:1012E00008F003C10C3631F10D366CF4063644F4C7
:1012F00004360CF0A5C00136C1F0033699F4A8C03D
:10130000083681F4AAC00237E1F0033734F400371D
:1013100009F496C0013731F40FC00337B1F0063736
:1013200009F48AC00E94C205D4C080914C030E9477
:101330000107CFC081E006C080914C038093BE01BD
:10134000C8C082E00E941408C4C040914D034634D6
:1013500008F0BFC0E42FF0E0AEE4B3E0EA0FFB1FFB
:1013600080914C0380834F5F40934D0340934B0328
:1013700083E78093080329E033E0C901BD0150E011
:101380000E94FC0180914B038A3031F580910A0361
:10139000853011F520910B03E0900C0360910D0353
:1013A00070E080E090E030E040E050E0A9013327B9
:1013B0002227622B732B842B952B0E2D10E020E01F
:1013C00030E0522F412F302F2227622B732B842B9A
:1013D000952B4AE00E94FD058091BE01882309F00B
:1013E00078C089E294E063E171E00E944C1389E2E5
:1013F00094E068E170E04AE050E00E94391310E0A8
:1014000012C089E294E060E20E94D611E12FF0E080
:10141000E75FFC4F608189E294E070E04AE050E0D1
:101420000E9439131F5F80914B03181750F389E214
:1014300094E00E94DE114DC081E00E941E0549C06B
:1014400080914C03602F0E9444050093080341C023
:1014500080914C030E94F5073CC089E294E068E269
:1014600071E00E944C134FE0E42EF12CEC0EFD1EB7
:10147000C70161E073E00E94F914C7010E942907C7
:101480009093550180935401C7010E9404158091E7
:101490005401909155010E94950260915401709100
:1014A000550189E294E040E150E00E94CA1236E121
:1014B000E32EF12CEC0EFD1EC70160E071E00E94EE
:1014C000C81481E093E0B7010E94E214C7010E94B2
:1014D000041510924D0310924C0386E4EEE4F3E001
:1014E000DF011D928A95E9F750C00B3231F00D32C1
:1014F00021F0033209F044C02EC089E294E068E391
:1015000071E00E944C1380915401909155010B326F
:1015100011F4019601C001979093550180935401F5
:1015200080915401909155010E94950289E294E0C6
:10153000602F0E94D61189E294E06FE371E00E946F
:101540004C13609154017091550189E294E040E19F
:1015500050E00E94CA1210924C032DE1E22EF12CB1
:10156000EC0EFD1EC70160E071E00E94C81481E02E
:1015700093E0B7010E94E214C7010E94041505C060
:101580000152003210F40E94C205809108038823A2
:1015900011F40E9441060E943D03882309F43AC2D7
:1015A00080916C0190916D01892B09F05CC0809154
:1015B000BE01882309F44FC080916E01882309F48D
:1015C0004AC0E091740180917501F09176016091BB
:1015D00077013E2F20E090E0282B392B40E050E0AF
:1015E000A901332722279F2F80E070E0862B972BBD
:1015F000A0E0B0E0282B392B4A2B5B2B2F5F3F4F0D
:101600004F4F5F4F09F423C280916F01853019F16C
:10161000E091740180917501F091760160917701FC
:101620003E2F20E090E0282B392B40E050E0A9012C
:10163000332722279F2F80E070E0862B972BA0E096
:10164000B0E0282B392B4A2B5B2B2A5A3A4A4A4ABC
:101650005A4A09F4FCC181E00E94010789E294E042
:1016600062E471E009C08091BE01882309F0EFC1F6
:1016700089E294E065E471E00E944C1389E294E011
:1016800060E20E94D61189E294E068E170E04AE0ED
:1016900050E00E94391389E294E060E20E94D61182
:1016A00080916E01882319F460910A0302C0609151
:1016B0006E0189E294E070E04AE050E00E94391344
:1016C00001E010E089E294E060E20E94D611F801A6
:1016D000E259FE4F608189E294E070E04AE050E018
:1016E0000E9439130F5F1F4F0A30110559F789E225
:1016F00094E00E94DE1180E00E94010780916C015D
:1017000090916D01892B09F085C180917001209124
:101710007101E090720190E0A0E0B0E0BC015527BB
:1017200044274CA35DA36EA37FA330E040E050E0CC
:10173000542F432F322F22276CA17DA18EA19FA170
:10174000622B732B842B952B6CA37DA38EA39FA35D
:101750008E2D90E0A0E0B0E0ECA0FDA00EA11FA1B6
:10176000E82AF92A0A2B1B2BECA2FDA20EA31FA329
:101770006091B901462F50E0E0ECF1E020E030E06C
:1017800014C080819181A281B3817096ECA0FDA0EC
:101790000EA11FA18E159F05A007B10721F4622E8F
:1017A000639449F505C02F5F3F4F241735074CF36D
:1017B000662E63946092B901E62DF0E0B4E0EE0F7E
:1017C000FF1FBA95E1F7E755FE4F0CA11DA12EA111
:1017D0003FA1078310872187328780916E0188237C
:1017E00031F080916E01868311E018A71DC06682DA
:1017F00021E028A719C080916E018823A1F0E62D71
:10180000F0E090916E01A4E0EE0FFF1FAA95E1F7C2
:10181000E755FE4F8681891731F080916E018683EE
:1018200031E038A701C018A6E091740180917501DC
:10183000F0917601609177013E2F20E090E0282B17
:10184000392B40E050E0A901332722279F2F80E069
:1018500070E0862B972BA0E0B0E0282B392B4A2B89
:101860005B2B2A5A3A4A4A4A5A4A09F4EAC0E0919A
:10187000740180917501F0917601609177013E2F9E
:1018800020E090E0282B392B40E050E0A9013327DD
:1018900022279F2F80E070E0862B972BA0E0B0E0FE
:1018A000282B392B4A2B5B2B2F5F3F4F4F4F5F4F1E
:1018B00009F4C7C0862C9924F401319780917301F3
:1018C00064E0EE0FFF1F6A95E1F7DF01A754BE4FFA
:1018D000BEABADAB1B968C931B97409174012091CE
:1018E0007501942F80E030E0822B932B1D969C9302
:1018F0008E931C974091760120917701EF53FE4F14
:10190000942F80E030E0822B932B978386830E9474
:10191000040E1B012C0160E070E080E090E02EE1FD
:1019200030E040E050E00E94BA135B016C0134E00B
:10193000880C991C3A95E1F7E9EBF1E08E0E9F1EB9
:10194000C201B10124E630E040E050E00E943F17C0
:101950002A0D3B1D4C1D5D1D8091BA019091BB016C
:10196000A0E0B0E0820F931FA41FB51FF401808395
:101970009183A283B383ADA9BEA955961C921E92F2
:1019800054971EC00E94040EE62DF0E024E0EE0FF6
:10199000FF1F2A95E1F7E754FE4FF8AFEFAB24E6BF
:1019A00030E040E050E00E943F172B5F3F4F4F4F29
:1019B0005F4FAFA9B8AD2D933D934D935C931397B3
:1019C00080916E01882309F58091BE01882381F4FE
:1019D00089E294E068E471E00E944C1389E294E0AB
:1019E0004CA15DA16EA17FA12AE030E00E94A5126A
:1019F00066E470E080E090E00E94120E862D6AE6B8
:101A00000E9444058AE680930803B8A5BB2311F021
:101A10000E94C803809108038823C9F00E946403D0
:101A20008823A9F081E00E94010789E093E060919A
:101A30004B030E9461041092080380E00E9401079A
:101A400006C080916F01853009F0BACF9BCFE89630
:101A50000FB6F894DEBF0FBECDBFCF91DF911F91BF
:101A60000F91FF90EF90DF90CF90BF90AF909F903D
:101A70008F906F905F904F903F902F90089582309D
:101A800000F5E82FF0E0EE0FFF1FEC56FC4F7183DE
:101A90006083882319F08130A1F408C08091690027
:101AA0008C7F842B80936900E89A08958091690067
:101AB000440F551F440F551F837F842B809369006B
:101AC000E99A08951F920F920FB60F9211242F9347
:101AD0003F934F935F936F937F938F939F93AF93B6
:101AE000BF93EF93FF938091940390919503892B7B
:101AF00029F0E0919403F09195030995FF91EF91FE
:101B0000BF91AF919F918F917F916F915F914F9115
:101B10003F912F910F900FBE0F901F9018951F921D
:101B20000F920FB60F9211242F933F934F935F9311
:101B30006F937F938F939F93AF93BF93EF93FF9395
:101B40008091960390919703892B29F0E091960359
:101B5000F09197030995FF91EF91BF91AF919F91FC
:101B60008F917F916F915F914F913F912F910F9046
:101B70000FBE0F901F9018951F920F920FB60F92E5
:101B800011242F933F938F939F93AF93BF93809193
:101B90009C0390919D03A0919E03B0919F0330916F
:101BA000A0030196A11DB11D232F2D5F2D3720F01D
:101BB0002D570196A11DB11D2093A00380939C0376
:101BC00090939D03A0939E03B0939F0380919803ED
:101BD00090919903A0919A03B0919B030196A11D46
:101BE000B11D8093980390939903A0939A03B093A7
:101BF0009B03BF91AF919F918F913F912F910F9038
:101C00000FBE0F901F9018958FB7F89420919C03EA
:101C100030919D0340919E0350919F038FBFB90166
:101C2000CA0108959B01AC017FB7F8948091980395
:101C300090919903A0919A03B0919B0366B5A89BDC
:101C400005C06F3F19F00196A11DB11D7FBFBA2FCE
:101C5000A92F982F8827860F911DA11DB11D62E025
:101C6000880F991FAA1FBB1F6A95D1F7BC012DC011
:101C7000FFB7F8948091980390919903A0919A03EB
:101C8000B0919B03E6B5A89B05C0EF3F19F0019604
:101C9000A11DB11DFFBFBA2FA92F982F88278E0F26
:101CA000911DA11DB11DE2E0880F991FAA1FBB1F46
:101CB000EA95D1F7861B970B885E9340C8F22150B6
:101CC00030404040504068517C4F2115310541055E
:101CD000510571F60895789484B5826084BD84B509
:101CE000816084BD85B5826085BD85B5816085BD17
:101CF000EEE6F0E0808181608083E1E8F0E0108230
:101D0000808182608083808181608083E0E8F0E070
:101D1000808181608083E1EBF0E08081846080835A
:101D2000E0EBF0E0808181608083EAE7F0E0808191
:101D300084608083808182608083808181608083F1
:101D40008081806880831092C1000895CF93DF93D3
:101D5000482F50E0CA018D549D4FFC0134914156EB
:101D60005D4FFA018491882369F190E0880F991FF3
:101D7000FC01EF57FD4FA591B491FC01E557FD4FD4
:101D8000C591D491662351F42FB7F8948C91932F79
:101D9000909589238C93888189230BC0623061F4EC
:101DA0002FB7F8948C91932F909589238C938881E9
:101DB000832B88832FBF06C09FB7F8948C91832B09
:101DC0008C939FBFDF91CF910895482F50E0CA01B7
:101DD00089539D4FFC012491CA018D549D4FFC01F4
:101DE000949141565D4FFA013491332309F440C078
:101DF000222351F1233071F0243028F42130A1F056
:101E0000223011F514C02630B1F02730C1F0243053
:101E1000D9F404C0809180008F7703C08091800046
:101E20008F7D8093800010C084B58F7702C084B509
:101E30008F7D84BD09C08091B0008F7703C08091F1
:101E4000B0008F7D8093B000E32FF0E0EE0FFF1F16
:101E5000E557FD4FA591B4912FB7F894662321F46F
:101E60008C919095892302C08C91892B8C932FBFE4
:101E70000895682F70E0CB0189539D4FFC01249198
:101E8000CB018D549D4FFC01449161567D4FFB0168
:101E90009491992319F420E030E03CC0222351F1C1
:101EA000233071F0243028F42130A1F0223011F5D4
:101EB00014C02630B1F02730C1F02430D9F404C06A
:101EC000809180008F7703C0809180008F7D809308
:101ED000800010C084B58F7702C084B58F7D84BD2B
:101EE00009C08091B0008F7703C08091B0008F7DD2
:101EF0008093B000892F90E0880F991F8B569D4FDB
:101F0000FC01A591B4918C9120E030E0842311F084
:101F100021E030E0C901089508951F920F920FB695
:101F20000F9211242F933F934F938F939F93EF938F
:101F3000FF938091C00082FD1DC04091C60020919A
:101F4000E1033091E2032F5F3F4F2F733070809198
:101F5000E3039091E4032817390771F0E091E1035E
:101F6000F091E203EF55FC4F40833093E20320935E
:101F7000E10302C08091C600FF91EF919F918F9184
:101F80004F913F912F910F900FBE0F901F9018957A
:101F9000E0913504F0913604E05CFF4F819191911E
:101FA00020813181821B930B8F739070892B11F0EC
:101FB0000E948C0F08951F920F920FB60F9211245A
:101FC0002F933F938F939F93EF93FF93209125043B
:101FD000309126048091270490912804281739070E
:101FE00031F48091C1008F7D8093C10014C0E091D5
:101FF0002704F0912804EB51FC4F208180912704A5
:102000009091280401968F73907090932804809388
:1020100027042093C600FF91EF919F918F913F91EC
:102020002F910F900FBE0F901F901895AF92BF92F7
:10203000DF92EF92FF920F931F93CF93DF93EC0108
:102040007A018B01DD24403081EE580780E068077B
:1020500080E0780711F0DD24D39491E0A92EB12C13
:10206000EC89FD89DD2069F0C50108A002C0880F58
:10207000991F0A94E2F7808360E079E08DE390E0B5
:1020800005C0108260E874E88EE190E0A801970135
:102090000E943F1721503040404050405695479590
:1020A0003795279580E12030380720F0DD2011F0AA
:1020B000DD24D6CFE889F9893083EA89FB8920833A
:1020C00019A2EE89FF89408121E030E0C9010C8C22
:1020D00002C0880F991F0A94E2F7482B4083EE89CB
:1020E000FF894081C9010D8C02C0880F991F0A9495
:1020F000E2F7482B4083EE89FF894081C9010E8CAD
:1021000002C0880F991F0A94E2F7482B4083EE899A
:10211000FF8980810F8C02C0220F331F0A94E2F7DF
:10212000209528232083DF91CF911F910F91FF905D
:10213000EF90DF90BF90AF900895DC011C96ED9179
:10214000FC911D97E05CFF4F21913191808191813D
:10215000281B390B2F733070C9010895DC011C96C0
:10216000ED91FC911D97E05CFF4F20813181E0549F
:10217000F040DF01AE5BBF4F8D919C911197281706
:10218000390719F42FEF3FEF07C08D919C91E80FAD
:10219000F91F8081282F30E0C9010895DC011C96C9
:1021A000ED91FC911D97E05CFF4F20813181E0545F
:1021B000F040DF01AE5BBF4F8D919C9111972817C6
:1021C000390719F42FEF3FEF10C08D919C911197B3
:1021D000E80FF91F20818D919C91119701968F73C3
:1021E000907011969C938E9330E0C9010895DC01A4
:1021F00091968C919197882339F05496ED91FC91AA
:102200005597808186FFF9CF91961C920895CF93C0
:10221000DF93EC01EE85FF85E05CFF4F208131818B
:10222000E054F0402F5F3F4F2F733070DF01AE5B03
:10223000BF4F8D919C91119728173907D1F3E05C1E
:10224000FF4F80819181E054F040E80FF91F6083D7
:10225000EE85FF85E05CFF4F31832083EE89FF89A7
:10226000208181E090E00F8C02C0880F991F0A94B2
:10227000E2F7282B208381E089A3EC89FD89808106
:102280008064808381E090E0DF91CF910895109287
:102290002C0410922B0488EE93E0A0E0B0E0809331
:1022A0002D0490932E04A0932F04B093300480E665
:1022B00091E090932A048093290481EA93E090931B
:1022C00036048093350485EE93E090933804809330
:1022D000370485EC90E090933A048093390484ECC1
:1022E00090E090933C0480933B0480EC90E09093CA
:1022F0003E0480933D0481EC90E0909340048093F1
:102300003F0482EC90E0909342048093410486EC79
:1023100090E0909344048093430484E080934504C8
:1023200083E08093460487E08093470485E08093B0
:10233000480481E0809349040895CF93DF930E947D
:102340006B0E0E941007C8ECDFE00E94E7082097A0
:10235000E1F30E94C80FF9CFCF92DF92EF92FF9284
:102360000F931F93CF93DF937C016B018A01C0E031
:10237000D0E00FC0D6016D916D01D701ED91FC91B8
:102380000190F081E02DC7010995C80FD91F0150B8
:1023900010400115110571F7CE01DF91CF911F910A
:1023A0000F91FF90EF90DF90CF900895DC01ED91B9
:1023B000FC910190F081E02D09950895EF92FF9234
:1023C0000F931F938C01DC01ED91FC910190F08142
:1023D000E02D6DE009957C01D801ED91FC91019013
:1023E000F081E02DC8016AE009959C012E0D3F1D8A
:1023F000C9011F910F91FF90EF900895EF92FF9206
:102400000F931F937C01DC01ED91FC910190F08111
:10241000E02D09958C01C7010E94DE11080F191FDC
:10242000C8011F910F91FF90EF900895CF93DF9314
:10243000EC016115710519F420E030E00FC0DB01FB
:102440000D900020E9F71197A61BB70BE881F981E1
:102450000280F381E02DAD0109959C01C901DF9156
:10246000CF9108954F925F927F928F929F92AF92F9
:10247000BF92CF92DF92EF92FF920F931F93DF9361
:10248000CF93CDB7DEB7A1970FB6F894DEBF0FBEDE
:10249000CDBF2C01742ECB01223008F42AE019A202
:1024A00031E2C32ED12CCC0EDD1E822E9924AA241B
:1024B000BB24672D752FA50194010E943F17790158
:1024C0008A01C801B701A50194010E942017472D78
:1024D000461B0894C108D1084A3014F4405D01C07D
:1024E000495CF6014083E114F1040105110521F076
:1024F0007E2C5F2DC801DDCFC201B6010E941612ED
:10250000A1960FB6F894DEBF0FBECDBFCF91DF917D
:102510001F910F91FF90EF90DF90CF90BF90AF9001
:102520009F908F907F905F904F900895DC012115D0
:10253000310541F4ED91FC910190F081E02D642F83
:10254000099508950E9432120895EF92FF920F9319
:102550001F937C010E9496128C01C7010E94DE111C
:102560009C01200F311FC9011F910F91FF90EF9027
:102570000895EF92FF920F931F939A017B0100E061
:1025800010E0B801A7010E9496121F910F91FF90D1
:10259000EF900895CF92DF92EF92FF920F931F93E7
:1025A0006C017B019A0100E010E0B801A7010E94D4
:1025B00096128C01C6010E94DE11080F191FC80176
:1025C0001F910F91FF90EF90DF90CF900895EF92C1
:1025D000FF920F931F939A01E62EFF2400E010E074
:1025E000B801A7010E9496121F910F91FF90EF90E2
:1025F0000895CF92DF92EF92FF920F931F93CF93A4
:10260000DF93EC016A017B012115310541F4E8817A
:10261000F9810190F081E02D642F09951FC02A30C7
:102620003105D1F477FF17C0E881F9810190F0817D
:10263000E02D6DE209958C0144275527BA014C190C
:102640005D096E097F09CE012AE00E9432129801CD
:10265000280F391F04C02AE00E9432129C01C901D0
:10266000DF91CF911F910F91FF90EF90DF90CF906E
:102670000895EF92FF920F931F937B019A01002719
:10268000F7FC0095102FB801A7010E94F9121F91C5
:102690000F91FF90EF9008950E94161208952F92C7
:1026A0003F924F925F926F927F928F929F92AF92E2
:1026B000BF92CF92DF92EF92FF920F931F93DF931F
:1026C000CF93CDB7DEB73B014C0119012A016D89CB
:1026D0007E898F89988D6A197B098C099D09621AF8
:1026E000730A840A950AA40193010E942017E21834
:1026F000F30804091509A80197010E9461172A0D22
:102700003B1D4C1D5D1DB901CA01CF91DF911F9189
:102710000F91FF90EF90DF90CF90BF90AF909F9080
:102720008F907F906F905F904F903F902F90089583
:10273000EF92FF920F931F937B018C01611571053E
:102740008105910529F420E030E040E050E00BC025
:102750000E94EE01A80197010E946117AC01CB0114
:10276000DA019C01AD01B901CA011F910F91FF90DF
:10277000EF900895EF92FF920F931F937B018C01CE
:10278000621773078407950764F4261B370B480B01
:10279000590BCA01B9010E949813E60EF71E081FD3
:1027A000191FB701C8011F910F91FF90EF90089575
:1027B000FC01848195816817790748F40190F081C4
:1027C000E02D309721F0E60FF71F8081089580E01B
:1027D0000895FC01DB0114962D913C91159784819D
:1027E0009581821B930B84179507A0F080819181BE
:1027F000009781F06D917C916115710559F0840FFE
:10280000951FA9010E940C029C0180E0232B19F462
:1028100081E0089580E00895FC01DB012481358189
:1028200014968D919C9115972817390710F480E024
:102830000895CF0140E050E00E94E91308950F93FE
:102840001F93CF93DF93EC018B016F5F7F4F8881E4
:1028500099810E943F16009711F480E005C099838A
:1028600088831B830A8381E0DF91CF911F910F91B1
:102870000895CF93DF93EC0188819981892B29F00A
:102880008A819B818617970760F4CE010E941F14EE
:10289000882341F08C819D81892B19F4E881F9818D
:1028A000108281E0DF91CF910895EF92FF920F9314
:1028B0001F93CF93DF93EC017B016C817D81E11449
:1028C000F104C1F04115510599F08A01060F171F57
:1028D000B8010E943914882369F0888199812C817C
:1028E0003D81820F931FB7010E9405021D830C8357
:1028F00081E001C080E0DF91CF911F910F91FF90A7
:10290000EF900895DF93CF9300D0CDB7DEB7698302
:102910001A82BE016F5F7F4F41E050E00E94551464
:102920000F900F90CF91DF910895CF93DF93EC013B
:1029300088819981009711F00E94A7151982188249
:102940001D821C821B821A82DF91CF910895EF9223
:10295000FF920F931F93CF93DF93EC017B018A01CA
:10296000BA010E943914882321F4CE010E949514E3
:1029700007C01D830C8388819981B7010E940502DD
:10298000CE01DF91CF911F910F91FF90EF900895AD
:10299000CF93DF93EC01198218821B821A821D8269
:1029A0001C821E826115710551F0DB010D90002023
:1029B000E9F71197A61BB70BAD010E94A714DF9191
:1029C000CF910895CF93DF93EC01FB018617970712
:1029D00061F0608171816115710529F04481558133
:1029E0000E94A71402C00E949514CE01DF91CF91DE
:1029F0000895FC01118210821382128215821482C2
:102A000016820E94E2140895FC01808191810E9447
:102A1000A71508950F931F93CF93DF93BC018230C6
:102A2000910510F462E070E0E0914D04F0914E04E5
:102A300040E050E0A0E0B0E024C0808191818617A2
:102A40009707D0F08617970771F4828193811097CA
:102A500029F013969C938E9312972CC090934E045A
:102A600080934D0427C04115510519F0841795072F
:102A700018F48D01AC01EF01DF01828193819C018B
:102A8000F9013097D1F641155105F9F0CA01861BBD
:102A9000970B8430910580F48A819B810115110583
:102AA00021F0F8019383828304C090934E048093B5
:102AB0004D04FE01329645C0FE01E80FF91F6193F7
:102AC00071930297998388833CC080914B049091C5
:102AD0004C04892B41F480915801909159019093B5
:102AE0004C0480934B0440915A0150915B01411575
:102AF000510541F44DB75EB7809156019091570151
:102B0000481B590B20914B0430914C042417350776
:102B1000B0F4CA01821B930B8617970780F0AB01B4
:102B20004E5F5F4F8417950750F0420F531F50932D
:102B30004C0440934B04F9016193719302C0E0E0AF
:102B4000F0E0CF01DF91CF911F910F910895CF93C6
:102B5000DF939C01009709F48FC0EC0122971B8240
:102B60001A8260914D0470914E046115710581F4D3
:102B700088819981820F931F20914B0430914C04DE
:102B80002817390739F5D0934C04C0934B0474C00F
:102B9000DB0140E050E0AC17BD0708F1BB83AA831E
:102BA000FE0121913191E20FF31FAE17BF0779F4B7
:102BB0008D919C911197280F391F2E5F3F4F3983BC
:102BC000288312968D919C9113979B838A8341153C
:102BD000510571F4D0934E04C0934D044DC012962C
:102BE0008D919C911397AD01009711F0DC01D3CF2B
:102BF000DA011396DC93CE931297FA012191319169
:102C0000E20FF31FCE17DF0769F488819981280F3F
:102C1000391F2E5F3F4FFA01318320838A819B81C8
:102C200093838283E0E0F0E0DB0112968D919C912A
:102C30001397009719F0BC01FD01F6CFAB014E5F71
:102C40005F4FDB018D919C91840F951F20914B0468
:102C500030914C042817390779F4309729F41092F1
:102C60004E0410924D0402C0138212824250504012
:102C700050934C0440934B04DF91CF9108956F9291
:102C80007F928F929F92AF92BF92CF92DF92EF92FC
:102C9000FF920F931F93CF93DF938C01009729F43A
:102CA000CB010E940A158C01BBC08EEFE82E8FEF7E
:102CB000F82EE00EF11E4801860E971E8E149F041A
:102CC00008F4ACC0D7014D915C9111974617570796
:102CD000B8F04530510508F4A3C0CA01049786171F
:102CE000970708F49DC042505040461B570BF40113
:102CF000419351936D937C93CF010E94A71590C08F
:102D00005B01A41AB50A3801640E751EA0914D042A
:102D1000B0914E04E0E0F0E0CC24DD2447C0A615DD
:102D2000B705A9F5CD91DC911197CE0102968A15D0
:102D30009B0568F1CE018A199B09029612962C9187
:102D4000129713963C91059758F0F4012283338330
:102D5000CA19DB09D183C083D7016D937C9309C065
:102D60004E5F5F4F4C0F5D1FF70151834083C901D8
:102D7000FC01C114D10431F0D6011396FC93EE93FB
:102D800012974EC0F0934E04E0934D0449C08D91CC
:102D90009C911197E817F90708F4FC016D01129650
:102DA0008C91129713969C919C01D901109709F070
:102DB000B6CF80914B0490914C0486159705E9F4A9
:102DC000E617F707D0F420915A0130915B012115E5
:102DD000310541F42DB73EB78091560190915701CE
:102DE000281B390B82169306C8F490924C048092EB
:102DF0004B04F7017183608313C0CB010E940A1555
:102E0000EC01009759F0D7014D915C91B8010E94F7
:102E1000FC01C8010E94A7158E0102C000E010E06D
:102E2000C801DF91CF911F910F91FF90EF90DF903C
:102E3000CF90BF90AF909F908F907F906F900895AC
:102E4000629FD001739FF001829FE00DF11D649F8E
:102E5000E00DF11D929FF00D839FF00D749FF00D1A
:102E6000659FF00D9927729FB00DE11DF91F639FBB
:102E7000B00DE11DF91FBD01CF0111240895A1E29C
:102E80001A2EAA1BBB1BFD010DC0AA1FBB1FEE1FE4
:102E9000FF1FA217B307E407F50720F0A21BB30B2F
:102EA000E40BF50B661F771F881F991F1A9469F7AB
:102EB00060957095809590959B01AC01BD01CF0107
:102EC000089597FB092E05260ED057FD04D0D7DFB5
:102ED0000AD0001C38F450954095309521953F4F0D
:102EE0004F4F5F4F0895F6F79095809570956195D7
:102EF0007F4F8F4F9F4F0895EE0FFF1F0590F49166
:102F0000E02D09942F923F924F925F926F927F92A1
:102F10008F929F92AF92BF92CF92DF92EF92FF92E9
:102F20000F931F93CF93DF93CDB7DEB7CA1BDB0B95
:102F30000FB6F894DEBF0FBECDBF09942A8839883A
:102F400048885F846E847D848C849B84AA84B98441
:102F5000C884DF80EE80FD800C811B81AA81B9814D
:102F6000CE0FD11D0FB6F894DEBF0FBECDBFED0161
:102F7000089512E0C0EED2E004C0FE010E947E1768
:0C2F80002296C23ED107C9F7F894FFCF9B
:102F8C00000A5B0070636153657269616C003130DB
:102F9C002E3100545820004C2000522000203A20A2
:102FAC0000203420003078003E20465245512073DA
:102FBC00657420746F3A20003E2046524551003A09
:102FCC0020004F4B00203F00235052455120000160
:102FDC0000000002FEA680004F040000000000006C
:0C2FEC000711AC119D10CE10AE10F710B4
:00000001FF
