:100000000C9476000C94860D0C945F0D0C949E005D
:100010000C949E000C949E000C949E000C949E00E8
:100020000C949E000C949E000C949E000C949E00D8
:100030000C949E000C94130E0C949E000C949E0045
:100040000C94150D0C949E000C94270C0C94010C30
:100050000C949E000C949E000C949E000C949E00A8
:100060000C949E000C949E00556E737570706F72A8
:1000700074656420636F6D6D616E640020557365F7
:10008000206F6E65206F66200000000008000201EE
:10009000000003040700000000000000003B4D4387
:1000A0003D003B4D553D004D533D000000000025F7
:1000B0000028002B0000000000240027002A000474
:1000C00004040404040404020202020202030303FF
:1000D00003030301020408102040800102040810F9
:1000E0002001020408102000CB18BF1811241FBEE5
:1000F000CFEFD8E0DEBFCDBF11E0A0E0B1E0E0EC93
:10010000F3E402C005900D92AC39B107D9F724E0B1
:10011000ACE9B1E001C01D92A435B207E1F710E0EF
:10012000C5E7D0E004C02197FE010E94B419C4378E
:10013000D107C9F70E949D110C94D3210C940000A3
:100140000E949E1B2F923F924F925F926F927F92DE
:100150008F929F92AF92BF92CF92DF92EF92FF92D7
:100160000F931F93CF93DF93CDB7DEB7AF970FB643
:10017000F894DEBF0FBECDBF8091E703811106C0AA
:100180008091B103883210F40C94E7091092B40303
:1001900060E080E00E94E70F8090D803882D90E017
:1001A0009C01215031093E8F2D8F8091C403909185
:1001B000C503A091C603B091C7038F8B988FA98FF9
:1001C000BA8F9091B1039B8FF12C8F2D90E0ED8D24
:1001D000FE8D8E179F070CF0AFC0FC01E955FD4F57
:1001E0009F012C5F3F4F4481442309F4A3C0EE24B8
:1001F000E394EF0C880F991FDC01A853BC4FBA8B16
:10020000A98B3E8B2D8BE81408F094C02E2C312C3A
:10021000F101E955FD4F9480992009F489C0E989DD
:10022000FA89A080B180F101EE0FFF1FE853FC4F67
:1002300000811181C8018A259B25990F880B982F71
:10024000892B09F075C0B80117FF04C0662777270E
:10025000601B710B072E000C880B990B0E945A2013
:100260002F89388D498D5A8D0E94B9202B013C0170
:100270006801CA18DB08D7FE03C0D194C194D10825
:1002800020E030E040E05FE3C301B2010E94B9200A
:100290009B01AC01C301B2010E94BB190E94991AD3
:1002A0006C157D050CF444C0E3EBF2E08E2F23EBDC
:1002B00032E0821B3B8D831730F480818E1101C0A8
:1002C000F0823196F3CFAD89BE89DC90492D50E0A4
:1002D000ED2DF0E09F01D5010E94AD19049F900122
:1002E000059F300D149F300D11248901330F220B0F
:1002F000330B600F711F821F931FE40FF51F9F01C7
:10030000FF0F440B550B0E948E19E989FA8931833E
:1003100020839D0CAD89BE899C92F101E955FD4F6A
:100320001482F101EE0FFF1FE853FC4F118210827F
:10033000E39469CFF39449CF60E080E00E94E70F37
:100340008FEF8093A7026090D8037090B10358ECB0
:10035000C52E53E0D52E00E010E0EE24EA94FE2CEA
:10036000872C912CA12CB12C061508F059C0FFEF59
:10037000EF16FF0611F5D6018D919C9197FD1DC0DA
:10038000F801E955FD4F648170E080E090E00E9443
:100390005A201B012C01C501B4010E945A202BE7F1
:1003A00034E14EE25EE30E94B9209B01AC01C20140
:1003B000B1010E94CF1A181664F1F6018081918173
:1003C00097FD28C0F701EE0FFF1FE853FC4F208177
:1003D000318182179307F4F4F801E955FD4F6481E8
:1003E00070E080E090E00E945A201B012C01C501C2
:1003F000B4010E945A202BE734E14EE25EE30E94F2
:10040000B9209B01AC01C201B1010E94CF1A18169C
:100410000CF478010F5F1F4FF2E0CF0ED11CA4CF78
:100420002FEFE216F20641F0E092A70281E090E0A1
:100430009093BB038093BA038091BA039091BB035E
:10044000019709F074C04FEF460DE091A7020E2E00
:10045000000CFF0B072D10E0480131E0831A9108D2
:10046000CF01880F991FDC01A853BC4F7D0137E0F5
:10047000632E085211094F3F09F457C0C42E042EB1
:10048000000CDD08D601AA0FBB1FA853BC4F2D914D
:100490003C9137FF48C03195219531092836B2E4A7
:1004A0003B070CF040C0D701AD90BC90C901B5012D
:1004B0000E94441968327105B0F56A9CC0016B9CBA
:1004C000900D11248217930770F5D601A955BD4FE1
:1004D00014968C918250863030F550E0852F90E054
:1004E0008815990584F4DC01A955BD4F1D962C9102
:1004F0001D9730E02C153D05A1F41C962C9130E0A1
:100500002E173F0771F4801791076CF44093DA03BC
:1005100082E090E09093BB038093BA035093B203C0
:1005200006C05F5FDBCF4150A6CF4093DA038091D6
:10053000AA02882309F427C18091BA039091BB03D2
:10054000029709F020C1B7E2B71508F01CC18091ED
:10055000B20392E0980F9093B3036091DA03062EF2
:10056000000C770BA091A7020A2E000CBB0B472DA5
:1005700050E041505109292F30E024173507A4F4E9
:10058000F901E955FD4F258530E02617370751F46D
:10059000248530E02A173B0729F491509093B30348
:1005A00011E005C09E5FE7CF9093B30310E09091F8
:1005B000B303791610F47092B3036091B3030E94F1
:1005C000E70F112351F08091B30390E02091B20323
:1005D000821B9109889734F4CFC08091B1038E3F7C
:1005E00008F0B8C066E671E08BED93E00E941C1144
:1005F00066E671E081EE93E00E941C1162E08BEDF3
:1006000093E00E94CF1067E671E08BED93E00E94CB
:10061000E2106BE38BED93E00E94CF1010E080912D
:10062000D803181778F5212F30E0C901880F991FDA
:10063000FC01E853FC4F7F0180819181892B01F1FE
:10064000F901E955FD4F84818823D1F060E58BEDF8
:1006500093E00E94CF10812F0E94C10F65E971E0E5
:100660008BED93E00E94E210D7016D917C918BEDB0
:1006700093E00E949F106BE38BED93E00E94CF10FC
:100680001F5FCDCF6AE671E08BED93E00E94E21030
:100690006BE381EE93E00E94CF106DE671E081EE96
:1006A00093E00E94E2106091A702062E000C770BE7
:1006B00081EE93E00E949F106BE381EE93E00E9435
:1006C000CF1061E771E081EE93E00E94E21060914B
:1006D000DA03062E000C770B81EE93E00E949F1048
:1006E0006BE381EE93E00E94CF108091B6038823E4
:1006F00059F065E771E081EE93E00E94E2106BE350
:1007000081EE93E00E94CF1063E081EE93E00E94BF
:10071000CF106AE081EE93E00E94CF100091B30306
:100720001091B2038BED93E00E94B60E011768F0B2
:10073000E12FF0E0E955FD4F648570E080E090E046
:100740004AE00E94E70E1F5FF1CF81EE93E00E9426
:10075000B60E16C06091B203623070F08091B303A0
:1007600090E08D3F910544F087EA92E00E94FC0DF5
:1007700081E08093B50307C087EA92E00E94BD0D37
:1007800081E08093B4038091B403811120C68091ED
:10079000A802811105C08091A902882309F417C617
:1007A00066E671E08BED93E00E941C1166E671E055
:1007B00081EE93E00E941C1162E08BED93E00E94B9
:1007C000CF10B091A902BF8BBB2309F453C5809110
:1007D000F301811148C082E38093E70181E08093B7
:1007E000E4011092E5018FEA91E00E94AD0D809145
:1007F000E40127E030E0281B31099091E50187E012
:1008000061E070E0482F50E0241735074CF4AB014D
:10081000082E01C0440F0A94EAF7942B8150F2CFBE
:100820009093E5018FEF8093EA018093EB01809331
:10083000EC018093ED011092F1011092F20187EA30
:1008400092E09093E9018093E8011092EF011092F9
:10085000EE0184E18093F0018FEA91E00E94AD0DFA
:1008600081E08093F3018091E70381111BC08FEF3A
:100870008093EA018093EB018093EC018093ED017A
:100880001092F1011092F2011092EF011092EE011C
:1008900084E18093F0018FEA91E00E94AD0D81E147
:1008A0008093F0018091E703882381F08091E80133
:1008B0009091E901FC01E25FFE4F108233971082B4
:1008C000E12C912CF12CCC24C394D1C12090E801CF
:1008D0003090E901F101EF5CFE4F1081143008F413
:1008E000BEC4B797608170E080E090E00E945A201B
:1008F0002AE037ED43E25DE30E94B9206B017C0101
:1009000020E030E0A9010E94CF1A20E030E040E072
:100910005FE387FD05C0C701B6010E94BB1904C093
:10092000C701B6010E94BA190E94991A7101E4E048
:10093000EE0EF11CD101AF5DBE4FC12C40E0F701BE
:1009400081917F01861758F15C2D852F90E055230A
:10095000F1F0FE01E80FF91F70819101270F311DA1
:10096000270F311DF901EF5DFE4F2D913C9111973D
:100970000190F081E02D2E173F074CF4E1E0F0E00C
:10098000EC0FFD1FE80FF91F70835150DECFE1E03F
:10099000F0E0EC0FFD1FE80FF91F4083C3944F5F99
:1009A00012964113CCCF1091EA010091EC01E09036
:1009B000EB01F090ED019E012F5F3F4F388B2F87A9
:1009C0003E8F2D8F5F855DA7C101865F9E4F9FA7DC
:1009D0008EA78D8D2F85821B8C1508F091C0AD8D53
:1009E000BE8D2D91BE8FAD8FC101820F911D820FE3
:1009F000911DFC01EF5DFE4F208131813C8F2B8FDB
:100A00001216130634F7220F331F38A72FA3AE0197
:100A10004F5F5F4F5CA34BA31FEF0FEFEE24EA94F1
:100A2000FF24FA941A8A198A19A21AA28FEF9FEF4B
:100A30009E8B8D8B2B8D3C8D032E000C440B550B08
:100A400029A73AA74BA75CA78BA1FDA58F1B8C15E7
:100A500008F0BFCFABA1BCA1DD90BCA3ABA3ED2D33
:100A6000F0E0F8A3EF8FEE0FFF1FE20DF31DEF5D37
:100A7000FE4F8080918069A57AA58BA59CA50E94D8
:100A80005A202B013C019EA28DA297FE06C0222770
:100A90003327281939093EA32DA3AB8CBC8C4DA15B
:100AA0005EA1A41AB50AB7FE03C0B194A194B1081F
:100AB00020E030E040E05FE3C301B2010E94B920D2
:100AC0000E94991A6A157B050CF046C3AFA0B8A422
:100AD0008DA19EA1A81AB90AB7FE03C0B194A19432
:100AE000B1082DEC3CEC4CE45FE3C301B2010E9481
:100AF000B9200E94991A6A157B050CF071C4A4CF25
:100B0000F092ED01E092EB010093EC011093EA0109
:100B1000A6C3D394D71408F0E5C0F801ED0DF11D7C
:100B2000848590E08417950709F0F3C48F8862E00C
:100B300070E0260E371E882061F3DF10FDC4DD2033
:100B400009F4FAC443859801240F311D240F311D87
:100B5000F901EF5DFE4F20813181B90137FF04C0FB
:100B600066277727621B730B61304DE774070CF023
:100B7000E3C4880F991F800F911FFC01EF5DFE4FAA
:100B80008081918182279327990F880B982F892B39
:100B900009F4D2C4072E000C880B990B0E945A202E
:100BA0002B013C016091EE017091EF01072E000CCA
:100BB000880B990B0E945A20698B7A8B8B8B9C8BAC
:100BC0009B01AC01C301B2010E94271A4B015C01D9
:100BD00020E030E0A9010E94CF1A20E030E040E0A0
:100BE0005FE387FD9AC4C501B4010E94BB190E944E
:100BF000991A623071050CF49FC4072E000C880B03
:100C0000990B0E945A2029893A894B895C890E9454
:100C1000B9209B01AC01C301B2010E94271A9B01BC
:100C2000AC0160E070E080E89FE30E94BA194B01DC
:100C30005C0120E030E0A9010E94CF1A18160CF0E8
:100C400071C429E23CE54FE85DE3C501B4010E94AF
:100C5000532018160CF470C4F801E55FFE4F808134
:100C600081508083FF24F394FD0C99249394009188
:100C7000E8011091E901F801E65FFE4F9081F91655
:100C800008F081C08091F10181112CC0F801EF0DB5
:100C9000F11D848590E04091EA01042E000C550B73
:100CA000A091EC012091EB01A090ED018417950734
:100CB00009F418C4622F022E000C770B86179707D1
:100CC00009F410C46A2F0A2E000C770B86179707B9
:100CD00009F408C46A2D0A2C000C770B86179707B5
:100CE00009F400C48091F201882309F44AC080917C
:100CF000F101882309F445C0AF2CB12CF801EA0DAD
:100D0000FB1D848590E02091EC01022E000C330B3A
:100D10008217930709F46FC32091ED01022E000C96
:100D2000330B8217930709F466C32091EA01022E60
:100D3000000C330B8217930709F4B7C32091EB0122
:100D4000022E000C330B8217930709F4AEC3809177
:100D5000F001082E000C990B2091E2013091E30183
:100D60002817390708F04DC01092F1011092F201D6
:100D70008FEA91E00E94AD0D912C8091F1018111DB
:100D80003DC3F39474CFD801A45FBE4F81E0982691
:100D90008F2D89198C932EEFF21249C09E3F09F0D6
:100DA00046C011976C916230F0F08091F00187FDA0
:100DB0008F5F8595082E000C990B2091E2013091F0
:100DC000E3018217930778F4C8010E94FC0D80911B
:100DD000E8019091E901FC01E25FFE4F21E02083F0
:100DE000F29620833CC28C91811121C0D801A05C75
:100DF000BE4F81E08C931082F801E25FFE4F80834A
:100E00002EC2F801E45FFE4FEE24E3949E248F2D62
:100E1000891980836F2DC8010E94FC0DE091E801C3
:100E2000F091E901E25FFE4FE0821092F1018091C2
:100E3000F001082E000C990B2091E2013091E301A2
:100E40002817390708F40BC266E671E0CE0109964F
:100E50000E9442116AE671E0CE0109960E941C11BF
:100E600080E390E3A0E089839A83AB836091E20101
:100E70007091E30176956795769567956E5F7F4FE4
:100E8000CE0109960E944A10D12C8E010F5F1F4F90
:100E900067E7A62E61E0B62E4091E10150E02D2DCE
:100EA00030E08091E701ED2C0D2C000CFF0890E064
:100EB00024173507F4F4E816F9062CF4F701E15588
:100EC000FE4F808101C08FEF1F928F93BF92AF9230
:100ED0001F930F930E94EE1BB801CE0109960E944A
:100EE000E210D3940F900F900F900F900F900F90EF
:100EF000D3CFE816F9062CF4F701E155FE4F8081B7
:100F000001C08FEF82958F701F928F938CE791E0D5
:100F10009F938F931F930F930E94EE1BB801CE01F6
:100F200009960E94E2108091E2019091E30187709E
:100F3000992701970F900F900F900F900F900F909F
:100F4000049710F18091E70190E0E816F9062CF47F
:100F5000F701E155FE4F808101C08FEF8F701F9226
:100F60008F938CE791E09F938F931F930F930E9431
:100F7000EE1BB801CE0109960E94E2100F900F906F
:100F80000F900F900F900F9061E871E08BED93E060
:100F90000E94E2106BE38BED93E00E94CF1060E2C1
:100FA00070E08BED93E00E944A108BED93E0009788
:100FB00009F472C064E871E00E94E2108091E801D7
:100FC0009091E901E091EA01EE0FFF0BE80FF91FA4
:100FD000EF5DFE4F608171818BED93E00E949F1069
:100FE0006BE38BED93E00E94CF1068E871E08BED2E
:100FF00093E00E94E2108091E8019091E901E09174
:10100000EB01EE0FFF0BE80FF91FEF5DFE4F608164
:1010100071818BED93E00E949F106BE38BED93E069
:101020000E94CF106CE871E08BED93E00E94E2101B
:101030008091E8019091E901E091EC01EE0FFF0B46
:10104000E80FF91FEF5DFE4F608171818BED93E03A
:101050000E949F106BE38BED93E00E94CF1060E93C
:1010600071E08BED93E00E94E2108091E801909195
:10107000E901E091ED01EE0FFF0BE80FF91FEF5DC5
:10108000FE4F608171818BED93E00E949F106BE3B6
:101090008BED93E00E94CF106BE381EE93E00E9412
:1010A000CF1067E070E081EE93E00E944A1081EE7D
:1010B00093E0009789F064E971E00E94E21060918A
:1010C000EE017091EF0181EE93E00E949F106BE3BF
:1010D00081EE93E00E94CF1065E871E081EE93E02D
:1010E0000E94E2104AE0B8018091E2019091E30190
:1010F0000E942920F80101900020E9F73197AF0103
:10110000401B510BB80181EE93E00E9471106BE31C
:1011100081EE93E00E94CF1063E081EE93E00E94A5
:10112000CF106AE081EE93E00E94CF108BED93E048
:101130000E94B60ECE0109960E94B60E81EE93E093
:101140000E94B60E1092E70381E08093B403CE01B3
:1011500009960E943D118EC0181419040CF0AAC102
:10116000FD2CEF8DF8A1E20DF31D8481A989BA89C8
:10117000A80FB11DBA8BA98BBAA1BF5FBAA3ED8925
:10118000FE89E80DF91DFE8BED8B1F3F09F45CCC49
:101190000F3F09F459CC5FEFE51609F455CCF5166D
:1011A00009F452CC89889A8897FE03C0919481945F
:1011B0009108092C000CAA08BB08AEA5BFA56C912C
:1011C00070E080E090E00E945A202AE037ED43E290
:1011D0005DE30E94B9202B013C0120E030E0A90131
:1011E0000E94CF1A20E030E040E05FE387FDFEC0C0
:1011F000C301B2010E94BB190E94991A68157905B2
:101200008A059B050CF4E5CBB9A1EAA1BE13E1CB9D
:101210001E1509F4DECB0F1509F4DBCB101709F40A
:10122000D8CBEF1409F4D5CB1F1509F4D2CBE016B7
:1012300009F4CFCBF092ED01E092EB010093EC01C9
:101240001093EA018D899E8966E070E00E9458192A
:101250007093EF016093EE013F89311127CB8091AC
:10126000E703882339F08091B503882319F081E0E2
:101270008093B4038091A802882309F4A8C08091C8
:10128000BA039091BB03019709F0A1C08091B40308
:1012900081119DC08091B103883208F498C067E93C
:1012A00071E08BED93E00E94E2106BE38BED93E035
:1012B0000E94CF1010E08091D803181788F5212FD5
:1012C00030E0C901880F991FAC0148535C4F7A0187
:1012D000DA018D919C91892B09F1F901E955FD4FB6
:1012E00084818823D9F06AE971E08BED93E00E9454
:1012F000E210812F0E94C10F65E971E08BED93E050
:101300000E94E210F701608171818BED93E00E94F1
:101310009F106BE38BED93E00E94CF101F5FCBCF4C
:101320006AE671E08BED93E00E94E2106BE381EEE0
:1013300093E00E94CF106DE671E081EE93E00E9491
:10134000E2106091A702062E000C770B81EE93E06D
:101350000E949F106BE381EE93E00E94CF1080917A
:10136000B603882359F065E771E081EE93E00E94AF
:10137000E2106BE381EE93E00E94CF1063E081EE18
:1013800093E00E94CF106AE081EE93E00E94CF10BC
:101390000091B10301508BED93E00E94B60E10E076
:1013A000E12FF0E0E955FD4F648570E080E090E0CA
:1013B0004AE00E94E70E1F5F011790F781EE93E06D
:1013C0000E94B60E1092B50381E08093B403809121
:1013D000B5038111C6C087EA92E00E94BD0DC1C06D
:1013E000181419040CF07CC0ED2CBBCEC301B20163
:1013F0000E94BA1901CFE92C9C24BFCCEE2009F43D
:10140000C0CC8091E8019091E901FC01EA0DFB1D3F
:101410002485820F911D820F911DFC01EF5DFE4F0F
:1014200040815181E091E1018091E701E817D8F511
:101430008091E6012091E2013091E301873051F47F
:101440002115310539F0EF5FE093E101F0E0E1555E
:10145000FE4F1082E091E101F0E0A82FB0E0E155ED
:10146000FE4F61E070E01416150614F060E070E0C5
:10147000082E01C0660F0A94EAF79081692B6083F9
:101480002F5F3F4F3093E3012093E2019091E401FD
:10149000A91BB109B7FD04C0891B8093E60103C0F5
:1014A000E7E0E093E601E12C6CCCEE24E394992490
:1014B000939463CC0D2DEF8DF8A1E20DF31D848183
:1014C00029893A89281B31093A8B298B39A13F5F39
:1014D00039A34D895E89481959095E8B4D8B55CECC
:1014E0001D2DE9CFF801E55FFE4FF082C092F101BA
:1014F000C092F20131977080022E000C330B0A2E3D
:10150000000CBB0B0A2C000CBB08DF2C212C312C4F
:1015100001CB82179307D1F409CBC501B4010E9416
:10152000BA1965CB29E23CE54FE85DEBC501B40192
:101530000E94CF1A87FF90CB51E025223324C101AE
:10154000A1E08A27B82FB1709B2ECCCB8A179B07BE
:1015500021F08A159B0509F0C5CB812C61E070E074
:10156000E8CAAF960FB6F894DEBF0FBECDBFDF91CD
:10157000CF911F910F91FF90EF90DF90CF90BF9090
:10158000AF909F908F907F906F905F904F903F9023
:101590002F900895FC01918D828D981761F0828DB6
:1015A000DF01A80FB11D5D968C91928D9F5F9F7397
:1015B000928F90E008958FEF9FEF0895FC01918D39
:1015C000828D981731F0828DE80FF11D858D90E0A6
:1015D00008958FEF9FEF0895FC01918D228D892F43
:1015E00090E0805C9F4F821B91098F73992708952B
:1015F00080E092E00E94EC0A21E0892B09F420E0CF
:10160000822F0895FC01848DDF01A80FB11DA35A1C
:10161000BF4F2C91848D90E001968F739927848F12
:10162000A689B7892C93A089B1898C9180648C9309
:10163000938D848D981306C00288F389E02D8081F4
:101640008F7D80830895EF92FF920F931F93CF9326
:10165000DF93EC0181E0888F9B8D8C8D981305C002
:10166000E889F989808185FD24C0F62E0B8D10E074
:101670000F5F1F4F0F731127E02E8C8DE8120CC0E7
:101680000FB607FCFACFE889F989808185FFF5CF8D
:10169000CE010E94020BF1CF8B8DFE01E80FF11DF0
:1016A000E35AFF4FF0820B8FEA89FB8980818062C9
:1016B00007C0EE89FF896083E889F98980818064A9
:1016C000808381E090E0DF91CF911F910F91FF9097
:1016D000EF900895CF93DF93EC01888D8823C9F0B4
:1016E000EA89FB89808185FD05C0A889B9898C912B
:1016F00086FD0FC00FB607FCF5CF808185FFF2CFC6
:10170000A889B9898C9185FFEDCFCE010E94020B8B
:10171000E7CFDF91CF910895089508952091A20118
:10172000E6E9F0E09491E0EEF0E08491ECECF0E09A
:10173000E491EE2309F43BC0992339F1933091F001
:1017400038F49130A9F0923001F594B59F7D12C024
:10175000973091F09830A1F09430B9F490918000D6
:101760009F7D03C0909180009F77909380000DC073
:1017700094B59F7794BD09C09091B0009F7703C046
:101780009091B0009F7D9093B000F0E0EE0FFF1FAE
:10179000E555FF4FA591B4919FB7F894EC912111B5
:1017A00003C080958E2301C08E2B8C939FBF109217
:1017B000A2010895CF93C1E080E092E00E94EC0A7C
:1017C000892BB9F080E092E00E94CA0A8A3041F089
:1017D0001CF4882329F007C08D3011F0833219F4EE
:1017E000C093A301E9CF682F81EA92E00E94CF1055
:1017F000E3CFCF9108950E94F80A81110C94DA0B7F
:1018000008951F920F920FB60F9211242F933F93BA
:101810004F935F936F937F938F939F93AF93BF93F8
:10182000EF93FF9380E092E00E94020BFF91EF9113
:10183000BF91AF919F918F917F916F915F914F91E8
:101840003F912F910F900FBE0F901F9018951F92F0
:101850000F920FB60F9211242F938F939F93EF93B4
:10186000FF93E0911002F09111028081E091160245
:10187000F091170282FD12C09081809119028F5F52
:101880008F7320911A02821751F0E0911902F0E053
:10189000E050FE4F958F8093190201C08081FF9127
:1018A000EF919F918F912F910F900FBE0F901F90EE
:1018B0001895CF93DF9390E0FC01ED52FF4F2491F8
:1018C000FC01E154FF4F8491882361F190E0880F7F
:1018D000991FFC01EB54FF4FC591D491FC01E555D4
:1018E000FF4FA591B491611109C09FB7F894888109
:1018F000209582238883EC912E230BC0623061F403
:101900009FB7F8943881822F809583238883EC9148
:101910002E2B2C939FBF06C08FB7F894E8812E2BF7
:1019200028838FBFDF91CF9108953FB7F8948091BE
:10193000FC019091FD01A091FE01B091FF0126B53F
:10194000A89B05C02F3F19F00196A11DB11D3FBFF7
:10195000BA2FA92F982F8827820F911DA11DB11D85
:10196000BC01CD0142E0660F771F881F991F4A9581
:10197000D1F70895CF92DF92EF92FF920F931F93CA
:101980000E94950C00919D0210919E0220919F0251
:101990003091A0026B017C01C01AD10AE20AF30A5D
:1019A0009701860160939D0270939E0280939F022F
:1019B0009093A0020A3511052105310578F181E0E7
:1019C000C8168DE7D806E104F10410F4960102C0B0
:1019D00021E03DE74A9B03C0319521953109809173
:1019E000E9038233D8F48091E9038F5F8093E903A0
:1019F0008091EA036091E8030E9438199093EA030A
:101A0000E091EA03F0E0EE0FFF1FE451FC4F318359
:101A100020838091EA038F5F8093EA031F910F91E7
:101A2000FF90EF90DF90CF9008951F920F920FB626
:101A30000F9211242F933F938F939F93AF93BF9354
:101A400080919E0190919F01A091A001B091A10170
:101A50003091FB0123E0230F2D3720F40196A11DC7
:101A6000B11D05C026E8230F0296A11DB11D2093CC
:101A7000FB0180939E0190939F01A093A001B093DE
:101A8000A1018091FC019091FD01A091FE01B09116
:101A9000FF010196A11DB11D8093FC019093FD01F2
:101AA000A093FE01B093FF01BF91AF919F918F91E1
:101AB0003F912F910F900FBE0F901F9018951F927E
:101AC0000F920FB60F9211242F933F934F935F9372
:101AD0006F937F938F939F93AF93BF93EF93FF93F6
:101AE000E0910501F09106010995FF91EF91BF91F9
:101AF000AF919F918F917F916F915F914F913F91A6
:101B00002F910F900FBE0F901F9018951F920F925C
:101B10000FB60F9211242F933F934F935F936F93C0
:101B20007F938F939F93AF93BF93EF93FF93E09136
:101B30000301F09104010995FF91EF91BF91AF91DD
:101B40009F918F917F916F915F914F913F912F91D5
:101B50000F900FBE0F901F901895FC0180AD2E2F97
:101B6000DF019A2F921B981710F41D92FACF12AA38
:101B700014AA13AA87E087AB0895CF93DF93FC01E3
:101B8000E65FFE4F1082DC01AF5CBE4F1C92B89640
:101B90001082B0971082319611821082B0962FEF8A
:101BA0002083FC012083EF5DFE4FEC01249611920F
:101BB00011921992EA17FB07D1F7FC01E35FFE4F80
:101BC0001082339626E930E0318320833D964DEC38
:101BD0005CEC6CE47EE34083518362837383729791
:101BE00010823396108231961082F1961082F4970B
:101BF0001082DF91CF910895FC01E65FFE4F408196
:101C0000A42FB0E0262F30E02A173B075CF4461BD8
:101C1000408350E0B901645F7F4F680F791F0C96D5
:101C20000C94AC1B08951F920F920FB60F921124C3
:101C30002F933F934F935F936F937F938F939F93D4
:101C4000AF93BF93EF93FF93E0919C01F0919D01BF
:101C50000995FF91EF91BF91AF919F918F917F91E6
:101C60006F915F914F913F912F910F900FBE0F9009
:101C70001F901895CF93DF9387EA90E00E94640F3E
:101C8000C7EAD2E08B8190E00E94850F82EA90E063
:101C90000E94640F898190E00E94850F8DE990E099
:101CA0000E94640F8A8190E0DF91CF910C94330FF2
:101CB0002B9A2091000130910101482F429FC001D1
:101CC000439F900D11248230910538F0880F991FA1
:101CD000880F991F05970197F1F72B982091000124
:101CE00030910101629FC001639F900D11248230E9
:101CF000910538F0880F991F880F991F0597019754
:101D0000F1F70895E8988CE89BE0909304018093A4
:101D1000030108958AEB9CE09093040180930301F2
:101D2000E9E6F0E080818C7F81608083E89A089505
:101D3000CF93DF93EC01FB01248135810E94571181
:101D4000CE01DF91CF910895009769F0FC010190D9
:101D50000020E9F73197AF01481B590BBC0180E027
:101D600092E00C94031080E090E00895FC0144811F
:101D700055816081718180E092E00C940310CF93D3
:101D8000DF930E94B60EEC0184E691E00E94A40E5F
:101D90008C0F9D1FDF91CF910895CF92DF92EF922C
:101DA000FF920E94950C6B017C010E94950CDC0156
:101DB000CB018C199D09AE09BF09883E9340A1054E
:101DC000B10598F3FF90EF90DF90CF9008958F9238
:101DD0009F92AF92BF920F931F93CF93DF93CDB794
:101DE000DEB7A1970FB6F894DEBF0FBECDBF19A224
:101DF000423008F44AE08E010F5D1F4F842E912C73
:101E0000A12CB12CA50194010E946C19E62FB901F7
:101E1000CA0101501109EA3014F4E05D01C0E95C27
:101E2000D801EC93232B242B252B61F7C8010E94AA
:101E3000A40EA1960FB6F894DEBF0FBECDBFDF9102
:101E4000CF911F910F91BF90AF909F908F90089569
:101E5000E0910002F09101020190F081E02D682FE5
:101E600080E092E00994CF92DF92EF92FF92CF93BD
:101E7000DF936C01990FEE08FF08F7FE12C08DE2A8
:101E80000E94280FEC0166277727CB016C197D098A
:101E90008E099F094AE00E94E70E7C01EC0EFD1EB0
:101EA00006C04AE0C701B6010E94E70E7C0184E645
:101EB00091E00E94A40E8E0D9F1DDF91CF91FF90A7
:101EC000EF90DF90CF9008950F931F93CF93DF9300
:101ED0008C01C0E0D0E0F801EC0FFD1F6491662397
:101EE00071F0E0910002F09101020190F081E02D8B
:101EF00080E092E00995892B11F02196ECCFCE017C
:101F0000DF91CF911F910F910895CF92DF92EF92C1
:101F1000FF92CF93DF936C01990FEE08FF08F7FE55
:101F200017C08DE20E94280FEC0166277727CB01AE
:101F30006C197D098E099F094AE00E94E70E8C0FFB
:101F40009D1FDF91CF91FF90EF90DF90CF9008958C
:101F50004AE0C701B601DF91CF91FF90EF90DF908B
:101F6000CF900C94E70ECF93DF930E94A40EEC0168
:101F700084E691E00E94A40E8C0F9D1FDF91CF910B
:101F800008950F931F93CF93DF9300D000D0CDB768
:101F9000DEB74AE08E010F5F1F4FB80190E00E944C
:101FA0000120F80101900020E9F73197AF01401BB3
:101FB000510BB8018BED93E00E9471100F900F90C0
:101FC0000F900F90DF91CF911F910F910895EBEA41
:101FD000F2E098E09E0F11929E13FDCF611102C0B6
:101FE0006091B103861768F4E82FF0E0E955FD4FE2
:101FF000E485F0E0E955FD4F94819F5F94838F5F06
:10200000F1CF08950895CF92DF92EF92FF920F9350
:102010001F93CF93DF936C017A018B01C0E0D0E076
:10202000CE15DF0589F0D8016D918D01D601ED91B6
:10203000FC910190F081E02DC6010995892B11F4E6
:102040007E0102C02196ECCFC701DF91CF911F9195
:102050000F91FF90EF90DF90CF900895FC01808169
:102060009181009711F00C94DA1F60E070E0CB01D1
:102070000895FC01248135816217730748F480813B
:102080009181009729F0FC01E60FF71F80810895E8
:1020900080E008950F931F93CF93DF93EC01888125
:1020A0009981009729F02A813B812617370788F408
:1020B0008B016F5F7F4F0E94D41A009761F0998364
:1020C00088831B830A832C813D81232B11F4FC011F
:1020D000108281E001C080E0DF91CF911F910F91CC
:1020E0000895EF92FF920F931F93CF93DF93FC011C
:1020F000248135816115710511F480E019C0411505
:102100005105A9F07B01EC018A01020F131FB801F0
:102110000E944A10882389F3288139818C819D810E
:10212000B701820F931F0E94BE1B1D830C8381E0A9
:10213000DF91CF911F910F91FF90EF900895EF9253
:10214000FF920F931F93CF93DF93CDB7DEB72897FE
:102150000FB6F894DEBF0FBECDBF7C01CB014AE0C5
:102160008E010F5F1F4FB8010E940120F8010190FE
:102170000020E9F73197AF01401B510BB801C701AF
:102180000E94711028960FB6F894DEBF0FBECDBF27
:10219000DF91CF911F910F91FF90EF900895CF9312
:1021A000DF9300D0CDB7DEB769831A8241E050E0FB
:1021B000BE016F5F7F4F0E9471100F900F90DF91F3
:1021C000CF9108956115710551F0FB010190002038
:1021D000E9F73197AF01461B570B0C94711080E063
:1021E0000895EF92FF920F931F93CF93DF93EC012B
:1021F0007B018A01BA010E944A102881398181112C
:102200000DC02115310519F0C9010E94241F198242
:1022100018821D821C821B821A8206C01D830C83B9
:10222000B701C9010E94BE1BCE01DF91CF911F9162
:102230000F91FF90EF900895CF93DF93EC0161151C
:10224000710559F0FB0101900020E9F73197AF01CA
:10225000461B570B0E94F1100CC088819981009792
:1022600011F00E94241F198218821D821C821B8279
:102270001A82CE01DF91CF910895FC018081918176
:102280000C94241FFC011182108213821282158289
:1022900014826115710551F0FB0101900020E9F7EE
:1022A0003197AF01461B570B0C94F1100895BF9264
:1022B000CF92DF92EF92FF920F931F93CF93DF9312
:1022C0007C016B018A01E9012417350720F4812F75
:1022D0008901C42FD82F66E671E0C7010E94421120
:1022E000D60114968D919C91159708171907D0F473
:1022F0008C179D0708F4EC01D601ED91FC91119724
:10230000EC0FFD1FB08010824D915C91BA01600FFF
:10231000711FC7010E941C11D601ED91FC91EC0FB9
:10232000FD1FB082C701DF91CF911F910F91FF90E8
:10233000EF90DF90CF90BF900895CF93DF93CDB70C
:10234000DEB7C757D1090FB6F894DEBF0FBECDBFB9
:10235000789484B5826084BD84B5816084BD85B580
:10236000826085BD85B5816085BD80916E0081608C
:1023700080936E0010928100809181008260809332
:102380008100809181008160809381008091800034
:102390008160809380008091B10084608093B1005F
:1023A0008091B00081608093B00080917A00846059
:1023B00080937A0080917A00826080937A00809185
:1023C0007A00816080937A0080917A00806880939F
:1023D0007A001092C100E0911002F091110212E017
:1023E0001083E0911002F09111021082E0910C0232
:1023F000F0910D021082E0910E02F0910F0200E1C7
:10240000008310921802E0911402F091150286E008
:102410008083E0911202F0911302808180618083B9
:10242000E0911202F0911302808188608083E09134
:102430001202F0911302808180688083E091120281
:10244000F091130280818F7D808360E082E00E94A2
:10245000590C61E08BE00E94590C61E08DE00E9414
:10246000590C00938100109280001093A60188E11E
:1024700099E79093A5018093A4019093870080939E
:10248000860082E1809381008EE89BE090939D011D
:1024900080939C0181E080936F0080E090E00E9437
:1024A00077218B3099F481E090E00E947721982F7A
:1024B00091709093AA0281FB992790F99093A802BA
:1024C00082FB882780F98093A9020AC06BE080E034
:1024D00090E00E947F2167E081E090E00E947F21F0
:1024E0000E948A0E68E270E081EA92E00E944A103F
:1024F0009E012F5F3F4F19018091A301882309F4AA
:1025000090C41092A30160E070E081EA92E00E9422
:102510003910803539F48DE191E00E94B30F0E94AB
:10252000CD0E72C48F3309F045C00E94280F8CE78E
:1025300090E00E94640F86E50E94280F80E20E94CE
:10254000280F89E60E94280F80E20E94280F82E56A
:102550000E94280F80E20E94280F84E70E94280F23
:1025600080E20E94280F88E50E94280F80E20E94E6
:10257000280F86E40E94280F80E20E94280F83E53E
:102580000E94280F80E20E94280F80E50E94280FF9
:1025900080E20E94280F83E40E94280F80E20E94BC
:1025A000280F87E40E94280F80E20E94280F86E609
:1025B00091E004C0863529F480E291E00E94B30FD7
:1025C00023C4823579F4809150049091510400978E
:1025D00011F484E594E0D101A81BB90BCD010E9450
:1025E000330F12C4893609F02DC161E070E081EA31
:1025F00092E00E943910843709F4A5C0823781F532
:1026000042E050E061EA72E0C1010E94980E8D81C3
:102610009E81009721F46C961FAE6C9716C00297AE
:1026200018F002E010E002C001E010E069817A8158
:10263000A801CE01855A9F4F0E94C51BEBE5F0E033
:10264000EC0FFD1FE00FF11F1082C1010E943D1130
:10265000CE01855A9F4F0E94BC1F8093020173C018
:10266000833709F05DC02B9A42E050E061EA72E0E6
:10267000CE01855A9F4F0E94980EA1960EAD1FADB8
:10268000A1970115110511F4198211C00732110526
:1026900010F007E210E06D966EAD7FAD6D97A8016A
:1026A000C1010E94C51BF101E00FF11F1082CE0194
:1026B000855A9F4F0E943D110E94820E00E010E05B
:1026C0008091020190E00817190734F56FE181E06D
:1026D0000E94580E7101F70181917F018823C9F092
:1026E000813371F0863449F08033A9F763E081E0EB
:1026F0000E94580E63E081E009C063E081E002C0FF
:1027000061E083E00E94580E61E083E00E94580E71
:10271000E2CF0F5F1F4FD4CF0E948A0E2B9813C0B9
:102720008336B1F442E050E061EA72E0C1010E94F8
:10273000980EC1010E942E10709301016093000158
:10274000C1010E943D1181EA92E00E94BF0E5CC36C
:10275000803709F059C366E671E0CE018F599F4F6B
:102760000E94421164E170E0CE018F599F4F0E9498
:102770004A1067E571E0CE018F599F4F0E941C11EE
:10278000809102016D961FAE1EAE6D976F961FAEC3
:102790001EAE6F97A1961FAE1EAEA1974AE0B10183
:1027A00090E00E942920B101CE01855A9F4F0E94DE
:1027B0001C11A1964EAD5FADA1976D966EAD7FAD2C
:1027C0006D97CE018F599F4F0E947110CE01855A8F
:1027D0009F4F0E943D1160E671E0CE018F599F4FDF
:1027E0000E94E21080910001909101016D961FAE50
:1027F0001EAE6D976F961FAE1EAE6F97A1961FAE61
:102800001EAEA1974AE0B1010E940120B101CE01A4
:10281000855A9F4F0E941C11A1964EAD5FADA197A6
:102820006D966EAD7FAD6D97CE018F599F4F0E9413
:102830007110CE01855A9F4F0E943D11CE018F59D4
:102840009F4F3BC2833509F040C266E671E0CE017E
:102850008F599F4F0E9442116EE170E0CE018F5957
:102860009F4F0E944A100E94820EE12CF12CFFEF34
:10287000A896FFAFA89721E0AE962FAFAE9731E0B4
:10288000E0963FAFE09732E1D32ECC24C39449E0E9
:10289000B42E52E0A52E62E671E0CE01855A9F4F1C
:1028A0000E9442118091A5029091A602E816F906B5
:1028B00098F48090A1029090A2026D966EAD7FADCB
:1028C0006D97C4018E0D9F1D0E94D41B009721F0AF
:1028D0008C010819190902C00FEF1FEFCE01855AAC
:1028E0009F4F0E943D110F3F2FEF120721F4AF962B
:1028F0001FAEAF970EC13FEFE316F306C1F3980189
:10290000A70161EA72E0CE01855A9F4F0E945711DC
:10291000A3968EAD9FADA3970097A9F06D966EAD6F
:102920007FAD6D976115710561F0A5964EAD5FADF8
:10293000A597A1962EAD3FADA1974217530708F07A
:10294000ECC30E94241F6D968EAD9FAD6D97A3962C
:102950009FAF8EAFA3976F968EAD9FAD6F97A596E5
:102960009FAF8EAFA597A1968EAD9FADA197A7966D
:102970009FAF8EAFA7976D961FAE1EAE6D976F96E9
:102980001FAE1EAE6F97A1961FAE1EAEA197CE01D1
:10299000855A9F4F0E943D1178018FEFE81AF80A7F
:1029A00060E070E0CE018F599F4F0E94391083354F
:1029B00059F561E070E0CE018F599F4F0E943910A8
:1029C000833409F462C08D3471F4A8968FADA89752
:1029D0008F5FA8968FAFA897F101D89EE00DF11DEB
:1029E0001124C28258CF823509F055CFA8962FAD59
:1029F000A8972F5FA8962FAFA897F101D29EE00D60
:102A0000F11D1124A28241C0803509F024C362E087
:102A100070E0CE018F599F4F0E9439108D3309F01D
:102A20003ACF22E030E041E050E0BE016F597F4FE5
:102A3000CE01855A9F4F0E945711CE01855A9F4F54
:102A40000E942E10162FCE01855A9F4F0E943D11D5
:102A500043E050E0BE016F597F4FCE01855A9F4F32
:102A60000E94980ECE01855A9F4F0E942E10A89664
:102A70006FACA897B69CF0011124E10FF11D3396BD
:102A8000EE0FFF1FE20DF31D40C3AE961FAEAE97D3
:102A900002CFA9967FACA997672C712CAB967FAE1D
:102AA0006EAEAB97A9963FADA99722E1329F700118
:102AB0001124F101EE0DFF1D82818230B9F182E116
:102AC000AB966EAC7FACAB97869DF001879DF00D09
:102AD0001124E20DF31D8281813009F46AC02B9824
:102AE000A9963FADA9973F5FA9963FAFA997A89632
:102AF0006FACA897631668F6AE967FACAE97711070
:102B00000E94CD0EAF962FADAF972F5FAF962FAF30
:102B1000AF97AF963FADAF97E0966FACE0973615A5
:102B200009F4C7C0A9961FAEA997B3CF26E0E20E5D
:102B3000F11CE20CF31C4480558003810E94950C2B
:102B40004B015C0110E04016510658F1B80181EAD2
:102B500092E00E9439108053F701E80FF11DE80F51
:102B6000F11D60807180630177FE04C0CC24DD24F8
:102B7000C618D7080E94950C681579058A059B052B
:102B8000C8F377FE02C02B9801C02B9AC601DD0C5A
:102B9000AA0BBB0B880E991EAA1EBB1E0F5F1F4FF0
:102BA000D2CF0E94950C681579058A059B05C8F35C
:102BB00086CFE080F1807480E1967FAEE19713814B
:102BC0000E94950C4B015C01C701FF0CAA0BBB0BCB
:102BD000AD968CAF9DAFAEAFBFAFAD97880F991FCD
:102BE000AA1FBB1FE5968CAF9DAFAEAFBFAFE597F9
:102BF000E1966FACE197611608F471CF612F70E038
:102C000081EA92E00E9439108A3314F097E301C000
:102C100090E3891B04E0C02ED12C08E0482F880FD8
:102C2000550B2401350120E0E02EF12CE422F522A1
:102C3000E114F10451F12B98AD968CAD9DADAEAD84
:102C4000BFADAD97480E591E6A1E7B1EE6962FAF8C
:102C5000E697E7964FAFE797E8965FAFE8970E9451
:102C6000950CE6962FADE697E7964FADE797E89679
:102C70005FADE897641575058605970538F3213033
:102C800031F021E0E114F104B1F22B9AD5CFE596B1
:102C90008CAD9DADAEADBFADE597880E991EAA1E59
:102CA000BB1E069591E0C91AD10809F0BACF1F5F83
:102CB0009FCF0E948A0E81EA92E00E94BF0ECE0151
:102CC0008F599F4F0E943D119FC08437C1F58FB728
:102CD000F894C0909E01D0909F01E090A001F090E8
:102CE000A1018FBFC701B60128EE33E040E050E0FC
:102CF0000E946C19CA01B9010091A9011091AA01A1
:102D00002091AB013091AC01C016D106E206F3066A
:102D100050F42091A7013091A8012F5F3F4F3093CD
:102D2000A8012093A701C092A901D092AA01E09224
:102D3000AB01F092AC014AE00E94E70E61C0883519
:102D4000B1F461E070E081EA92E00E9439108135CF
:102D500011F40E94820E61E070E081EA92E00E942C
:102D60003910853409F050C00E948A0E4DC0863457
:102D700009F44AC08334F1F561E070E081EA92E041
:102D80000E943910182F873419F40E943A0E3CC063
:102D900062E070E081EA92E00E943910833539F0F8
:102DA000853541F0833449F4E9EAF2E008C0EAEA03
:102DB000F2E005C0E8EAF2E002C0E0E0F0E015343D
:102DC00019F481E0808303C01434F1F410828091FF
:102DD000A802682F660F9091A90224E0929FC0017B
:102DE0001124862B6091AA02682B81E090E00E945A
:102DF0007F210AC0873449F288E690E00E94640F80
:102E000084E691E00E94A40E8091A301811106C086
:102E100066E671E081EA92E00E941C1181E08093F5
:102E2000A201AA24A394B3E0CB2ED12C8091E90374
:102E3000882309F40DC18091E90381508093E9034F
:102E40008091EB036091E8030E9438199093EB03A3
:102E5000E091EB0381E08E0F8093EB03F0E0EE0F47
:102E6000FF1FE451FC4F808191819093AE018093CC
:102E7000AD011092B403E091B103EE2369F0F0E0EC
:102E8000E955FD4F838590E0880F991F88539C4F2B
:102E90009093C3038093C2032091AD013091AE01A2
:102EA000E091C003F091C103318320838091B1038D
:102EB000882369F0E091C203F091C30340815181FE
:102EC00042275327452F441F4427441F01C041E098
:102ED00051E0211533480CF450E091E08E3F09F4A5
:102EE00090E0952311F0411109C091E08E3F09F067
:102EF00090E09093B6030E94A20006C0883221F4AD
:102F0000D092BB03C092BA03E090C003F090C1031B
:102F1000D7010D911C91B80117FF04C066277727D0
:102F2000601B710B072E000C880B990B0E945A2016
:102F30002DEC3CEC4CE45EE30E94B9200E94A01A08
:102F4000AB017093B8036093B7036091D803E8ECCA
:102F5000F3E0B12CB616D9F0819191919C01202714
:102F60003127330F220B322F232B79F4009769F08E
:102F70003801681A790AC30177FE03C091958195DB
:102F80009109481759070CF0D3C0B394E3CF6830C8
:102F900041F560E080E00E94E70FE091D803F0E0A7
:102FA000E955FD4F8481833010F00E94A2006091AA
:102FB000B10370E0615071098091D90316161706AC
:102FC00084F4FB01E955FD4F9485981307C06F5FAA
:102FD0007F4F87EA92E00E94FC0D03C061507109A7
:102FE000EDCFB090D903E091C003F091C10380818F
:102FF0009181EB2DF0E0EE0FFF1FE853FC4F918322
:10300000808381E08B0D883019F08093D90306C04E
:103010001092D9038093D8031092E7038091D903CB
:103020009091D803981710F48093D8038091B1033E
:10303000E82FF0E0E955FD4FB4868F5F8093B10330
:103040008091B403882309F4F1CEA092A201EECEC0
:103050000E94FB0B51CA8235E9F461E070E0CE01B9
:103060008F599F4F0E9439108D3309F014CC42E0E4
:1030700050E0BE016F597F4FCE01855A9F4F0E948D
:10308000980ECE01855A9F4F0E942E10E0966FAF8A
:10309000E0973DC08434A9F4F101A8967FACA897CD
:1030A000D79CE00DF11D1124A6968FADA6978C2C10
:1030B000881A882D8E0D838301501109158304838E
:1030C000EACB833409F0E7CB61E070E0CE018F59A1
:1030D0009F4F0E9439108D3309F0DDCB42E050E064
:1030E000BE016F597F4FCE01855A9F4F0E94980EA7
:1030F000CE01855A9F4F0E942E10F101A8967FACF9
:10310000A897D79CE00DF11D112471836083CE0137
:10311000855A9F4F0E943D11BECB0E94BE1BA196B7
:103120008EAD9FADA197A7969FAF8EAFA7972BCCE3
:10313000B7FC2DCF0B2D000F110B08531C4FD801DE
:103140006D917C91AB01770F660B770BF701808156
:103150009181092E000CAA0BBB0B3A014B01680EA2
:10316000791E8A1E9B1EC401B30122E030E040E0BC
:1031700050E00E948E19D8012D933C9357CF81EADD
:1031800092E00E943D1181EE93E00E943D118BED93
:1031900093E00C943D110F931F93CF93DF93E0E0E6
:1031A000F2E01382128288EE93E0A0E0B0E0848324
:1031B0009583A683B78381E191E09183808385EC39
:1031C00090E09587848784EC90E09787868780ECF1
:1031D00090E0918B808B81EC90E0938B828B82ECE2
:1031E00090E0958B848B86EC90E0978B868B118E8C
:1031F000128E138E148EE8EEF3E082E38083118248
:1032000013821282CCEBD3E0D093C103C093C003EE
:103210000EEB13E01093C3030093C20366E671E064
:103220008BED93E00E94421166E671E081EE93E03F
:103230000E944211F801118210821982188287EAD5
:1032400092E00E94BD0D66E671E081EA92E00E9484
:1032500042110E94950C60939D0270939E02809390
:103260009F029093A002DF91CF911F910F9108953B
:10327000991B79E004C0991F961708F0961B881FC8
:103280007A95C9F780950895AA1BBB1B51E107C029
:10329000AA1FBB1FA617B70710F0A61BB70B881FE6
:1032A000991F5A95A9F780959095BC01CD01089575
:1032B00097FB072E16F4009407D077FD09D00E94E3
:1032C000441907FC05D03EF4909581959F4F0895D1
:1032D000709561957F4F0895A1E21A2EAA1BBB1B22
:1032E000FD010DC0AA1FBB1FEE1FFF1FA217B307D2
:1032F000E407F50720F0A21BB30BE40BF50B661FE8
:10330000771F881F991F1A9469F7609570958095AB
:1033100090959B01AC01BD01CF010895052E97FB4F
:103320001EF400940E94A51957FD07D00E946C1945
:1033300007FC03D04EF40C94A51950954095309598
:1033400021953F4F4F4F5F4F089590958095709511
:1033500061957F4F8F4F9F4F08950E94C421B7FF03
:103360000895821B930B0895EE0FFF1F0590F491B3
:10337000E02D09945058BB27AA270E94D2190C941B
:103380003D210E942F2138F00E94362120F039F48F
:103390009F3F19F426F40C942C210EF4E095E7FBE2
:1033A0000C942621E92F0E944E2158F3BA17620788
:1033B00073078407950720F079F4A6F50C94702123
:1033C0000EF4E0950B2EBA2FA02D0B01B901900140
:1033D0000C01CA01A0011124FF27591B99F0593F84
:1033E00050F4503E68F11A16F040A22F232F342FCC
:1033F0004427585FF3CF469537952795A795F0401A
:103400005395C9F77EF41F16BA0B620B730B840B2E
:10341000BAF09150A1F0FF0FBB1F661F771F881FE6
:10342000C2F70EC0BA0F621F731F841F48F487953E
:1034300077956795B795F7959E3F08F0B0CF939530
:10344000880F08F09927EE0F9795879508950E94A9
:103450003B1A0C943D210E94362158F00E942F21E6
:1034600040F029F45F3F29F00C94262151110C946F
:1034700071210C942C210E944E2168F39923B1F301
:10348000552391F3951B550BBB27AA27621773078A
:10349000840738F09F5F5F4F220F331F441FAA1F1E
:1034A000A9F335D00E2E3AF0E0E832D091505040DA
:1034B000E695001CCAF72BD0FE2F29D0660F771F88
:1034C000881FBB1F261737074807AB07B0E809F06E
:1034D000BB0B802DBF01FF2793585F4F3AF09E3FF3
:1034E000510578F00C9426210C9471215F3FE4F390
:1034F000983ED4F3869577956795B795F7959F5F36
:10350000C9F7880F911D9695879597F90895E1E081
:10351000660F771F881FBB1F621773078407BA07E0
:1035200020F0621B730B840BBA0BEE1F88F7E0953B
:1035300008950E94A01A6894B1110C947121089505
:103540000E94562188F09F5798F0B92F9927B751BC
:10355000B0F0E1F0660F771F881F991F1AF0BA9537
:10356000C9F714C0B13091F00E947021B1E0089504
:103570000C947021672F782F8827B85F39F0B93FF6
:10358000CCF3869577956795B395D9F73EF49095EA
:103590008095709561957F4F8F4F9F4F08950E9442
:1035A000952008F48FEF0895A0E0B0E0EAEDFAE18D
:1035B0000C949121EC01009721F4CB010E948F1E05
:1035C000B8C0FC01E60FF71F9C0122503109E21739
:1035D000F30708F4ACC0D9010D911C91119706179F
:1035E0001707B0F00530110508F49FC0C801049713
:1035F0008617970708F499C002501109061B170B8C
:10360000019311936D937C93CF010E94241F8DC071
:103610005B01A01AB10A4C01800E911EA0915204C8
:10362000B091530440E050E0E12CF12C109709F4E4
:103630004AC0A815B905D1F56D907C90119763012A
:1036400082E0C80ED11CCA14DB0480F1A3014A1920
:103650005B096A0182E0C80ED11C1296BC901297D9
:103660001396AC91B5E0CB16D10440F0B282A3839F
:1036700051834083D9016D937C930AC00E5F1F4F25
:10368000C301800F911FF90191838083EB2DFA2FE5
:10369000E114F10431F0D7011396FC93EE931297E5
:1036A00044C0F0935304E09352043FC08D919C9129
:1036B00011974817590708F4AC017D0112960D9037
:1036C000BC91A02DB3CF80915004909151048815E6
:1036D0009905E1F446175707C8F4809107019091C6
:1036E0000801009741F48DB79EB740910B015091AE
:1036F0000C01841B950BE817F907C8F4F0935104EB
:10370000E0935004F901718360830FC0CB010E94E4
:103710008F1E7C01009759F0A801BE010E94A31BD7
:10372000CE010E94241FC70104C0CE0102C080E068
:1037300090E0CDB7DEB7EEE00C94AD2181E090E0F3
:10374000F8940C94D321FB01DC0102C001900D928E
:1037500041505040D8F708956817790768F4FB0185
:10376000DC01E40FF51FA40FB51F02C002900E92FA
:1037700041505040D8F708950C94A31BFB01DC0185
:1037800001900D920020E1F70895FB01DC0141500A
:10379000504048F001900D920020C9F701C01D92E1
:1037A00041505040E0F70895FB0151915523A9F095
:1037B000BF01DC014D9145174111E1F759F4CD01ED
:1037C0000190002049F04D9140154111C9F3FB01D2
:1037D0004111EFCF81E090E001970895AEE0B0E0B5
:1037E000E4EFFBE10C949B210D891E8986E08C831C
:1037F0001A8309838FEF9FE79E838D83AE01475E17
:103800005F4F6F89788DCE0101960E94111C2F8128
:103810003885F801E20FF31F10822E96E4E00C9435
:10382000B721ACE0B0E0E7E1FCE10C948D217C0134
:103830006B018A01FC0117821682838181FFBDC161
:10384000CE0101964C01F7019381F60193FD85911C
:1038500093FF81916F01882309F4ABC1853239F45C
:1038600093FD859193FF81916F01853229F4B70112
:1038700090E00E94F91DE7CF512C312C20E020323E
:10388000A0F48B3269F030F4803259F0833269F45D
:1038900020612CC08D3239F0803339F4216026C08C
:1038A0002260246023C0286021C027FD27C030ED9E
:1038B000380F3A3078F426FF06C0FAE05F9E300DEC
:1038C0001124532E13C08AE0389E300D1124332E5C
:1038D00020620CC08E3221F426FD6BC1206406C02C
:1038E0008C3611F4206802C0883641F4F60193FD4D
:1038F000859193FF81916F018111C1CF982F9F7D99
:103900009554933028F40C5F1F4FFFE3F9830DC0EB
:10391000833631F0833771F0833509F05BC022C004
:10392000F801808189830E5F1F4F44244394512CFA
:10393000540115C03801F2E06F0E711CF801A0802F
:10394000B18026FF03C0652D70E002C06FEF7FEFEE
:10395000C5012C870E94EE1D2C0183012C852F7739
:10396000222E17C03801F2E06F0E711CF801A08002
:10397000B18026FF03C0652D70E002C06FEF7FEFBE
:10398000C5012C870E94E31D2C012C852068222E66
:10399000830123FC1BC0832D90E048165906B0F428
:1039A000B70180E290E00E94F91D3A94F4CFF5014E
:1039B00027FC859127FE81915F01B70190E00E946D
:1039C000F91D31103A94F1E04F1A51084114510495
:1039D00071F7E5C0843611F0893639F5F80127FF13
:1039E00007C060817181828193810C5F1F4F08C085
:1039F00060817181072E000C880B990B0E5F1F4FA1
:103A00002F76722E97FF09C09095809570956195DD
:103A10007F4F8F4F9F4F2068722E2AE030E0A40125
:103A20000E94311EA82EA81844C0853729F42F7E85
:103A3000B22E2AE030E025C0F22FF97FBF2E8F365C
:103A4000C1F018F4883579F0B4C0803719F08837A0
:103A500021F0AFC02F2F2061B22EB4FE0DC08B2DF0
:103A60008460B82E09C024FF0AC09F2F9660B92E2B
:103A700006C028E030E005C020E130E002C020E1CF
:103A800032E0F801B7FE07C06081718182819381C5
:103A90000C5F1F4F06C06081718180E090E00E5F77
:103AA0001F4FA4010E94311EA82EA818FB2DFF77DE
:103AB0007F2E76FE0BC0372D3E7FA51450F474FE8A
:103AC0000AC072FC08C0372D3E7E05C0BA2C372DC7
:103AD00003C0BA2C01C0B52C34FF0DC0FE01EA0DA5
:103AE000F11D8081803311F4397E09C032FF06C098
:103AF000B394B39404C0832F867809F0B39433FD54
:103B000013C030FF06C05A2CB31418F4530C5B18C2
:103B1000B32CB31468F4B70180E290E03C870E94B4
:103B2000F91DB3943C85F5CFB31410F43B1801C0D4
:103B3000312C34FF12C0B70180E390E03C870E9433
:103B4000F91D3C8532FF17C031FD03C088E790E0C6
:103B500002C088E590E0B7010CC0832F867859F049
:103B600031FF02C08BE201C080E237FD8DE2B70178
:103B700090E00E94F91DA51438F4B70180E390E0AD
:103B80000E94F91D5A94F7CFAA94F401EA0DF11D91
:103B90008081B70190E00E94F91DA110F5CF33207C
:103BA00009F451CEB70180E290E00E94F91D3A94E9
:103BB000F6CFF7018681978102C08FEF9FEF2C9699
:103BC000E2E10C94A921FC010590615070400110C4
:103BD000D8F7809590958E0F9F1F0895FC01615036
:103BE000704001900110D8F7809590958E0F9F1F1F
:103BF00008950F931F93CF93DF93FB01238121FD42
:103C000003C08FEF9FEF28C022FF16C04681578167
:103C1000248135814217530744F4A081B1819D016D
:103C20002F5F3F4F318320838C93268137812F5F15
:103C30003F4F3783268310C0EB01092F182F0084D4
:103C4000F185E02D0995892BE1F68E819F81019602
:103C50009F838E83812F902FDF91CF911F910F91A2
:103C60000895FA01AA27283051F1203181F1E89412
:103C70006F936E7F6E5F7F4F8F4F9F4FAF4FB1E05F
:103C80003ED0B4E03CD0670F781F891F9A1FA11D5A
:103C9000680F791F8A1F911DA11D6A0F711D811D5B
:103CA000911DA11D20D009F468943F912AE0269F20
:103CB00011243019305D3193DEF6CF010895462F7F
:103CC0004770405D4193B3E00FD0C9F7F6CF462F60
:103CD0004F70405D4A3318F0495D31FD40524193C9
:103CE00002D0A9F7EACFB4E0A69597958795779586
:103CF0006795BA95C9F700976105710508959B010D
:103D0000AC010A2E06945795479537952795BA9595
:103D1000C9F7620F731F841F951FA01D0895CF93CD
:103D2000DF938230910510F482E090E0E09152043C
:103D3000F091530420E030E0C0E0D0E0309711F182
:103D40004081518148175907C0F04817590761F45D
:103D500082819381209719F09B838A832BC0909353
:103D600053048093520426C02115310519F04217DF
:103D7000530718F49A01BE01DF01EF010280F381BD
:103D8000E02DDCCF2115310509F1281B390B24303A
:103D9000310590F412968D919C91139761157105E0
:103DA00021F0FB019383828304C09093530480939A
:103DB0005204FD01329644C0FD01E20FF31F8193CE
:103DC0009193225031092D933C933AC02091500495
:103DD00030915104232B41F42091090130910A01C3
:103DE0003093510420935004209107013091080131
:103DF0002115310541F42DB73EB740910B0150918B
:103E00000C01241B350BE0915004F0915104E21792
:103E1000F307A0F42E1B3F0B2817390778F0AC01ED
:103E20004E5F5F4F2417350748F04E0F5F1F5093CA
:103E30005104409350048193919302C0E0E0F0E07C
:103E4000CF01DF91CF9108950F931F93CF93DF930D
:103E5000009709F48CC0FC01329713821282009102
:103E60005204109153040115110581F42081318110
:103E7000820F931F20915004309151042817390765
:103E800079F5F0935104E093500471C0D80140E0FB
:103E900050E0AE17BF0750F412962D913C91139746
:103EA000AD012115310509F1D901F3CF9D01DA01E9
:103EB0003383228360817181860F971F8217930756
:103EC00069F4EC0128813981260F371F2E5F3F4F9F
:103ED000318320838A819B8193838283452B29F4BC
:103EE000F0935304E093520442C01396FC93EE9374
:103EF0001297ED01499159919E01240F351FE21748
:103F0000F30771F480819181840F951F02961196B9
:103F10009C938E938281938113969C938E93129798
:103F2000E0E0F0E0D80112968D919C9113970097F4
:103F300019F0F8018C01F6CF8D919C9198012E5FBC
:103F40003F4F820F931F2091500430915104281746
:103F5000390769F4309729F41092530410925204EF
:103F600002C0138212821093510400935004DF9117
:103F7000CF911F910F910895FC0188279927E8940C
:103F800021912032E9F3293010F02E30C8F32B3282
:103F900041F02D3239F4689404C00E942120820F30
:103FA000911D219120532A30C0F31EF490958195E4
:103FB0009F4F08951F93FC0199278827BC01E8941F
:103FC00011911032E9F3193010F01E30C8F31B3292
:103FD00051F01D3249F4689406C00E940C20610F14
:103FE000711D811D911D119110531A30B0F33EF4D3
:103FF00090958095709561957F4F8F4F9F4F1F9142
:104000000895BB274A3031F4992322F4BDE29095FC
:1040100081959F4F0C942A20592F482F372F262FF8
:10402000660F771F881F991F660F771F881F991FBC
:10403000620F731F841F951F660F771F881F991FBC
:1040400008957AE0979F902D879F802D910D1124E0
:104050000895BB27FB015527AA27880F991FAA1F80
:10406000A41710F0A41B83955051B9F7A05DAA3393
:1040700008F0A95DA193009779F7B111B19311925E
:10408000CB010C944320DC01FC01672F7191772355
:10409000E1F7329704C07C916D9370836291AE1703
:1040A000BF07C8F308950E94952008F481E00895A1
:1040B000E89409C097FB3EF49095809570956195C2
:1040C0007F4F8F4F9F4F9923A9F0F92F96E9BB2778
:1040D0009395F695879577956795B795F111F8CFF4
:1040E000FAF4BB0F11F460FF1BC06F5F7F4F8F4F5F
:1040F0009F4F16C0882311F096E911C0772321F055
:104100009EE8872F762F05C0662371F096E8862FEC
:1041100070E060E02AF09A95660F771F881FDAF743
:10412000880F9695879597F90895990F0008550F70
:10413000AA0BE0E8FEEF16161706E807F907C0F02D
:1041400012161306E407F50798F0621B730B840B35
:10415000950B39F40A2661F0232B242B252B21F40F
:1041600008950A2609F4A140A6958FEF811D811DAF
:1041700008950E94CC200C943D210E942F2138F0FC
:104180000E94362120F0952311F00C9426210C94E6
:104190002C2111240C9471210E944E2170F3959FC3
:1041A000C1F3950F50E0551F629FF001729FBB272E
:1041B000F00DB11D639FAA27F00DB11DAA1F649FCA
:1041C0006627B00DA11D661F829F2227B00DA11D7D
:1041D000621F739FB00DA11D621F839FA00D611D03
:1041E000221F749F3327A00D611D231F849F600D24
:1041F000211D822F762F6A2F11249F5750409AF04D
:10420000F1F088234AF0EE0FFF1FBB1F661F771FD8
:10421000881F91505040A9F79E3F510580F00C94A3
:1042200026210C9471215F3FE4F3983ED4F38695E8
:1042300077956795B795F795E7959F5FC1F7FE2B43
:10424000880F911D9695879597F9089597F99F671F
:1042500080E870E060E008959FEF80EC089500240E
:104260000A941616170618060906089500240A94DB
:1042700012161306140605060895092E0394000C61
:1042800011F4882352F0BB0F40F4BF2B11F460FFF0
:1042900004C06F5F7F4F8F4F9F4F089557FD905819
:1042A000440F551F59F05F3F71F04795880F97FBFA
:1042B000991F61F09F3F79F08795089512161306B4
:1042C0001406551FF2CF4695F1DF08C016161706E3
:1042D0001806991FF1CF8695710561050894089518
:1042E000E894BB2766277727CB0197F90895F999BA
:1042F000FECF92BD81BDF89A992780B50895262FEB
:10430000F999FECF1FBA92BD81BD20BD0FB6F894BA
:10431000FA9AF99A0FBE019608952F923F924F9202
:104320005F926F927F928F929F92AF92BF92CF9245
:10433000DF92EF92FF920F931F93CF93DF93CDB74E
:10434000DEB7CA1BDB0B0FB6F894DEBF0FBECDBFC6
:1043500009942A88398848885F846E847D848C8497
:104360009B84AA84B984C884DF80EE80FD800C81A0
:104370001B81AA81B981CE0FD11D0FB6F894DEBF83
:104380000FBECDBFED010895A29FB001B39FC00144
:10439000A39F700D811D1124911DB29F700D811D71
:1043A0001124911D089510E0C5E7D0E004C0FE017E
:1043B0000E94B4192196C637D107C9F7F894FFCFE8
:1043C0002C01068C0B8C0B000054048000000000B4
:1043D00000230B0310EC0ACA0ADE0A6A0B4F4B00DB
:1043E0005620332E332E30205349474E414C6475AE
:1043F000696E6F202D20636F6D70696C656420613C
:1044000074205365702031382032303136203030FE
:104410003A32313A3439004954506172616D733A1D
:1044200020003B000D0A004D5300443D0043503D29
:104430000053503D004F0025303258002530315890
:10444000004D43004C4C3D004C483D00534C3D005A
:0C44500053483D00433D004D5500500016
:00000001FF
